:020000040800F2
:10000000E0830020156300081D6300081F630008DB
:100010002163000823630008256300080000000036
:10002000000000000000000000000000276300083E
:10003000296300080000000049020008418B000805
:100040002F6300082F6300082F6300082F63000848
:100050002F6300082F6300082F6300082F63000838
:100060002F6300082F6300082F6300082F63000828
:100070002F6300082F6300082F6300082F63000818
:100080002F6300082F6300082F6300082F63000808
:100090002F6300082F6300082F6300082F630008F8
:1000A0002F6300082F6300082F6300082F630008E8
:1000B0002F6300082F6300082F6300082F630008D8
:1000C0002F6300082F6300082F6300082F630008C8
:1000D0002F630008676100082F6300082F63000882
:1000E0002F6300082F6300082F6300082F630008A8
:1000F0002F6300082F6300082F6300082F63000898
:100100002F6300082F6300082F6300082F63000887
:100110002F6300082F6300082F6300082F63000877
:100120002F6300082F6300082F6300082F63000867
:100130002F6300082F6300082F6300082F63000857
:100140002F6300082F6300082F6300082F63000847
:100150002F6300082F6300082F6300082F63000837
:100160002F6300082F6300082F6300082F63000827
:100170002F6300082F6300082F6300082F63000817
:100180002F6300082F63000800F002F800F04DF81C
:100190000AA090E8000C82448344AAF10107DA45E2
:1001A00001D100F042F8AFF2090EBAE80F0013F0E7
:1001B000010F18BFFB1A43F001031847E0C300000A
:1001C00000C40000103A24BF78C878C1FAD852079A
:1001D00024BF30C830C144BF04680C6070470000C1
:1001E0000023002400250026103A28BF78C1FBD840
:1001F000520728BF30C148BF0B607047642908F020
:100200003587732909F07F81002070471FB50AF0F8
:1002100062F809F0A3FA04000020002109F0C0FAF6
:10022000401C60601FBD10B510BD09F072FA114688
:10023000FFF7ECFF07F048FE09F0A2FA03B4FFF75E
:10024000F2FF03BC05F0F8FFEFF3098020E9F00F9F
:100250000749096808600648064909680160086896
:10026000B0E8F00F80F309884EF0040E704700BF2D
:10027000840000208800002009E04FF47A713220C9
:1002800006F03BF80446204608F0EAFB00BFF4E71E
:100290001CB5002400F0B3FD81E00C2C41D2DFE856
:1002A00004F0060B0F13181D22272C31363B4FF696
:1002B000FF7000F08FFD34E0002000F08BFD30E097
:1002C0001F2000F087FD2CE04FF4784000F082FD05
:1002D00027E04FF61F0000F07DFD22E04FF4FC60A8
:1002E00000F078FD1DE047F6FF7000F073FD18E0A8
:1002F0004FF6E07000F06EFD13E04FF6074000F09F
:1003000069FD0EE048F2304000F064FD09E04CF277
:10031000186000F05FFD04E04BF6404000F05AFD2D
:1003200000BF00BF4FF478405449088054A0182102
:100330000B46D222CDE9001028211E2003F0DDFB60
:1003400054A010210B46C822CDE9001046211E20E2
:1003500003F0D3FB55A010210B46C822CDE90010B5
:100360005A211E2003F0C9FB54A00C210B46C822C1
:10037000CDE9001082211E2003F0BFFB601CC4B237
:100380000C2C00D100245048006808B9012000E07E
:1003900000204D4908604FF47A7008F061FB7CE75B
:1003A0000BE00020494908600A2008F059FB0120B1
:1003B000464908600A2008F053FBF2E70FE00020EE
:1003C00000E0401C42498842FBDB4FF47A71481040
:1003D00005F093FF0446204608F042FB00BFEEE71D
:1003E0000EB505F046FE04F043FF04F073FE04F082
:1003F000CCFE05F0AFFC04F05BFF05F065F805F0FE
:1004000053FF34A04FF480510022344BCDE900213A
:10041000029041F24512AFF29F11314808F014F9F1
:1004200030A04FF480510122304BCDE900210290E1
:1004300041F61912AFF2A7112D4808F005F92DA0C9
:100440004FF4805101222D4BCDE90021029041F65D
:100450001912AFF2B3012A4808F0F6F829A04FF4B8
:1004600080510222294BCDE90021029041F6191258
:10047000AFF2B701264808F0E7F80EBD10000020E3
:10048000536F433A2053544D3332463430375A4732
:100490005436000043505520436F72653A20415254
:1004A0004D20436F727465782D4D34004650553A97
:1004B00020454E41424C4544000000003230323469
:1004C0002F342F3139000000A4824242080000205E
:1004D0003F3F3F005441534B31000000900000204B
:1004E000904000205441534B3200000090100020F7
:1004F000F04000205441534B330000009020002076
:10050000504100205441534B3400000090300020F3
:10051000B041002001B5BDF800000090BDF800001A
:10052000FE49088008BD01B5BDF800000090BDF887
:100530000000FA49891C088008BD08B5F748801CEE
:1005400000880090BDF8000008BDF44A10804FF00C
:10055000D842A2F88010704700B502461046FFF757
:10056000D9FF002000E0401C42F210718842FADB03
:10057000FFF7E3FF00BDEA480089E84908807047BB
:10058000E649891C0880704730B5014601F01F0418
:10059000C1F34513CA0AE50205EB43151544A8B299
:1005A00030BD00BF011EA0F10102D0B2FAD17047E8
:1005B00010B502460C46DA48808841F6631188423D
:1005C00047D1D7488079A8B9D5480088401E801AFD
:1005D00082B2D3494889FFF79DFF0020FFF7A3FFB0
:1005E0000020FFF7A0FF1012FFF79DFFD0B2FFF72A
:1005F0009AFF16E0CA494889FFF78CFF1012FFF7EF
:1006000092FFD0B2FFF78FFFC5490988491EC1F399
:100610000F20FFF788FFC2490978491EC8B2FFF7CB
:1006200082FFBF498889FFF775FF2012FFF77BFF24
:10063000E0B2FFF778FFBA494988491EC1F30F209D
:10064000FFF771FFB6498978491EC8B2FFF76BFF03
:100650003AE0B348808845F21051884220D1B04931
:100660004889FFF757FF1012FFF75DFFAC49498932
:10067000491C88B2FFF74EFFD0B2FFF754FFA849DC
:100680008889FFF747FF2012FFF74DFFA4498989AA
:10069000491C88B2FFF73EFFE0B2FFF744FF13E0CA
:1006A0009F494889FFF736FF1012FFF73CFFD0B291
:1006B000FFF739FF9A498889FFF72CFF2012FFF7CF
:1006C00032FFE0B2FFF72FFF10BD2DE9F0410546E4
:1006D0000E4600240027A04691480088A84203DD6A
:1006E0008F484088B04202DC0020BDE8F0813146EE
:1006F0002846FFF75DFF8A48808845F210518842FE
:1007000004D14FF43850FFF705FF02E02E20FFF729
:1007100001FFFFF712FF04468148808841F663110C
:10072000884201D12046E0E7FFF707FF0446FFF7C4
:1007300004FF8046E7B24FF6FF7000EA0727E01299
:10074000C002B91240EA411040EAE820CDE700B506
:100750007348808845F21051884204D14FF42450E8
:10076000FFF7D8FE02E02920FFF7D4FE00BD00B558
:100770006B48808845F21051884204D14FF42050D4
:10078000FFF7C8FE02E02820FFF7C4FE00BDF0B569
:1007900005460024002762488079012805D1604879
:1007A000808841F66311884208D15D488079F0B9AC
:1007B0005B48808841F66311884218D1082D15D214
:1007C000DFE805F00406080A0C0E101206250DE0FD
:1007D00007250BE0042509E0052507E0012505E0D4
:1007E000002503E0032501E0022500BF00BF082D1E
:1007F0001CD2DFE805F00406090C0F12151800BF23
:1008000014E044F0800411E044F040040EE044F0B1
:10081000C0040BE044F0200408E044F0600405E06C
:1008200044F0A00402E044F0E00400BF00BF3C48F4
:10083000808845F21051884202D14FF4585700E0A9
:1008400036273748808849F24131884205D03448FC
:10085000808847F28971884201D144F0080421461A
:100860003846FFF772FE2E48808841F663118842B1
:100870001DD004F0200068B1294800882849498823
:10088000884214DA264806884088254908800846A8
:1008900046800CE02248008821494988884206DDCC
:1008A0001F48068840881E490880084646801C4824
:1008B000808845F21051884257D119494889FFF77D
:1008C00029FE0020FFF72FFE15494989491C88B2EF
:1008D000FFF720FE0020FFF726FE11494989891CF9
:1008E00088B2FFF717FE0E490988491EC1F30F2091
:1008F000FFF719FE0A494989C91C88B2FFF70AFEA9
:1009000007490978491EC8B2FFF70DFE04498889D6
:10091000FFF700FE0020FFF706FE03E07E00006CFC
:1009200010420020FE498989491C88B2FFF7F2FD78
:100930000020FFF7F8FDFA498989891C88B2FFF782
:10094000E9FDF7494988491EC1F30F20FFF7EBFD88
:10095000F3498989C91C88B2FFF7DCFDF049897821
:10096000491EC8B2FFF7DFFD2DE0ED494889FFF7CA
:10097000D1FD0020FFF7D7FD0020FFF7D4FDE849A7
:100980000988491EC1F30F20FFF7CDFDE44909781E
:10099000491EC8B2FFF7C7FDE1498889FFF7BAFDD4
:1009A0000020FFF7C0FD0020FFF7BDFDDC494988AE
:1009B000491EC1F30F20FFF7B6FDD9498978491EBA
:1009C000C8B2FFF7B0FDF0BD30B504460D4629466C
:1009D0002046FFF7EDFDFFF7CEFDD2480088D24953
:1009E000088030BD30B504460D46CD48808845F2BC
:1009F0001051884220D1CA494889FFF78BFD201247
:100A0000FFF791FDC6494989491C88B2FFF782FD6D
:100A1000E0B2FFF788FDC2498889FFF77BFD281205
:100A2000FFF781FDBE498989491C88B2FFF772FD35
:100A3000E8B2FFF778FD42E0B948808841F66311DB
:100A4000884228D1B648807920B9B5480088401E30
:100A5000001B84B2B2494889FFF75CFD2012FFF702
:100A600062FDE0B2FFF75FFD2012FFF75CFDE0B230
:100A7000FFF759FDAA498889FFF74CFD2812FFF7B7
:100A800052FDE8B2FFF74FFD2812FFF74CFDE8B228
:100A9000FFF749FD13E0A2494889FFF73BFD20120B
:100AA000FFF741FDE0B2FFF73EFD9D498889FFF762
:100AB00031FD2812FFF737FDE8B2FFF734FD984803
:100AC00000899949891E08804FF0D840A0F88020FD
:100AD00030BD70B52DED048B0446BE20FFF71AFD26
:100AE0000520FFF720FD204609F00BF941EC190B1A
:100AF0009FED8E0B53EC102B09F052F941EC180BC3
:100B000009F0D2F885B22846FFF70DFD0120FFF766
:100B10000AFDFF20FFF707FD0020FFF704FD00207E
:100B2000FFF701FDBDEC048B70BD10B504467C4899
:100B30008471002C45D1F020794908804FF4A070D1
:100B400048800846808845F21051884210D14FF401
:100B50003050734908814FF4285048814FF42C508D
:100B600088814FF4F07008804FF4487048801AE094
:100B70006B48808841F6631188420DD12C2068496A
:100B800008812B2048812A2088814FF4F07008804A
:100B90004FF44870488006E02C20614908812A20E3
:100BA00048812B2088815E48808845F21031884238
:100BB0004CD14FF4A0705A4908804FF4F07048802F
:100BC00044E04FF4A07056490880F0204880084661
:100BD000808845F21051884210D14FF4305050496E
:100BE00008814FF4285048814FF42C5088814FF4ED
:100BF000487008804FF4F07048801AE048488088B8
:100C000041F6631188420DD12C20454908812A20E4
:100C100048812B2088814FF4487008804FF4F07091
:100C2000488006E02C203E4908812A2048812B205C
:100C300088813B48808845F21031884206D14FF4C4
:100C4000F070374908804FF4A07048800020FFF70B
:100C50009EFD10BD2DE9F04104460D461E46A0182C
:100C6000401E87B2A819401E1FFA80F82C488088C1
:100C700041F66311884231D12948807901282DD06D
:100C800027480088801A001B84B2A819401E86B22B
:100C900023494889FFF73EFC2012FFF744FCE0B2ED
:100CA000FFF741FCA118491EC1F30F20FFF73BFCE1
:100CB000A118491EC8B2FFF736FC19498889FFF709
:100CC00029FC2812FFF72FFCE8B2FFF72CFC3012AA
:100CD000FFF729FCF0B2FFF726FC79E01048808886
:100CE00045F21051884251D10D494889FFF712FC55
:100CF0002012FFF718FC0A494989491C88B2FFF7FE
:100D000009FCE0B2FFF70FFC05494989891C88B24C
:100D1000FFF700FC3812FFF706FC0149498909E09A
:100D200010420020100000208000006C666666669D
:100D300066660440C91C88B2FFF7ECFBF8B2FFF707
:100D4000F2FBFE498889FFF7E5FB2812FFF7EBFB72
:100D5000FA498989491C88B2FFF7DCFBE8B2FFF742
:100D6000E2FBF6498989891C88B2FFF7D3FB4FEA79
:100D70002820FFF7D8FBF1498989C91C88B2FFF701
:100D8000C9FB08F0FF00FFF7CEFB21E0EB494889E3
:100D9000FFF7C0FB2012FFF7C6FBE0B2FFF7C3FB73
:100DA0003812FFF7C0FBF8B2FFF7BDFBE3498889B3
:100DB000FFF7B0FB2812FFF7B6FBE8B2FFF7B3FB73
:100DC0004FEA2820FFF7AFFB08F0FF00FFF7ABFB6F
:100DD000BDE8F08170B504460026D84805884088F3
:100DE000454300210846FFF7E3FBFFF7C4FB00BFC4
:100DF00002E0D3480480761CAE42FAD370BD00B541
:100E0000A1B00020209001217A2006F0B3F9012141
:100E1000084606F0E7F94FF400401E9001208DF8D7
:100E20007C0000208DF87E0002208DF87D000120DE
:100E30008DF87F001EA9C34805F01AFC4CF23370F0
:100E40001E9002208DF87C0000208DF87E0003208B
:100E50008DF87D0001208DF87F001EA9BA4805F0AD
:100E600007FC4FF680701E9002208DF87C00002059
:100E70008DF87E0003208DF87D0001208DF87F0025
:100E80001EA9B24805F0F4FB4FF480501E900220DA
:100E90008DF87C0000208DF87E0003208DF87D0009
:100EA00001208DF87F001EA9A94805F0E1FB4FF451
:100EB00080501E9002208DF87C0000208DF87E006E
:100EC00003208DF87D0001208DF87F001EA9A14828
:100ED00005F0CEFB0C2200219B4805F054FC0C22AF
:100EE0000121994805F04FFC0C220421964805F099
:100EF0004AFC0C220521944805F045FC0C220821EF
:100F0000914805F040FC0C2209218F4805F03BFC7C
:100F10000C220A218C4805F036FC0C220E218A484E
:100F200005F031FC0C220F21874805F02CFC0C2227
:100F30000721864805F027FC0C220821834805F08C
:100F400022FC0C220921814805F01DFC0C220A21FB
:100F50007E4805F018FC0C220B217C4805F013FCA0
:100F60000C221146794805F00EFC0C220D21774821
:100F700005F009FC0C220E21744805F004FC0C223B
:100F80000F21724805F0FFFB0C221146704805F056
:100F9000FAFB0C2211466F4805F0F5FB0F20089074
:100FA000002009903C200A9000200B900C900D909E
:100FB0000E9009200190002002900820039000204C
:100FC000049005900690079006200F900020109046
:100FD00011901020129000201390159014901690EC
:100FE00017904FF480501890002019904FF48040D3
:100FF0001A9000201B9008A81C9001A81D900FA813
:1010000005F015FC0121062005F09CFC322007F0BC
:1010100027FDD320FFF77EFAFFF78FFA4749888034
:10102000FFF78BFA45498880FFF787FA43498880A4
:10103000084680884FF6FF7101EA00203F4988800A
:10104000FFF77BFA3D49898808433C498880084678
:10105000808849F2413188426FD00420FFF75AFA64
:10106000FFF76BFA35498880FFF767FA33498880C4
:10107000FFF763FA31498880084680884FF6FF7190
:1010800001EA00202D498880FFF757FA2B4989880B
:1010900008432A4988800846808848F2525188428D
:1010A00003D147F28970254988802448808847F217
:1010B00089718842D0D0D420FFF72CFAFFF73DFA8F
:1010C0001E498880FFF739FA1C498880FFF735FAF6
:1010D0001A498880084680884FF6FF7101EA00208F
:1010E00016498880FFF729FA14498988084313496B
:1010F00088800846808845F21031884279D0552191
:101100004FF47040FFF721FAAA214FF20100FFF7D8
:101110001CFA52214FF20200FFF717FA08214FF292
:101120000300FFF712FA01214FF20400FFF70DFA56
:101130004FF44540FFF7EEF90EE05AE01042002070
:101140008000006C00040240000C024000100240CD
:101150000014024000180240FFF7EFF9FE498880B2
:10116000084680884FF6FF7101EA0020FA4988801E
:101170004CF20150FFF7CEF9FFF7DFF9F649898805
:101180000843F54988800A2007F06AFCF248808805
:10119000B0F5004F03D145F21050EF498880EE487A
:1011A000808845F21051884223D0A120FFF7B2F980
:1011B000FFF7C3F9E8498880FFF7BFF9E64988805F
:1011C000084680884FF6FF7101EA0020E2498880D6
:1011D000FFF7B3F9E04989880843DF49888008466A
:1011E000808845F26171884203D141F66310DA4983
:1011F0008880D948808849F24131884217D0D64842
:10120000808847F28971884211D0D348808845F29E
:10121000103188420BD0D048808845F21051884266
:1012200005D0CD48808841F6631188422CD1CB4847
:10123000006820F00F004FF02041C1F81C01084663
:10124000D0F81C0120F47060C1F81C010846D0F8E9
:101250001C0140F00300C1F81C01BF48808847F220
:101260008971884208D1BD48006840F440704FF051
:101270002041C1F81C0107E0B848006840F4007044
:101280004FF02041C1F81C01B348808849F2413138
:1012900088427CD1CF20FFF73DF90020FFF743F9CA
:1012A000C120FFF740F93020FFF73DF9ED20FFF7AF
:1012B00031F96420FFF737F90320FFF734F91220E2
:1012C000FFF731F98120FFF72EF9E820FFF722F927
:1012D0008520FFF728F91020FFF725F97A20FFF77E
:1012E00022F9CB20FFF716F93920FFF71CF92C2043
:1012F000FFF719F90020FFF716F93420FFF713F96B
:101300000220FFF710F9F720FFF704F92020FFF77C
:101310000AF9EA20FFF7FEF80020FFF704F90020A1
:10132000FFF701F9C020FFF7F5F81B20FFF7FBF8E6
:10133000C120FFF7EFF80120FFF7F5F8C520FFF710
:10134000E9F83020FFF7EFF83020FFF7ECF8C7207E
:10135000FFF7E0F8B720FFF7E6F83620FFF7DAF8F6
:101360004820FFF7E0F83A20FFF7D4F85520FFF7C0
:10137000DAF8B120FFF7CEF80020FFF7D4F81A20F2
:10138000FFF7D1F8B620FFF7C5F80A2000E099E092
:10139000FFF7C9F8A220FFF7C6F8F220FFF7BAF866
:1013A0000020FFF7C0F82620FFF7B4F80120FFF770
:1013B000BAF8E020FFF7AEF80F20FFF7B4F82A20C4
:1013C000FFF7B1F82820FFF7AEF80820FFF7ABF8D9
:1013D0000E20FFF7A8F80820FFF7A5F85420FFF724
:1013E000A2F8A920FFF79FF84320FFF79CF80A20F6
:1013F000FFF799F80F20FFF796F80020FFF793F812
:101400000020FFF790F80020FFF78DF80020FFF78D
:101410008AF8E120FFF77EF80020FFF784F8152016
:10142000FFF781F81720FFF77EF80720FFF77BF81A
:101430001120FFF778F80620FFF775F82B20FFF74B
:1014400072F85620FFF76FF83C20FFF76CF8052084
:10145000FFF769F81020FFF766F80F20FFF763F831
:101460003F20FFF760F83F20FFF75DF80F20FFF700
:101470005AF82B20FFF74EF80020FFF754F8002011
:10148000FFF751F80120FFF74EF83F20FFF74BF828
:101490002A20FFF73FF80020FFF745F80020FFF76C
:1014A00042F80020FFF73FF8EF20FFF73CF811204B
:1014B000FFF730F8782007F0D3FA2920FFF72AF851
:1014C00002F0B3B82448808847F2897188427DD100
:1014D0001120FFF71FF8782007F0C2FA3620FFF737
:1014E00019F80020FFF71FF83A20FFF713F805203E
:1014F000FFF719F8B220FFF70DF80C20FFF713F8EB
:101500000C20FFF710F80020FFF70DF83320FFF74D
:101510000AF83320FFF707F8B720FEF7FBFF352066
:10152000FFF701F8BB20FEF7F5FF3220FEF7FBFFC7
:10153000C020FEF7EFFF0C20FEF7F5FFC220FEF7FC
:10154000E9FF0120FEF7EFFFC320FEF7E3FF1020C5
:10155000FEF7E9FFC42003E0104200201C0100A0B8
:10156000FEF7D8FF2020FEF7DEFFC620FEF7D2FFF1
:101570000F20FEF7D8FFD020FEF7CCFFA420FEF707
:10158000D2FFA120FEF7CFFFE020FEF7C3FFD0205F
:10159000FEF7C9FF0020FEF7C6FF0220FEF7C3FFDB
:1015A0000720FEF7C0FF0A20FEF7BDFF2820FEF748
:1015B000BAFF3220FEF7B7FF4420FEF7B4FF422007
:1015C000FEF7B1FF0620FEF7AEFF00E05AE00E2066
:1015D000FEF7A9FF1220FEF7A6FF1420FEF7A3FFD7
:1015E0001720FEF7A0FFE120FEF794FFD020FEF7C2
:1015F0009AFF0020FEF797FF0220FEF794FF0720D6
:10160000FEF791FF0A20FEF78EFF2820FEF78BFFE2
:101610003120FEF788FF5420FEF785FF4720FEF7B4
:1016200082FF0E20FEF77FFF1C20FEF77CFF1720B5
:10163000FEF779FF1B20FEF776FF1E20FEF773FFF3
:101640002A20FEF767FF0020FEF76DFF0020FEF75F
:101650006AFF0020FEF767FFEF20FEF764FF2B20F4
:10166000FEF758FF0020FEF75EFF0020FEF75BFF4D
:101670000120FEF758FF3F20FEF755FF2920FEF717
:1016800049FF1DE7FE48808845F21031884240F04E
:101690007C87ED20FEF73EFF0120FEF744FFFE2091
:1016A000FEF741FFEE20FEF735FFDE20FEF73BFFA1
:1016B0002120FEF738FFF120FEF72CFF0120FEF776
:1016C00032FFDF20FEF726FF1020FEF72CFFC4209C
:1016D000FEF720FF8F20FEF726FFC620FEF71AFF39
:1016E0000020FEF720FFE220FEF71DFFE220FEF7BC
:1016F0001AFFE220FEF717FFBF20FEF70BFFAA201C
:10170000FEF711FFB020FEF705FF0D20FEF70BFFDF
:101710000020FEF708FF0D20FEF705FF0020FEF772
:1017200002FF1120FEF7FFFE0020FEF7FCFE19204D
:10173000FEF7F9FE0020FEF7F6FE2120FEF7F3FE8D
:101740000020FEF7F0FE2D20FEF7EDFE0020FEF754
:10175000EAFE3D20FEF7E7FE0020FEF7E4FE5D20F6
:10176000FEF7E1FE0020FEF7DEFE5D20FEF7DBFE69
:101770000020FEF7D8FEB120FEF7CCFE8020FEF759
:10178000D2FE0020FEF7CFFE8B20FEF7CCFE00201D
:10179000FEF7C9FE9620FEF7C6FE0020FEF7C3FE48
:1017A000B220FEF7B7FE0020FEF7BDFE0020FEF7D8
:1017B000BAFE0220FEF7B7FE0020FEF7B4FE0320BB
:1017C000FEF7B1FE0020FEF7AEFEB320FEF7A2FE4C
:1017D0000020FEF7A8FE0020FEF7A5FE0020FEF781
:1017E000A2FE0020FEF79FFE0020FEF79CFE0020D8
:1017F000FEF799FE0020FEF796FE0020FEF793FE0E
:101800000020FEF790FE0020FEF78DFE0020FEF780
:101810008AFE0020FEF787FE0020FEF784FE0020EF
:10182000FEF781FE0020FEF77EFE0020FEF77BFE25
:101830000020FEF778FE0020FEF775FE0020FEF780
:1018400072FE0020FEF76FFE0020FEF76CFE002007
:10185000FEF769FE0020FEF766FE0020FEF763FE3D
:10186000B420FEF757FE8B20FEF75DFE0020FEF74A
:101870005AFE9620FEF757FE0020FEF754FEA120E8
:10188000FEF751FE0020FEF74EFEB520FEF742FEA9
:101890000220FEF748FE0020FEF745FE0320FEF77B
:1018A00042FE0020FEF73FFE0420FEF73CFE002033
:1018B000FEF739FEB620FEF72DFE0020FEF733FEC0
:1018C0000020FEF730FEB720FEF724FE0020FEF7D2
:1018D0002AFE0020FEF727FE3F20FEF724FE002010
:1018E000FEF721FE5E20FEF71EFE0020FEF71BFE27
:1018F0006420FEF718FE0020FEF715FE8C20FEF790
:1019000012FE0020FEF70FFEAC20FEF70CFE0020BA
:10191000FEF709FEDC20FEF706FE0020FEF703FEC0
:101920007020FEF700FE0020FEF7FDFD9020FEF780
:10193000FAFD0020FEF7F7FDEB20FEF7F4FD002096
:10194000FEF7F1FDDC20FEF7EEFD0020FEF7EBFDDB
:10195000B820FEF7DFFD0020FEF7E5FD0020FEF7D2
:10196000E2FD0020FEF7DFFD0020FEF7DCFD002099
:10197000FEF7D9FD0020FEF7D6FD0020FEF7D3FDCF
:101980000020FEF7D0FDBA20FEF7C4FD2420FEF7AC
:10199000CAFD0020FEF7C7FD0020FEF7C4FD0020B1
:1019A000FEF7C1FDC120FEF7B5FD2020FEF7BBFD0F
:1019B0000020FEF7B8FD5420FEF7B5FD0020FEF72D
:1019C000B2FDFF20FEF7AFFD0020FEF7ACFDC22008
:1019D000FEF7A0FD0A20FEF7A6FD0020FEF7A3FDFE
:1019E0000420FEF7A0FD0020FEF79DFDC320FEF7BA
:1019F00091FD3C20FEF797FD0020FEF794FD3A2074
:101A0000FEF791FD0020FEF78EFD3920FEF78BFDDD
:101A10000020FEF788FD3720FEF785FD0020FEF749
:101A200082FD3C20FEF77FFD0020FEF77CFD362086
:101A3000FEF779FD0020FEF776FD3220FEF773FDFC
:101A40000020FEF770FD2F20FEF76DFD0020FEF751
:101A50006AFD2C20FEF767FD0020FEF764FD2920BB
:101A6000FEF761FD0020FEF75EFD2620FEF75BFD20
:101A70000020FEF758FD2420FEF755FD002001E070
:101A800010420020FEF74FFD2420FEF74CFD002001
:101A9000FEF749FD2320FEF746FD0020FEF743FD3B
:101AA0003C20FEF740FD0020FEF73DFD3620FEF70E
:101AB0003AFD0020FEF737FD3220FEF734FD00200E
:101AC000FEF731FD2F20FEF72EFD0020FEF72BFD47
:101AD0002C20FEF728FD0020FEF725FD2920FEF72B
:101AE00022FD0020FEF71FFD2620FEF71CFD002032
:101AF000FEF719FD2420FEF716FD0020FEF713FD6A
:101B00002420FEF710FD0020FEF70DFD2320FEF738
:101B10000AFD0020FEF707FDC420FEF7FBFC622053
:101B2000FEF701FD0020FEF7FEFC0520FEF7FBFCA2
:101B30000020FEF7F8FC8420FEF7F5FC0020FEF7FD
:101B4000F2FCF020FEF7EFFC0020FEF7ECFC182082
:101B5000FEF7E9FC0020FEF7E6FCA420FEF7E3FC1C
:101B60000020FEF7E0FC1820FEF7DDFC0020FEF769
:101B7000DAFC5020FEF7D7FC0020FEF7D4FC0C2046
:101B8000FEF7D1FC0020FEF7CEFC1720FEF7CBFCC1
:101B90000020FEF7C8FC9520FEF7C5FC0020FEF7EC
:101BA000C2FCF320FEF7BFFC0020FEF7BCFCE620E1
:101BB000FEF7B9FC0020FEF7B6FCC520FEF7AAFC34
:101BC0003220FEF7B0FC0020FEF7ADFC4420FEF70B
:101BD000AAFC0020FEF7A7FC6520FEF7A4FC00206D
:101BE000FEF7A1FC7620FEF79EFC0020FEF79BFC92
:101BF0008820FEF798FC0020FEF795FCC620FEF733
:101C000089FC2020FEF78FFC0020FEF78CFC1720BB
:101C1000FEF789FC0020FEF786FC0120FEF783FC1E
:101C20000020FEF780FCC720FEF774FC0020FEF7C2
:101C30007AFC0020FEF777FC0020FEF774FC002001
:101C4000FEF771FCC820FEF765FC0020FEF76BFC78
:101C50000020FEF768FC0020FEF765FC0020FEF780
:101C600062FCC920FEF756FC0020FEF75CFC002059
:101C7000FEF759FC0020FEF756FC0020FEF753FC4F
:101C80000020FEF750FC0020FEF74DFC0020FEF780
:101C90004AFC0020FEF747FC0020FEF744FC002031
:101CA000FEF741FC0020FEF73EFC0020FEF73BFC67
:101CB0000020FEF738FC0020FEF735FC0020FEF780
:101CC00032FC0020FEF72FFCE020FEF723FC16205C
:101CD000FEF729FC0020FEF726FC1C20FEF723FC63
:101CE0000020FEF720FC2120FEF71DFC0020FEF75F
:101CF0001AFC3620FEF717FC0020FEF714FC4620E5
:101D0000FEF711FC0020FEF70EFC5220FEF70BFC44
:101D10000020FEF708FC6420FEF705FC0020FEF71B
:101D200002FC7A20FEF7FFFB0020FEF7FCFB8B2075
:101D3000FEF7F9FB0020FEF7F6FB9920FEF7F3FB18
:101D40000020FEF7F0FBA820FEF7EDFB0020FEF7D9
:101D5000EAFBB920FEF7E7FB0020FEF7E4FBC42016
:101D6000FEF7E1FB0020FEF7DEFBCA20FEF7DBFBFF
:101D70000020FEF7D8FBD220FEF7D5FB0020FEF7AF
:101D8000D2FBD920FEF7CFFB0020FEF7CCFBE020F2
:101D9000FEF7C9FB0020FEF7C6FBF320FEF7C3FBEE
:101DA0000020FEF7C0FBE120FEF7B4FB1620FEF793
:101DB000BAFB0020FEF7B7FB1C20FEF7B4FB0020A7
:101DC000FEF7B1FB2220FEF7AEFB0020FEF7ABFBD7
:101DD0003620FEF7A8FB0020FEF7A5FB4520FEF706
:101DE000A2FB0020FEF79FFB5220FEF79CFB002089
:101DF000FEF799FB6420FEF796FB0020FEF793FBAD
:101E00007A20FEF790FB0020FEF78DFB8B20FEF77B
:101E10008AFB0020FEF787FB9920FEF784FB002059
:101E2000FEF781FBA820FEF77EFB0020FEF77BFB80
:101E3000B920FEF778FB0020FEF775FBC420FEF703
:101E400072FB0020FEF76FFBCA20FEF76CFB002040
:101E5000FEF769FBD220FEF766FB0020FEF763FB6E
:101E6000D820FEF760FB0020FEF75DFBE020FEF7C8
:101E70005AFB0020FEF757FBF320FEF754FB00202F
:101E8000FEF751FBE220FEF745FB0520FEF74BFB7A
:101E90000020FEF748FB0B20FEF745FB0020FEF775
:101EA00042FB1B20FEF73FFB0020FEF73CFB3420EB
:101EB000FEF739FB0020FEF736FB4420FEF733FB2C
:101EC0000020FEF730FB4F20FEF72DFB0020FEF731
:101ED0002AFB6120FEF727FB0020FEF724FB792078
:101EE000FEF721FB0020FEF71EFB8820FEF71BFB00
:101EF0000020FEF718FB9720FEF715FB0020FEF7E9
:101F000012FBA620FEF70FFB0020FEF70CFBB7200C
:101F1000FEF709FB0020FEF706FBC220FEF703FBDD
:101F20000020FEF700FBC720FEF7FDFA0020FEF7B9
:101F3000FAFAD120FEF7F7FA0020FEF7F4FAD620DD
:101F4000FEF7F1FA0020FEF7EEFADD20FEF7EBFADD
:101F50000020FEF7E8FAF320FEF7E5FA0020FEF78E
:101F6000E2FAE320FEF7D6FA0520FEF7DCFA0020BD
:101F7000FEF7D9FA0A20FEF7D6FA0020FEF7D3FAC8
:101F80001C20FEF7D0FA0020FEF7CDFA3320FEF732
:101F9000CAFA0020FEF7C7FA4420FEF7C4FA002070
:101FA000FEF7C1FA5020FEF7BEFA0020FEF7BBFA9A
:101FB0006220FEF7B8FA0020FEF7B5FA7820FEF7A7
:101FC000B2FA0020FEF7AFFA8820FEF7ACFA002044
:101FD000FEF7A9FA9720FEF7A6FA0020FEF7A3FA6B
:101FE000A620FEF7A0FA0020FEF79DFAB720FEF724
:101FF0009AFA0020FEF797FAC220FEF794FA002022
:10200000FEF791FAC720FEF78EFA0020FEF78BFA52
:10201000D120FEF788FA0020FEF785FAD520FEF7DA
:1020200082FA0020FEF77FFADD20FEF77CFA00201E
:10203000FEF779FAF320FEF776FA0020FEF773FA3E
:10204000E420FEF767FA0120FEF76DFA0020FEF7A4
:102050006AFA0120FEF767FA0020FEF764FA022010
:10206000FEF761FA0020FEF75EFA2A20FEF75BFA1F
:102070000020FEF758FA3C20FEF755FA0020FEF744
:1020800052FA4B20FEF74FFA0020FEF74CFA5D2083
:10209000FEF749FA0020FEF746FA7420FEF743FAED
:1020A0000020FEF740FA8420FEF73DFA0020FEF7FC
:1020B0003AFA9320FEF737FA0020FEF734FAA2200E
:1020C000FEF731FA0020FEF72EFAB320FEF72BFAC6
:1020D0000020FEF728FABE20FEF725FA0020FEF7C2
:1020E00022FAC420FEF71FFA0020FEF71CFACD20CA
:1020F000FEF719FA0020FEF716FAD320FEF713FABE
:102100000020FEF710FADD20FEF70DFA0020FEF7A2
:102110000AFAF320FEF707FA0020FEF704FAE5209A
:10212000FEF7F8F90020FEF7FEF90020FEF7FBF9B4
:102130000020FEF7F8F90020FEF7F5F90220FEF77F
:10214000F2F90020FEF7EFF92920FEF7ECF9002064
:10215000FEF7E9F93C20FEF7E6F90020FEF7E3F987
:102160004B20FEF7E0F90020FEF7DDF95D20FEF7D9
:10217000DAF90020FEF7D7F97420FEF7D4F9002031
:10218000FEF7D1F98420FEF7CEF90020FEF7CBF957
:102190009320FEF7C8F90020FEF7C5F9A220FEF74C
:1021A000C2F90020FEF7BFF9B320FEF7BCF900200A
:1021B000FEF7B9F9BE20FEF7B6F90020FEF7B3F935
:1021C000C420FEF7B0F90020FEF7ADF9CD20FEF7F0
:1021D000AAF90020FEF7A7F9D320FEF7A4F9002002
:1021E000FEF7A1F9DC20FEF79EF90020FEF79BF92F
:1021F000F320FEF798F90020FEF795F9E620FEF7A8
:1022000089F91120FEF78FF90020FEF78CF93420B0
:10221000FEF789F90020FEF786F95620FEF783F9CC
:102220000020FEF780F97620FEF77DF90020FEF70A
:102230007AF97720FEF777F90020FEF774F9662027
:10224000FEF771F90020FEF76EF98820FEF76BF9B2
:102250000020FEF768F99920FEF765F90020FEF7E7
:1022600062F9BB20FEF75FF90020FEF75CF99920C8
:10227000FEF759F90020FEF756F96620FEF753F9EC
:102280000020FEF750F95520FEF74DF90020FEF72B
:102290004AF95520FEF747F90020FEF744F945209A
:1022A000FEF741F90020FEF73EF94320FEF73BF927
:1022B0000020FEF738F94420FEF735F90020FEF73C
:1022C00032F9E720FEF726F93220FEF72CF900203C
:1022D000FEF729F95520FEF726F90020FEF723F92D
:1022E0007620FEF720F90020FEF71DF96620FEF7A4
:1022F0001AF90020FEF717F96720FEF714F90020FD
:10230000FEF711F96720FEF70EF90020FEF70BF932
:102310008720FEF708F90020FEF705F99920FEF75F
:1023200002F90020FEF7FFF8BB20FEF7FCF80020C2
:10233000FEF7F9F89920FEF7F6F80020FEF7F3F81B
:102340007720FEF7F0F80020FEF7EDF84420FEF7C6
:10235000EAF80020FEF7E7F85620FEF7E4F8002040
:10236000FEF7E1F82320FEF7DEF80020FEF7DBF8A9
:102370003320FEF7D8F80020FEF7D5F84520FEF709
:10238000D2F80020FEF7CFF8E820FEF7C3F80020CF
:10239000FEF7C9F80020FEF7C6F89920FEF7C3F84B
:1023A0000020FEF7C0F88720FEF7BDF80020FEF7FA
:1023B000BAF88820FEF7B7F80020FEF7B4F87720C7
:1023C000FEF7B1F80020FEF7AEF86620FEF7ABF896
:1023D0000020FEF7A8F88820FEF7A5F80020FEF7F9
:1023E000A2F8AA20FEF79FF80020FEF79CF8BB2079
:1023F000FEF799F80020FEF796F89920FEF793F87B
:102400000020FEF790F86620FEF78DF80020FEF71A
:102410008AF85520FEF787F80020FEF784F855204B
:10242000FEF781F80020FEF77EF84420FEF77BF8E7
:102430000020FEF778F84420FEF775F80020FEF73C
:1024400072F85520FEF76FF80020FEF76CF8E920CF
:10245000FEF760F8AA20FEF766F80020FEF763F8A2
:102460000020FEF760F80020FEF75DF80020FEF780
:1024700051F8AA20FEF757F8CF20FEF74BF80020BE
:10248000FEF751F80020FEF74EF80020FEF74BF85B
:102490000020FEF748F80020FEF745F80020FEF780
:1024A00042F80020FEF73FF80020FEF73CF800203D
:1024B000FEF739F80020FEF736F80020FEF733F873
:1024C0000020FEF730F80020FEF72DF80020FEF780
:1024D0002AF80020FEF727F80020FEF724F8002055
:1024E000FEF721F8F020FEF715F80020FEF71BF8A4
:1024F0005020FEF718F80020FEF715F80020FEF730
:1025000012F80020FEF70FF8F320FEF703F8002082
:10251000FEF709F8F920FDF7FDFF0620FEF703F8A6
:102520001020FEF700F82920FDF7FDFF0020FDF741
:10253000FAFF3A20FDF7EEFF5520FDF7F4FF1120DA
:10254000FDF7E8FF642006F08BFA2920FDF7E2FF93
:102550003520FDF7DFFF0020FDF7E5FF5120FDF7F7
:10256000D9FFFF20FDF7DFFF5320FDF7D3FF2C201D
:10257000FDF7D9FF5520FDF7CDFF8220FDF7D3FFF2
:102580002C20FDF7C7FF01F050B8FE48808845F2C7
:10259000105188427ED155214FF47040FDF7D5FF90
:1025A000AA214FF20100FDF7D0FF52214FF20200A5
:1025B000FDF7CBFF08214FF20300FDF7C6FF012115
:1025C0004FF20400FDF7C1FF0D214FF43040FDF73D
:1025D000BCFF0D214BF20100FDF7B7FF0D214BF2BF
:1025E0000200FDF7B2FF34214FF43640FDF7ADFF96
:1025F00034214BF20160FDF7A8FF34214BF2026059
:10260000FDF7A3FF0D214FF43140FDF79EFF0D2193
:102610004BF20110FDF799FF0D214BF20210FDF76F
:1026200094FF34214FF43740FDF78FFF34214BF2F4
:102630000170FDF78AFF34214BF20270FDF785FF30
:1026400000214FF43240FDF780FF00214BF20120C2
:10265000FDF77BFF00214BF20220FDF776FF2421DE
:102660004FF43840FDF771FF24214BF60100FDF7D0
:102670006CFF24214BF60200FDF767FF01214FF4A8
:102680003F40FDF762FF0F214FF43340FDF75DFF40
:102690000F2100E0FEE34BF20130FDF756FF0F2162
:1026A0004BF20230FDF751FF34214FF43940FDF772
:1026B0004CFF34214BF60110FDF747FF34214BF658
:1026C0000210FDF742FF08214FF43540FDF73DFFB2
:1026D00008214BF20150FDF738FF08214BF2025060
:1026E000FDF733FF03214FF44240FDF72EFF242175
:1026F0004FF43A40FDF729FF24214BF60120FDF766
:1027000024FF24214BF60220FDF71FFF00214FF488
:102710003C40FDF71AFF78214BF60140FDF715FF0D
:1027200000214BF60240FDF710FF00214FF43D4021
:10273000FDF70BFF78214BF60150FDF706FF002156
:102740004BF60250FDF701FF00214FF43E40FDF72C
:10275000FCFE64214BF60160FDF7F7FE00214FF40B
:102760005140FDF7F2FE33214DF20110FDF7EDFE71
:1027700000214DF20210FDF7E8FE34214DF2031066
:10278000FDF7E3FE00214DF20410FDF7DEFE3A21D5
:102790004DF20510FDF7D9FE00214DF20610FDF7B0
:1027A000D4FE4A214DF20710FDF7CFFE00214DF275
:1027B0000810FDF7CAFE5C214DF20910FDF7C5FEB9
:1027C00000214DF20A10FDF7C0FE81214DF20B10E1
:1027D000FDF7BBFE00214DF20C10FDF7B6FEA62161
:1027E0004DF20D10FDF7B1FE00214DF20E10FDF778
:1027F000ACFEE5214DF20F10FDF7A7FE01214DF2D1
:102800001010FDF7A2FE13214DF21110FDF79DFEF1
:1028100001214DF21210FDF798FE54214DF21310D4
:10282000FDF793FE01214DF21410FDF78EFE82217B
:102830004DF21510FDF789FE01214DF21610FDF73E
:1028400084FECA214DF21710FDF77FFE02214DF2E2
:102850001810FDF77AFE00214DF21910FDF775FEF4
:1028600002214DF21A10FDF770FE01214DF21B10EE
:10287000FDF76BFE02214DF21C10FDF766FE3421C0
:102880004DF21D10FDF761FE02214DF21E10FDF705
:102890005CFE67214DF21F10FDF757FE02214DF23D
:1028A0002010FDF752FE84214DF22110FDF74DFE60
:1028B00002214DF22210FDF748FEA4214DF2231013
:1028C000FDF743FE02214DF22410FDF73EFEB72135
:1028D0004DF22510FDF739FE02214DF22610FDF7CD
:1028E00034FECF214DF22710FDF72FFE02214DF2CD
:1028F0002810FDF72AFEDE214DF22910FDF725FEF6
:1029000002214DF22A10FDF720FEF2214DF22B108C
:10291000FDF71BFE02214DF22C10FDF716FEFE21E5
:102920004DF22D10FDF711FE03214DF22E10FDF793
:102930000CFE10214DF22F10FDF707FE03214DF282
:102940003010FDF702FE33214DF23110FDF7FDFD91
:1029500003214DF23210FDF7F8FD6D214DF23310D9
:10296000FDF7F3FD00214FF45240FDF7EEFD33215A
:102970004DF20120FDF7E9FD00214DF20220FDF7A7
:10298000E4FD01E01042002034214DF20320FDF768
:10299000DCFD00214DF20420FDF7D7FD3A214DF278
:1029A0000520FDF7D2FD00214DF20620FDF7CDFDFB
:1029B0004A214DF20720FDF7C8FD00214DF2082005
:1029C000FDF7C3FD5C214DF20920FDF7BEFD00219E
:1029D0004DF20A20FDF7B9FD81214DF20B20FDF7E4
:1029E000B4FD00214DF20C20FDF7AFFDA6214DF204
:1029F0000D20FDF7AAFD00214DF20E20FDF7A5FDEB
:102A0000E5214DF20F20FDF7A0FD01214DF2102030
:102A1000FDF79BFD13214DF21120FDF796FD0121DD
:102A20004DF21220FDF791FD54214DF21320FDF7D8
:102A30008CFD01214DF21420FDF787FD82214DF21E
:102A40001520FDF782FD01214DF21620FDF77DFDD9
:102A5000CA214DF21720FDF778FD02214DF2182012
:102A6000FDF773FD00214DF21920FDF76EFD0221E7
:102A70004DF21A20FDF769FD01214DF21B20FDF7F3
:102A800064FD02214DF21C20FDF75FFD34214DF263
:102A90001D20FDF75AFD02214DF21E20FDF755FDC8
:102AA00067214DF21F20FDF750FD02214DF220203D
:102AB000FDF74BFD84214DF22120FDF746FD02215B
:102AC0004DF22220FDF741FDA4214DF22320FDF718
:102AD0003CFD02214DF22420FDF737FDB7214DF2D8
:102AE0002520FDF732FD02214DF22620FDF72DFDB8
:102AF000CF214DF22720FDF728FD02214DF228209D
:102B0000FDF723FDDE214DF22920FDF71EFD0221F8
:102B10004DF22A20FDF719FDF2214DF22B20FDF791
:102B200014FD02214DF22C20FDF70FFDFE214DF288
:102B30002D20FDF70AFD03214DF22E20FDF705FDA6
:102B400010214DF22F20FDF700FD03214DF2302022
:102B5000FDF7FBFC33214DF23120FDF7F6FC03219C
:102B60004DF23220FDF7F1FC6D214DF23320FDF7DF
:102B7000ECFC00214FF45340FDF7E7FC33214DF20C
:102B80000130FDF7E2FC00214DF20230FDF7DDFCE3
:102B900034214DF20330FDF7D8FC00214DF2043012
:102BA000FDF7D3FC3A214DF20530FDF7CEFC0021B4
:102BB0004DF20630FDF7C9FC4A214DF20730FDF712
:102BC000C4FC00214DF20830FDF7BFFC5C214DF242
:102BD0000930FDF7BAFC00214DF20A30FDF7B5FCD3
:102BE00081214DF20B30FDF7B0FC00214DF20C308D
:102BF000FDF7ABFCA6214DF20D30FDF7A6FC002140
:102C00004DF20E30FDF7A1FCE5214DF20F30FDF73E
:102C10009CFC01214DF21030FDF797FC13214DF281
:102C20001130FDF792FC01214DF21230FDF78DFCC1
:102C300054214DF21330FDF788FC01214DF2143080
:102C4000FDF783FC82214DF21530FDF77EFC01215A
:102C50004DF21630FDF779FCCA214DF21730FDF721
:102C600074FC02214DF21830FDF76FFC00214DF28B
:102C70001930FDF76AFC02214DF21A30FDF765FCB0
:102C800001214DF21B30FDF760FC02214DF21C309A
:102C9000FDF75BFC34214DF21D30FDF756FC02219F
:102CA0004DF21E30FDF751FC67214DF21F30FDF74C
:102CB0004CFC02214DF22030FDF747FC84214DF2FF
:102CC0002130FDF742FC02214DF22230FDF73DFCA0
:102CD000A4214DF22330FDF738FC02214DF22430BF
:102CE000FDF733FCB7214DF22530FDF72EFC022114
:102CF0004DF22630FDF729FCCF214DF22730FDF7AC
:102D000024FC02214DF22830FDF71FFCDE214DF29C
:102D10002930FDF71AFC02214DF22A30FDF715FC8F
:102D2000F2214DF22B30FDF710FC02214DF22C3038
:102D3000FDF70BFCFE214DF22D30FDF706FC0321C3
:102D40004DF22E30FDF701FC10214DF22F30FDF732
:102D5000FCFB03214DF23030FDF7F7FB33214DF240
:102D60003130FDF7F2FB03214DF23230FDF7EDFB80
:102D70006D214DF23330FDF7E8FB00214FF4544054
:102D8000FDF7E3FB33214DF20140FDF7DEFB0021AF
:102D90004DF20240FDF7D9FB34214DF20340FDF71F
:102DA000D4FB00214DF20440FDF7CFFB3A214DF258
:102DB0000540FDF7CAFB00214DF20640FDF7C5FBBB
:102DC0004A214DF20740FDF7C0FB00214DF20840BB
:102DD000FDF7BBFB5C214DF20940FDF7B6FB00217E
:102DE0004DF20A40FDF7B1FB81214DF20B40FDF79A
:102DF000ACFB00214DF20C40FDF7A7FBA6214DF2E4
:102E00000D40FDF7A2FB00214DF20E40FDF79DFBAA
:102E1000E5214DF20F40FDF798FB01214DF21040E6
:102E2000FDF793FB13214DF21140FDF78EFB0121BD
:102E30004DF21240FDF789FB54214DF21340FDF78E
:102E400084FB01214DF21440FDF77FFB82214DF2FE
:102E50001540FDF77AFB01214DF21640FDF775FB99
:102E6000CA214DF21740FDF770FB02214DF21840C8
:102E7000FDF76BFB00214DF21940FDF766FB0221C7
:102E80004DF21A40FDF761FB01214DF21B40FDF7A9
:102E90005CFB00E007E302214DF21C40FDF755FB0F
:102EA00034214DF21D40FDF750FB02214DF21E4032
:102EB000FDF74BFB67214DF21F40FDF746FB02215A
:102EC0004DF22040FDF741FB84214DF22140FDF7FA
:102ED0003CFB02214DF22240FDF737FBA4214DF2CD
:102EE0002340FDF732FB02214DF22440FDF72DFB7C
:102EF000B7214DF22540FDF728FB02214DF2264077
:102F0000FDF723FBCF214DF22740FDF71EFB0221E9
:102F10004DF22840FDF719FBDE214DF22940FDF767
:102F200014FB02214DF22A40FDF70FFBF2214DF276
:102F30002B40FDF70AFB02214DF22C40FDF705FB6B
:102F4000FE214DF22D40FDF700FB03214DF22E40F6
:102F5000FDF7FBFA10214DF22F40FDF7F6FA0321A1
:102F60004DF23040FDF7F1FA33214DF23140FDF7DB
:102F7000ECFA03214DF23240FDF7E7FA6D214DF2F4
:102F80003340FDF7E2FA00214FF45540FDF7DDFA3A
:102F900033214DF20150FDF7D8FA00214DF20250D5
:102FA000FDF7D3FA34214DF20350FDF7CEFA00219C
:102FB0004DF20450FDF7C9FA3A214DF20550FDF7E4
:102FC000C4FA00214DF20650FDF7BFFA4A214DF236
:102FD0000750FDF7BAFA00214DF20850FDF7B5FA97
:102FE0005C214DF20950FDF7B0FA00214DF20A5074
:102FF000FDF7ABFA81214DF20B50FDF7A6FA002147
:103000004DF20C50FDF7A1FAA6214DF20D50FDF73F
:103010009CFA00214DF20E50FDF797FAE5214DF292
:103020000F50FDF792FA01214DF21050FDF78DFA85
:1030300013214DF21150FDF788FA01214DF2125083
:10304000FDF783FA54214DF21350FDF77EFA01216A
:103050004DF21450FDF779FA82214DF21550FDF72B
:1030600074FA01214DF21650FDF76FFACA214DF2A4
:103070001750FDF76AFA02214DF21850FDF765FA74
:1030800000214DF21950FDF760FA02214DF21A505D
:10309000FDF75BFA01214DF21B50FDF756FA0221B4
:1030A0004DF21C50FDF751FA34214DF21D50FDF741
:1030B0004CFA02214DF21E50FDF747FA67214DF2FE
:1030C0001F50FDF742FA02214DF22050FDF73DFA64
:1030D00084214DF22150FDF738FA02214DF22250A1
:1030E000FDF733FAA4214DF22350FDF72EFA022109
:1030F0004DF22450FDF729FAB7214DF22550FDF786
:1031000024FA02214DF22650FDF71FFACF214DF28D
:103110002750FDF71AFA02214DF22850FDF715FA53
:10312000DE214DF22950FDF710FA02214DF22A500E
:10313000FDF70BFAF2214DF22B50FDF706FA0221B2
:103140004DF22C50FDF701FAFE214DF22D50FDF706
:10315000FCF903214DF22E50FDF7F7F910214DF245
:103160002F50FDF7F2F903214DF23050FDF7EDF944
:1031700033214DF23150FDF7E8F903214DF2325081
:10318000FDF7E3F96D214DF23350FDF7DEF9002133
:103190004FF45640FDF7D9F933214DF20160FDF7A8
:1031A000D4F900214DF20260FDF7CFF934214DF240
:1031B0000360FDF7CAF900214DF20460FDF7C5F97F
:1031C0003A214DF20560FDF7C0F900214DF206608D
:1031D000FDF7BBF94A214DF20760FDF7B6F9002172
:1031E0004DF20860FDF7B1F95C214DF20960FDF781
:1031F000ACF900214DF20A60FDF7A7F981214DF2EB
:103200000B60FDF7A2F900214DF20C60FDF79DF96E
:10321000A6214DF20D60FDF798F900214DF20E60E8
:10322000FDF793F9E5214DF20F60FDF78EF90121CD
:103230004DF21060FDF789F913214DF21160FDF791
:1032400084F901214DF21260FDF77FF954214DF20E
:103250001360FDF77AF901214DF21460FDF775F95D
:1032600082214DF21560FDF770F901214DF21660D3
:10327000FDF76BF9CA214DF21760FDF766F90221DF
:103280004DF21860FDF761F900214DF21960FDF76C
:103290005CF902214DF21A60FDF757F901214DF258
:1032A0001B60FDF752F902214DF21C60FDF74DF94C
:1032B00034214DF21D60FDF748F902214DF21E60E8
:1032C000FDF743F967214DF21F60FDF73EF902213A
:1032D0004DF22060FDF739F984214DF22160FDF7B0
:1032E00034F902214DF22260FDF72FF9A4214DF2AD
:1032F0002360FDF72AF902214DF22460FDF725F93C
:10330000B7214DF22560FDF720F902214DF226602C
:10331000FDF71BF9CF214DF22760FDF716F90221C9
:103320004DF22860FDF711F9DE214DF22960FDF71D
:103330000CF902214DF22A60FDF707F9F2214DF256
:103340002B60FDF702F902214DF22C60FDF7FDF82C
:10335000FE214DF22D60FDF7F8F803214DF22E60AD
:10336000FDF7F3F810214DF22F60FDF7EEF8032181
:103370004DF23060FDF7E9F833214DF23160FDF791
:10338000E4F803214DF23260FDF7DFF86D214DF2D4
:103390003360FDF7DAF855214FF47040FDF7D5F8AA
:1033A000AA214FF20100FDF7D0F852214FF202009E
:1033B000FDF7CBF808214FF20300FDF7C6F8002116
:1033C0004FF20400FDF7C1F8CC214FF43140FDF776
:1033D000BCF800214BF20110FDF7B7F805214FF4BE
:1033E0003640FDF7B2F870214FF43740FDF7ADF8E5
:1033F00070214BF20170FDF7A8F801214FF438401D
:10340000FDF7A3F803214BF60100FDF79EF8032119
:103410004BF60200FDF799F803214BF60300FDF788
:1034200094F802214FF43C40FDF78FF800214BF651
:103430000140FDF78AF800214BF60240FDF785F8C0
:10344000D0214FF44940FDF780F802214CF60110DD
:10345000FDF77BF850214CF60210FDF776F850216D
:103460004CF60310FDF771F850214CF60410FDF7EF
:103470006CF800214FF45450FDF767F855214FF4D4
:103480006850FDF762F84FF48850FDF743F80020CC
:1034900000E0401C42F210718842FADB4FF42450E5
:1034A000FDF738F8C1E0FE48808841F66311884294
:1034B000F8D1E220FDF72EF81D20FDF734F80220A8
:1034C000FDF731F80420FDF72EF8002000E0401C45
:1034D00042F210718842FADBE020FDF71BF8012070
:1034E000FDF721F80A2005F0BBFAE020FDF712F8FD
:1034F0000320FDF718F8142005F0B2FA0120FDF7BB
:1035000009F80A2005F0ACFAE620FDF703F82F20B1
:10351000FDF709F8FF20FDF706F8FF20FDF703F897
:10352000B020FCF7F7FF2020FCF7FDFF0020FCF7A0
:10353000FAFF0320FCF7F7FF40F21F30FCF7F3FF20
:103540000120FCF7F0FF40F2DF10FCF7ECFF002059
:10355000FCF7E9FFB420FCF7DDFF0420FCF7E3FFF4
:1035600040F21F40FCF7DFFF0020FCF7DCFF2E20BD
:10357000FCF7D9FF0020FCF7D6FF0020FCF7D3FFB3
:103580000020FCF7D0FF0020FCF7CDFFB620FCF7B1
:10359000C1FF0220FCF7C7FF4FF40370FCF7C3FF25
:1035A0000020FCF7C0FF1720FCF7BDFF1520FCF73B
:1035B000BAFF0020FCF7B7FF0020FCF7B4FFF020B3
:1035C000FCF7A8FF0320FCF7AEFF2920FCF7A2FFC1
:1035D000D020FCF79FFF0020FCF7A5FFBE20FCF7E2
:1035E00099FF0520FCF79FFFFE20FCF79CFF0120C0
:1035F000FCF799FF0020FCF796FF0020FCF793FFF3
:103600000020FCF790FFB820FCF784FF0320FCF7B4
:103610008AFF0120FCF787FFBA20FCF77BFF01201F
:10362000FCF781FF6420FDF754FA0020FDF77DFAD6
:1036300001209C4908604FF6FF70FDF7CBFB21B0DD
:1036400000BD2DE9F04F05460E4617469846DDF8B9
:1036500024A04FF0000B781B401C1FFA80FB34465F
:1036600014E021462846FCF7A3FFFCF784FF4FF047
:10367000000907E04FF0D840A0F880A009F1010050
:103680001FFA80F9D945F5DB601C84B24445E8DDBA
:10369000BDE8F08F2DE9F84F07460D469046994654
:1036A000DDF828B0A8EB0700401C1FFA80FAA9EB50
:1036B0000500401C80B20090002414E0281981B25B
:1036C0003846FCF775FFFCF756FF002607E004FBC1
:1036D0000A603BF8100074490880701C86B2564599
:1036E000F5DB601C84B200988442E7DBBDE8F88F0C
:1036F0002DE9FF4F84B081468A4600200390029056
:103700000698A0EB09050798A0EB0A06CDF80490EF
:10371000CDF800A0002D01DD012705E00DB900273F
:1037200002E04FF0FF376D42002E02DD4FF001083E
:1037300006E016B94FF0000802E04FF0FF3876427D
:10374000B54201DD2C4600E034464FF0000B21E08D
:10375000009A91B2019A90B2FDF736F90398284485
:1037600003900298304402900398A04205DD03982C
:10377000001B03900198384401900298A04205DD97
:103780000298001B02900098404400900BF1010049
:103790001FFA80FB601C8345DADD08B0BDE8F08FBE
:1037A000F0B504460D4616461F462B4632462946BE
:1037B0002046FFF79DFF3B46224629462046FFF75D
:1037C00097FF3B46324639462046FFF791FF3B467E
:1037D000324629463046FFF78BFFF0BD2DE9F04316
:1037E00006460F469046002445460320A0EB4809B4
:1037F0003CE07A1B91B2321990B2FDF7E5F83A1B22
:1038000091B2721990B2FDF7DFF83A1991B27219BC
:1038100090B2FDF7D9F87A1991B2321990B2FDF74A
:10382000D3F87A1991B2321B90B2FDF7CDF83A195C
:1038300091B2721B90B2FDF7C7F87A1B91B2321B9E
:1038400090B2FDF7C1F83A1B91B2721B90B2FDF72E
:10385000BBF8641CB9F1000F03DAA000801D81449D
:1038600004E0601B80000A3081446D1EAC42C0DD64
:10387000BDE8F0832DE9F84F80460E4617461C46FA
:10388000B3462046E31704EB5373DB1021464FEA9F
:10389000E47C04EB5C7C4FEAEC0CA4EBCC0C05E084
:1038A00010420020BC8240428000006CBCF1000F3E
:1038B00002D04FF0010C01E04FF0000C63442246AF
:1038C00004EBD27C4FEA6C0C03FB0CF3DBB20093ED
:1038D000A7F12000C7B2002556E00C2C07D107EB5A
:1038E00047009F4901EB800010F8059013E0102C71
:1038F00005D19C4800EB071010F805900BE0182C40
:1039000007D107EBC700984901EB800010F805903C
:1039100001E0BDE8F88F4FF0000A2FE009F08000C9
:1039200030B19248028831464046FDF75BF807E027
:103930000A9828B98E48028831464046FDF752F869
:103940004FEA49604FEA1069701C86B28948408886
:10395000B04200DCDDE7A6EB0B00A0420AD15E46D8
:1039600008F101001FFA80F882480088404500DC19
:10397000CFE706E00AF1010000F0FF0ABAF1080FF4
:10398000CCDB00BF681CC5B200988542A5DB00BF38
:10399000BFE710B50246012000E050430B1EA1F125
:1039A0000104E1B2F9D110BD2DE9FF4F81B0074606
:1039B00091461E460E9D4FF0000A002439E0301B50
:1039C000401EC1B20A20FFF7E4FFB9FBF0F00A2164
:1039D000B0FBF1F201FB1208BAF1000F16D1701E14
:1039E000A04213DDB8F1000F0ED10020AB4605EB6D
:1039F000DB71491001FB0471009088B22B46202234
:103A00000299FFF737FF12E04FF0010A0020AB46A2
:103A100005EBDB71491001FB0471009088B208F1DD
:103A20003001CAB22B460299FFF724FF00BF601C89
:103A3000C4B2B442C3DB05B0BDE8F08F2DE9FF4F3F
:103A400082B0064692461F46DDE90F4800200190ED
:103A500000254DE0781B401EC1B20A20FFF799FFF8
:103A6000BAFBF0F00A21B0FBF1F201FB1209019858
:103A700050BB781EA84227DDB9F1000F22D108F013
:103A8000800078B108F00100A34604EBDB71491017
:103A900001FB0561009088B2234630220399FFF7AD
:103AA000E9FE0EE008F00100A34604EBDB714910CB
:103AB00001FB0561009088B2234620220399FFF79D
:103AC000D9FE13E00120019008F00100A34604EBA9
:103AD000DB71491001FB0561009088B209F13001EA
:103AE000CAB223460399FFF7C5FE00BF681CC5B2E2
:103AF000BD42AFDB06B0BDE8F08F2DE9F8470446C4
:103B00000D4690469946DDE9096704F0FF0A08EB87
:103B100004001FFA80F809EB05001FFA80F916E08F
:103B2000444502DB5446A81985B24D4500DB14E03C
:103B3000002000903A78334629462046FFF79AFE47
:103B4000304606EBD07104EB61018CB27F1C3878F3
:103B50007E2802DC38782028E2DA00BFBDE8F8874A
:103B6000EAA200085EA700084EAD00081000002081
:103B7000120000201042002070B504461021404879
:103B800002F0D8FD08B9012500E0002508213C48D5
:103B900002F0D0FD08B9012000E0002045EA400510
:103BA0000421374802F0C6FD08B9012000E00020DA
:103BB00045EA80050121334802F0BCFD45EAC0001A
:103BC000314908603148007810B1012820D106E061
:103BD0002D48006810B101202C49087019E02A48CE
:103BE000006818B900202949087010E026480068CC
:103BF00027490968084000B90BE023480068244AB7
:103C0000126800EA02010122224804F042FA00E0B0
:103C100000BF00BF1C4800681D49086070BD1FB58B
:103C200000211C4804F09EF9012000211A4B0D22AE
:103C3000CDE900101748143004F0EBFF01211120EA
:103C400003F098FA1C20029000208DF80C0003204D
:103C50008DF80D0001208DF80F0002A9084802F030
:103C600007FD0120029002208DF80F0002A90548EF
:103C700002F0FEFC0748143004F0E7FF1FBD00000F
:103C80000010024000000240180000201C0000202C
:103C90001400002024420020793B000810B5FD48A4
:103CA00005F088F9FC4805F085F9FC4805F082F933
:103CB000FB4805F07FF9FB4805F07CF9FA4805F070
:103CC00079F910BDF0B5F0EE400A0D46BDEEE01AF0
:103CD00011EE101A01EE101AB8EEC11A30EEC11A28
:103CE000B0EE410A002231B94FF0300C1646521C9A
:103CF00000F806C011E00EE00A2691FBF6F706FB7D
:103D00001716303606F0FF0C1646521C00F806C097
:103D10000A2691FBF6F10029EEDC002686540023EA
:103D2000541E06E0C65C075DC75406555B1C641E46
:103D300000BFA342F6DB4FF02E0C1646521C00F8D3
:103D400006C0BDEEC01A11EE101AB5EEC00AF1EEB3
:103D500010FA04D10027561E32468755F0BD19E0EF
:103D6000B2EE041A20EE011AB0EE410ABDEEC01AFE
:103D700011EE101A01F1300606F0FF0C1646521C27
:103D800000F806C001EE101AB8EEC11A30EE411A62
:103D9000B0EE410A561EAE4204DAB5EEC00AF1EEAC
:103DA00010FADDDC0026865400BFD7E710B50446C4
:103DB000BE49002005F040FA28B12146BCA005F01C
:103DC000F9F8012010BD0020FCE701B5012168468B
:103DD00002F082F908BD10B504462146BDA005F0E9
:103DE000E9F810BD2DE9F0472DED028B0646AF49ED
:103DF000002005F021FA07463FB93146BBA005F087
:103E0000D9F8BDEC028BBDE8F087A849002005F089
:103E100013FA054625B13146A5A005F0CBF8F0E729
:103E2000BCA1384605F0BCFA002822D1BBA005F0A1
:103E3000C1F8BBA005F0BEF8C1A005F0BBF8CAA050
:103E400005F0B8F8CF48007818B1CFA005F0B2F867
:103E500002E0D5A005F0AEF8DCA005F0ABF8E4A0D8
:103E600005F0A8F8EDA005F0A5F8ACA005F0A2F8C3
:103E7000C7E7FAA1384605F093FA00282FD1C148C8
:103E8000007820B13146F74805F094F8B9E7F6A07C
:103E900005F090F804F0E6FADFEDF60A20EE200ACD
:103EA000BDEEC00A10EE104A41F65830844203DDE0
:103EB000F1A005F07FF802E0F1A005F07BF86420A6
:103EC00094FBF0F100FB114894FBF0F9424649469F
:103ED000EDA005F06FF8EEA005F06CF891E7EEA10B
:103EE000384605F05DFA60BB01F05CFAB0EE408A3E
:103EF000F0EE608A51EC180B05F0A6FE044641F284
:103F0000883084420CDA642094FBF0F100FB114805
:103F100094FBF0F942464946E1A005F04BF80FE06A
:103F200041F2883084420BDD642094FBF0F100FB09
:103F3000114894FBF0F942464946E1A005F03AF8F1
:103F40005FE73146E6A005F035F800BF59E7F8B560
:103F500006465649002005F06FF9054625B9314659
:103F600062A005F027F8F8BD6AA1284605F018FA06
:103F700038B93046FFF71AFF00B1F4E701F0EDFB66
:103F8000F1E7E0A1284605F00BFA00287ED1474969
:103F900005F052F9054625B9314654A005F00AF856
:103FA000E1E73046FFF702FF00B1DCE7D7A1284682
:103FB00005F0F6F930B9D74804F0FCFFD64804F014
:103FC000F9FFD0E7D5A1284605F0EAF918B9D64897
:103FD00004F0F0FFC7E7D5A1284605F0E1F9002875
:103FE0001AD1D34804F0E6FFD2A004F0E3FF012188
:103FF000684602F04DF89DF80000792808D09DF839
:104000000000592804D03146D8A004F0D3FFAAE715
:10401000E2A004F0CFFF00BF0024FBE1E74850F826
:104020002400002834D0E54850F8240000F10C01A9
:10403000284605F0B5F900282BD1E04850F82400B7
:1040400090F8340000F0020068B9DC4850F8240011
:1040500090F8340000F0010028B92A463146D848CB
:1040600004F0A8FF7FE70027D44850F8240090F818
:10407000340000F0020050B1D24804F09BFF01214F
:10408000684602F005F89DF800009DE1CCE1B1E141
:10409000BFE1BDE1E0BB0008D4BF00083CBF0008A1
:1040A000D4C200080CBE0008A4BE0008AABA0008CA
:1040B0001B5B313B33316D25733A20546F6F206D9C
:1040C000616E7920617267756D656E74730D0A1B80
:1040D0005B306D0025733A20636F6D6D616E6420F7
:1040E0006E6F7420666F756E640D0A001B5B313B4A
:1040F00033316D25733A204E6F20656E6F7567689A
:1041000020706172616D657465720D0A1B5B306DA4
:1041100000000000696E666F000000000D0A0000DC
:10412000536F433A201B5B313B33356D53544D3352
:1041300032463430375A4754360D0A1B5B306D0017
:1041400043505520436F72653A201B5B313B33353A
:104150006D41524D20436F727465782D4D3420208F
:104160001B5B306D000000004650553A201B5B3051
:104170003B33316D454E41424C45440D0A1B5B308B
:104180006D000000610000204C6F772D706F776527
:1041900072206D6F64653A201B5B313B33346D4F89
:1041A0004E0D0A1B5B306D004C6F772D706F77657D
:1041B00072206D6F64653A201B5B303B33316D4F6D
:1041C00046460D0A1B5B306D00000000466C6173B3
:1041D000682063617061636974793A201B5B313BCD
:1041E00033356D313032344B420D0A1B5B306D007C
:1041F000496E7465726E616C205352414D2063614B
:104200007061636974793A201B5B313B33356D31E2
:1042100039324B420D0A1B5B306D000045787465E6
:104220006E64205352414D3A201B5B313B33356D58
:10423000584D384135313231361B5B306D202043CB
:10424000617061636974793A201B5B313B33356D72
:10425000314D420D0A1B5B306D00000075736167C4
:104260006500000030C20008435055C0FBD3C3C2F4
:10427000CA3A20000000C8421B5B313B33316D005D
:104280001B5B313B33326D0025642E2564252500F0
:104290001B5B306D0D0A000074656D70000000003E
:1042A000435055CEC2B6C83A201B5B303B33326D0B
:1042B00025642E2564A1E3430D0A1B5B306D0000CD
:1042C000435055CEC2B6C83A201B5B303B33316DEC
:1042D00025642E2564A1E3430D0A1B5B306D0000AD
:1042E0001B5B313B33316D25733A20506172616D38
:1042F00065746572206572726F720D0A1B5B306D9A
:104300000000000073757370656E64004D4F4E4978
:10431000544F520008BD000874C1000849444C4580
:104320005441534B00000000C8C00008434D4400F6
:104330006CC000081B5B313B33316D4172652079E5
:104340006F75207375726520796F752077616E7453
:1043500020746F20646F20746861743F2028592F87
:104360004E290D0A1B5B306D000000001B5B313BCA
:1043700033346D25733A205461736B2027434D44C9
:1043800027206973206E6F742073757370656E6477
:1043900065640D0A1B5B306D0000000027434D442F
:1043A000272069732073757370656E6465642C20B3
:1043B000676F6F64627964210D0A0000086B00204A
:1043C00078BC0008B8BD0008792803D09DF800002B
:1043D000592808D1012703F024FDEC4951F82400A5
:1043E00004F053FA05E02A463146E9A004F0E2FD64
:1043F000B9E500BFE54951F8240004F05CFA0FB1BB
:1044000003F020FD2A463146ECA004F0D3FDAAE5D6
:1044100000BF641CF54800688442FFF4FFAD3146DC
:10442000F3A004F0C7FD9EE5FBA1284604F0B8FF09
:1044300000284DD1FA4904F0FFFE05462DB931465A
:10444000AFF2583004F0B6FD8DE53046FFF7AEFC14
:1044500000B188E5AFF24C11284604F0A1FF30B955
:10446000F04804F0A7FDF04804F0A4FD7BE500242B
:1044700025E0C64850F8240000B3C44850F8240092
:1044800000F10C01284604F08BFFB8B9BF4850F882
:10449000240090F8340000F0040020B93146E348CD
:1044A00004F088FD5FE5B94951F8240004F027FACB
:1044B0002A463146DEA004F07DFD54E5641CCB485D
:1044C00000688442D5D33146C9A004F073FD4AE5A3
:1044D000E3A1284604F064FF70B1E3A1284604F08C
:1044E0005FFF48B1E2A1284604F05AFF20B1E2A1E3
:1044F000284604F055FF18B9CA4804F05BFD32E5C0
:104500003146AFF2242004F055FD00BF2BE570B515
:104510000446C349002004F08FFE05462DB921460C
:10452000AFF2384004F046FD70BD2046FFF73EFC78
:1045300000B1F9E7D2A1284604F032FF10B901F02A
:1045400029FCF1E72146AFF2682004F033FD00BFFB
:10455000EAE738B50446B249002004F06DFE05468E
:104560002DB92146AFF27C4004F024FD38BD204631
:10457000FFF71CFC00B1F9E7C1A1284604F010FFC9
:10458000002823D1BF4804F015FD0121684601F041
:104590007FFD9DF80000592803D09DF80000792880
:1045A0000FD10120B8490870B8A004F003FDC0A0E5
:1045B00004F000FDCD4804F0FDFCCD4804F0FAFC09
:1045C00003E02146CBA004F0F5FCCFE7D6A12846B6
:1045D00004F0E6FE30B90020AB490870D3A004F027
:1045E000E9FCC3E7DAA1284604F0DAFE60B9A64880
:1045F000007820B12146D8A004F0DCFC03E021467D
:10460000DFA004F0D7FCB1E72146AFF22C3004F074
:10461000D1FC00BFAAE72DE9F04106468049002001
:1046200004F00AFE044634B93146AFF2405004F0BB
:10463000C1FCBDE8F081DCA1204604F0B1FE0028F9
:104640003AD1774904F0F8FD04463046FFF7AEFB57
:1046500000B1EEE72CB93146AFF2705004F0AAFC7D
:104660002FE2D2A1204604F0EDFD00281FD0A01CAF
:1046700004F0D4FD0546082D03D0092D01D00A2DE4
:1046800010D1E8B200F000FE07462FB12A463146AD
:10469000C7A004F08FFC04E02A463146CDA004F008
:1046A00089FC03E03146D4A004F084FC09E23146E1
:1046B000D1A004F07FFC04E2DDA1204604F070FEEE
:1046C000002856D1564904F0B7FD04462CB93146AE
:1046D000AFF2E85004F06EFCF3E1B4A1204604F020
:1046E000B1FD002840D0A01C04F098FD0546082D1F
:1046F00003D0092D01D00A2D31D14949002004F001
:104700009BFD04463046FFF751FB00B191E7C9A17C
:10471000204604F045FE58B90120C84A02EB850145
:10472000C1F880022A463146C5A004F043FC1AE0D5
:10473000D0A1204604F034FE58B90020BF4A02EB55
:104740008501C1F880022A463146CBA004F032FC34
:1047500009E03146AFF2784004F02CFC03E031462A
:10476000A5A004F027FCACE13146A3A004F022FC94
:10477000A7E1CDA1204604F013FE20B93046FFF793
:1047800015FB08B155E797E190E10000086B0020A8
:104790001B5B313B33346D25733A205461736B20BE
:1047A00027257327206973206E6F742073757370CB
:1047B000656E6465640D0A1B5B306D001B5B313BED
:1047C00033346D25733A205461736B20272573278A
:1047D00020686173206265656E2073757370656E05
:1047E0006465640D0A1B5B306D0000007C000020D6
:1047F0001B5B313B33316D25733A2054686572651C
:10480000206973206E6F2073756368207461736B09
:10481000200D0A1B5B306D0077616B6575700000C1
:10482000AABA000808BD000820C10008C4BC0008DE
:104830001B5B313B33346D25733A205461736B201D
:104840002725732720686173206265656E20776F66
:104850006B656E2075700D0A1B5B306D00000000EB
:1048600064656C6179000000626C6F636B0000002E
:1048700064656C6574650000646573746F727900BB
:104880006F6E000054BD0008610000201B5B313BCF
:1048900033346D4C6F7720706F776572206D6F6465
:1048A00065206973206F6E0D0A1B5B306D00000080
:1048B0001B5B303B33336D415454454E54494F4E8E
:1048C0003A20536F6D6520756E666F72657365650E
:1048D0006E206D697374616B6573206D61792068FA
:1048E000617070656E0D0A1B5B306D0074C200084C
:1048F000E4C100081B5B313B33346D25733A206CF7
:104900006F772D706F776572206D6F6465206973A6
:10491000206E6F74207475726E6564206F6E200D4A
:104920000A1B5B306D0000006F6666001B5B313B4D
:1049300033346D4C6F7720706F776572206D6F64C4
:1049400065206973206F66660D0A1B5B306D000081
:1049500073746174650000001B5B313B33346D255B
:10496000733A204C6F7720706F776572206D6F649B
:1049700065206973206F6E0D0A1B5B306D000000AF
:104980001B5B313B33346D25733A204C6F772070BD
:104990006F776572206D6F6465206973206F66663E
:1049A0000D0A1B5B306D0000676574005046000007
:1049B0001B5B313B33346D25733A20504625643AF6
:1049C0002048696768206C6576656C0D0A1B5B3052
:1049D0006D0000001B5B313B33346D25733A205072
:1049E0004625643A204C6F77206C6576656C0D0A1D
:1049F0001B5B306D000000001B5B313B33316D25CC
:104A0000733A20506172616D6574657273207468C9
:104A1000617420617265206E6F74207965742073F3
:104A20007570706F727465640D0A1B5B306D0000E9
:104A30007365740068696768000000000080424286
:104A40001B5B313B33346D25733A2050462564207F
:104A5000686173206265656E2073657420746F20D1
:104A600068696768206C6576656C0D0A1B5B306D44
:104A7000000000006C6F77001B5B313B33346D2509
:104A8000733A205046256420686173206265656E24
:104A90002073657420746F206C6F77206C65766569
:104AA0006C0D0A1B5B306D00646972003146AFF219
:104AB000B80004F07FFA04E03146AFF2DC7004F095
:104AC00079FA00BFB5E5F749096881F00101F64AB6
:104AD000C2F8A01270477CB50646F449002004F0E5
:104AE000ABFB05462DB93146AFF6002004F062FA63
:104AF0007CBDAFF27421284604F052FC60B9304608
:104B0000FFF754F900B1F3E70120E64908603146A8
:104B1000E7A004F04FFAEBE7AFF2F411284604F0F7
:104B20003FFC60B93046FFF741F900B1E0E70020F3
:104B3000DC4908603146E9A004F03CFAD8E7AFF25E
:104B4000F011284604F02CFC88B93046FFF72EF906
:104B500000B1CDE7D348046824B13146EAA004F09F
:104B600029FA03E03146EFA004F024FAC0E7F5A1EA
:104B7000284604F015FC00283AD1CC4904F05CFB2F
:104B800005462DB93146AFF69C2004F013FAAFE785
:104B90003046FFF70BF900B1AAE7284604F03EFBC8
:104BA0000446B4F5FA7F12DA002C10DD0120002152
:104BB000E74B2246CDE90010E64804F02AF8E54824
:104BC00004F043F83146E4A004F0F4F990E7E7A1DB
:104BD000284604F0E5FB50B9DE4804F06CF80020EC
:104BE000B04908603146DCA004F0E4F980E700BF7A
:104BF0003146AFF6141004F0DDF900BF78E72DE977
:104C0000F0410546E81C04F009FB0446012C06D0DF
:104C1000022C04D02846FFF7DEF8BDE8F081A34956
:104C2000002004F009FB06462EB92946AFF64430B1
:104C300004F0C0F9F1E72846FFF7B8F800B1ECE757
:104C4000AFF2C431304604F0ABFB78B9012C04D18B
:104C500000209449091D086003E0002091490831B3
:104C600008602146C3A004F0A5F932E0AFF2483154
:104C7000304604F095FB78B9012C04D10120894914
:104C8000091D086003E001208649083108602146BB
:104C9000C3A004F08FF91CE0AFF24C31304604F0B1
:104CA0007FFB88B904F108007F4901EB8000D0F850
:104CB000807227B12146C5A004F07CF903E02146AB
:104CC000CAA004F077F904E02946AFF6EC1004F02E
:104CD00071F900BFA1E770B5054600F009FC044674
:104CE0002146CAA004F066F970BD10B5CB49CCA02E
:104CF00004F060F910BDF8B505460E460024002703
:104D000062E00121684601F0C3F900BF9DF8000090
:104D10000D283BD004DC082828D009283AD123E00C
:104D20001B2802D07F2835D11FE00121684601F001
:104D3000AFF99DF800005B2814D10121684601F00D
:104D4000A7F99DF80000412807D0422804D0432845
:104D500005D0442804D101E000BF00BF00BF00E03F
:104D6000D4E700E0D2E72DE02CE000BF6CB10021D9
:104D7000601E044629540820FFF727F82020FFF77B
:104D800024F80820FFF721F87F1E1BE00A20FFF718
:104D90001CF800BF9DF80000FFF717F89DF8000011
:104DA0000A2805D09DF800000D2801D0B44202D396
:104DB00000202855F8BD9DF800202046641C2A5488
:104DC0007F1C00BF00BF00BFB4429AD300BFF1E711
:104DD00070B505463549284604F02EFA044604B954
:104DE00070BD90A1204604F0DBFA18B92046FFF709
:104DF00012FCF5E78DA1204604F0D2FA18B920463E
:104E0000FFF769FEECE78BA1204604F01BFA18B10E
:104E10002046FFF7F4FEE3E787A1204604F0C0FA3E
:104E200018B92046FEF7DEFFDAE784A1204604F039
:104E3000B7FA30B982A004F0BDF883A004F0BAF844
:104E4000CEE782A1204604F0ABFA28B981A004F095
:104E5000B1F8FEF723FFC3E77FA1204604F0A0FAD4
:104E600018B92046FFF773F8BAE77DA1204604F091
:104E700097FA18B92046FFF72EFFB1E77AA120462E
:104E800004F08EFA18B92046FFF741FBA8E778A195
:104E9000204604F085FA18B92046FFF75AFB9FE731
:104EA000ECE00000A082424200804242AABA000820
:104EB0001B5B313B33346D25733A2042454550200E
:104EC000686173206265656E207475726E6564201A
:104ED0006F6E0D0A1B5B306D000000001B5B313BE9
:104EE00033346D25733A2042454550206861732064
:104EF0006265656E207475726E6564206F66660DFE
:104F00000A1B5B306D0000001B5B313B33346D25A9
:104F1000733A2042454550206973206F6E0D0A1B7D
:104F20005B306D001B5B313B33346D25733A20429F
:104F3000454550206973206F66660D0A1B5B306D16
:104F40000000000073717561726577617265000021
:104F5000C74A0008DC4A00201B5B313B33346D2517
:104F6000733A204F4B0D0A1B5B306D00636C6F73FF
:104F7000650000001B5B313B33346D6C65643A2087
:104F80004C4544256420686173206265656E207419
:104F900075726E6564206F6E0D0A1B5B306D0000CC
:104FA0001B5B313B33346D6C65643A204C454425C2
:104FB0006420686173206265656E207475726E6529
:104FC00064206F66660D0A1B5B306D001B5B313B16
:104FD00033346D6C65643A204C4544256420697314
:104FE000206F66660D0A1B5B306D00001B5B313B5A
:104FF00033346D6C65643A204C45442564206973F4
:10500000206F6E0D0A1B5B306D000000B9E2C7BF58
:10501000B6C83A2025640D0A00000000BC4A0020F2
:10502000257320006578696F000000006265657077
:10503000000000006C65640063707500636C7300B1
:105040001B5B324A000000001B5B4800636C65611B
:10505000720000001B6300007461736B00000000AD
:105060006C696768740000006D6F6E69746F720020
:105070006C6F772D706F7765720000001FA120465E
:1050800004F08EF918B9012001F0CFF8A8E61EA1AE
:10509000204604F085F918B9002001F0C6F89FE613
:1050A0002046FEF798FE00BF9AE641F2883003F0F2
:1050B000D7FCFEF7F3FD0CE08021164804F049F917
:1050C000FFF713FE80211348FFF715FE1148FFF785
:1050D0007FFEF1E70EB510A1144804F0C5F8AFF655
:1050E000B4504FF400610022114BCDE90021029031
:1050F0001049114803F0A8FA0EBD000062616E70FD
:1051000072696E7466000000616C6C6F7770726912
:105110006E746600004B00201B5B313B33326D52D6
:10512000544F533E3E1B5B306D000000BC4A0020D4
:105130005C420020AB5000085C4A00201CB523E014
:10514000002001AB0F2281210090184802F03EFFA1
:10515000019800F0010010B115A003F02BFF019899
:1051600000F0020010B115A003F024FF019800F038
:10517000040010B114A003F01DFF019800F0080016
:1051800010B114A003F016FFDAE70EB5FEF747FDE5
:1051900014A04FF400710122144BCDE900210290BC
:1051A00000221349134803F04FFA0EBD2442002099
:1051B0004B45593020444F574E0D0A004B4559314D
:1051C00020444F574E0D0A004B45593220444F574B
:1051D0004E0D0A004B4559555020444F574E0D0A6D
:1051E0000000000045584556454E5400E04B002055
:1051F0003D510008804B00201CB50121202001F00A
:10520000B9FF4FF4C060009001208DF80400002029
:105210008DF8060003208DF8050001208DF80700A9
:105220006946214801F024FA4FF4C0611E4801F09C
:105230009BFA1CBD1CB50121202001F09BFF4FF4FF
:105240008070009001208DF8040000208DF8060089
:1052500003208DF8050002208DF8070069461248EA
:1052600001F006FA4FF480710F4801F07FFA1CBD7F
:1052700010B5FFF7C1FFFFF7DDFF10BD0B4B03EBD0
:105280008002C2F88012704770B5044602F0BAFD81
:105290000646064901EB8400D0F88002C5B23046CC
:1052A00002F0B6FD284670BD001402400080424264
:1052B00000B58DB00121084601F05CFF0121080214
:1052C00001F0B2FF20200B9003208DF83000012068
:1052D0008DF833000BA9504801F0CAF901210802EA
:1052E00001F0F7FF00214FF4807001F0F2FF012080
:1052F00002F02DFB002007900A9009904FF48030B7
:10530000089007A802F0EEFA002001908DF808003E
:105310008DF809000390059001208DF8180001A96F
:105320003E4802F0B0FA0723012205213B4802F073
:1053300030FB072301221021384802F02AFB01210B
:10534000364802F0E6FA0DB000BD10B5044607235A
:1053500001222146314802F01CFB304802F075FB67
:1053600000BF02212D4802F091FC0028F9D02B4803
:1053700002F0A7FB10BD2DE9F04107460C460025C1
:10538000002608E03846FFF7E0FF05440A2003F056
:1053900067FB701CC6B2A642F4DBB5FBF4F080B22A
:1053A000BDE8F08110B52DED088B05211020FFF729
:1053B000E2FF08EE100AB8EE480A10EE100A04F0F8
:1053C00019FF41EC1A0B9FED160B53EC102B04F058
:1053D000E7FC41EC190B9FED140B53EC102B51EC37
:1053E000190B04F01DFE41EC1B0B9FED110B53EC50
:1053F000102B04F0D1FA41EC1A0B9FED0F0B53EC7C
:10540000102B04F015FA41EC190BB0EE490AF0EE3E
:10541000690ABDEC088B10BD00000240002001406D
:105420006666666666664A3F52B81E85EB51E83F7F
:105430007B14AE47E17A643F000000000000394071
:1054400000B58BB00121880201F0EEFE0121880237
:1054500001F03FFF00214FF4806001F03AFF00208F
:1054600007900A9009904FF48030089007A802F046
:1054700039FA002001908DF808008DF8090003909A
:10548000059001208DF8180001A9284802F0FBF9C9
:105490000121264802F03DFA0BB000BD10B50446CC
:1054A000072301222146214802F073FA1F4802F027
:1054B000CCFA00BF02211D4802F0E8FB0028F9D019
:1054C0001A4802F0FEFA10BD1CB50121202001F09F
:1054D00051FE8020009003208DF8040000208DF8FC
:1054E00007006946124801F0C3F8FFF7A9FF1CBD89
:1054F00070B50024002508E00520FFF7CFFF044425
:105500000A2003F0ADFA681CC5B2052DF4DB0520B6
:10551000B4FBF0F4B4F57A6F01D94FF47A64282023
:10552000B4FBF0F0C0F16400C0B270BD00220140D5
:1055300000140240F0B5F0EE400A0D46BDEEE01A50
:1055400011EE101A01EE101AB8EEC11A30EEC11A9F
:10555000B0EE410A002231B94FF0300C1646521C11
:1055600000F806C011E00EE00A2691FBF6F706FBF4
:105570001716303606F0FF0C1646521C00F806C00F
:105580000A2691FBF6F10029EEDC00268654002362
:10559000541E06E0C65C075DC75406555B1C641EBE
:1055A00000BFA342F6DB4FF02E0C1646521C00F84B
:1055B00006C0BDEEC01A11EE101AB5EEC00AF1EE2B
:1055C00010FA04D10027561E32468755F0BD19E067
:1055D000B2EE041A20EE011AB0EE410ABDEEC01A76
:1055E00011EE101A01F1300606F0FF0C1646521C9F
:1055F00000F806C001EE101AB8EEC11A30EE411ADA
:10560000B0EE410A561EAE4204DAB5EEC00AF1EE23
:1056100010FADDDC0026865400BFD7E710B5FD4840
:1056200003F0C8FCFC4803F0C5FCFC4803F0C2FCD6
:10563000FB4803F0BFFCFB4803F0BCFCFA4803F056
:10564000B9FC10BD70B52DED028B012000F0EDFD11
:10565000FFF7A8FEB0EE408AF0EE608A51EC180B1E
:1056600004F0F2FA0446002000F0DFFD41F2883039
:1056700084421EDA642094FBF0F100FB11400A28FA
:1056800005DB642094FBF0F100FB114007E064208F
:1056900094FBF0F100FB114000EB80004000064657
:1056A000642094FBF0F532462946E0A003F082FC2A
:1056B0000FE041F2883084420BDD642094FBF0F16E
:1056C00000FB114594FBF0F62A463146E0A003F0BA
:1056D00071FCBDEC028B70BD00B52DED028B83B06B
:1056E000E4A003F067FCE648007830B1E5A003F0E1
:1056F00061FC03B0BDEC028B00BD02F0B3FEB0EE66
:10570000408A9FEDE70AB4EEC08AF1EE10FA03DB9F
:10571000E4A003F04FFC14E09FEDE10AB4EEC08A70
:10572000F1EE10FA0AD2B3EE040AB4EEC08AF1EE3A
:1057300010FA03DBDDA003F03DFC02E0DDA003F086
:1057400039FC032101A8B0EE480AFFF7F3FE01A9D6
:10575000DAA003F02FFC00BFCBE710B52DED0C8BCA
:105760008AB0DAA003F026FCD9A003F023FCDAA06B
:1057700003F020FCD9A003F01DFCD7A003F01AFC15
:10578000D8A003F017FCDAA003F014FCD9A003F0B2
:1057900011FCDBA003F00EFCDAA003F00BFCCEA0A2
:1057A00003F008FCDAA003F005FCDCA003F002FC27
:1057B000002451E2DB4850F8240000287ED0D9486C
:1057C00050F8241002A803F016F9D7A0029903F0AC
:1057D000F1FB029803F06CFD082802D2C4A003F08C
:1057E000E9FBD04850F82400D0490968884203D129
:1057F000CFA003F0DFFB2AE0039800F47F0018B18C
:10580000D1A003F0D7FB22E0039800F0010018B10B
:10581000D3A003F0CFFB1AE0039800F0020018B108
:10582000D5A003F0C7FB12E0039800F0040018B104
:10583000D7A003F0BFFB0AE0039800F0080018B1FE
:10584000D9A003F0B7FB06E2DBA003F0B3FBE0A0B6
:10585000079903F0AFFB079804F053FA41EC1B0BD8
:10586000099804F04EFA41EC1D0B9FEDDB0B53EC55
:10587000102B04F095FA41EC1C0B53EC1B2B04F09D
:105880008BF841EC1A0B9FEDD40B53EC102B04F06A
:10589000BBFB41EC190B03F099FF08EE100A032142
:1058A0006846B0EE480AFFF745FE079804F029FA6B
:1058B00041EC190B099804F024FA00E0CAE141EC2C
:1058C0001B0B9FEDC50B53EC102B04F069FA41EC58
:1058D0001A0B53EC192B04F05FF841EC180B9FEDF9
:1058E000C00B53EC102B04F01FFA03D26DA003F091
:1058F00061FB25E0079804F004FA41EC190B0998C4
:1059000004F0FFF941EC1B0B9FEDB30B53EC102B94
:1059100004F046FA41EC1A0B53EC192B04F03CF856
:1059200041EC180B9FEDB00B53EC102B04F036FB41
:1059300003D2AFA003F03EFB02E05EA003F03AFB0F
:1059400009990798421A6946ABA003F033FB079800
:1059500004F0D7F941EC190B089804F0D2F941ECA6
:105960001B0B9FED9D0B53EC102B04F019FA41EC2F
:105970001A0B53EC192B04F00FF841EC180B9FEDA8
:10598000980B53EC102B04F0CFF903D245A003F091
:1059900011FB25E0079804F0B4F941EC190B0898C5
:1059A00004F0AFF941EC1B0B9FED8B0B53EC102B6C
:1059B00004F0F6F941EC1A0B53EC192B03F0ECFF51
:1059C00041EC180B9FED880B53EC102B04F0E6FA1A
:1059D00003D287A003F0EEFA02E036A003F0EAFA61
:1059E000079804F08EF941EC1B0B089804F089F934
:1059F00041EC1D0B9FED780B53EC102B04F0D0F90C
:105A000041EC1C0B53EC1B2B03F0C6FF41EC1A0BB3
:105A1000FAE000006CC3000824C40008DCC40008DD
:105A2000C8C3000880C4000838C50008435055CEDC
:105A3000C2B6C83A201B5B313B33326D253032642D
:105A40002E252D3264A1E3430D0A1B5B306D00004F
:105A5000435055CEC2B6C83A201B5B313B33316D43
:105A6000253032642E252D3264A1E3430D0A1B5BE1
:105A7000306D0000435055C0FBD3C3C2CA3A20006A
:105A8000610000201B5B313B33316D556E617661E7
:105A9000696C61626C651B5B306D202020202000EA
:105AA000000070421B5B313B33316D001B5B313BAF
:105AB00033346D001B5B313B33326D00257325257C
:105AC0001B5B306D20202020200000000D0A00000C
:105AD0004E414D4500000000090900005354415457
