:020000040800F2
:10000000C8830020150500081D0500081F0500080D
:100010002105000823050008250500080000000050
:10002000000000000000000000000000270500089C
:10003000290500080000000049020008312D0008D1
:100040002F0500082F0500082F0500082F050008C0
:100050002F0500082F0500082F0500082F050008B0
:100060002F0500082F0500082F0500082F050008A0
:100070002F0500082F0500082F0500082F05000890
:100080002F0500082F0500082F0500082F05000880
:100090002F0500082F0500082F0500082F05000870
:1000A0002F0500082F0500082F0500082F05000860
:1000B0002F0500082F0500082F0500082F05000850
:1000C0002F0500082F0500082F0500082F05000840
:1000D0002F050008D33800082F0500082F05000859
:1000E0002F0500082F0500082F0500082F05000820
:1000F0002F0500082F0500082F0500082F05000810
:100100002F0500082F0500082F0500082F050008FF
:100110002F0500082F0500082F0500082F050008EF
:100120002F0500082F0500082F0500082F050008DF
:100130002F0500082F0500082F0500082F050008CF
:100140002F0500082F0500082F0500082F050008BF
:100150002F0500082F0500082F0500082F050008AF
:100160002F0500082F0500082F0500082F0500089F
:100170002F0500082F0500082F0500082F0500088F
:100180002F0500082F05000800F002F800F04DF8D8
:100190000AA090E8000C82448344AAF10107DA45E2
:1001A00001D100F042F8AFF2090EBAE80F0013F0E7
:1001B000010F18BFFB1A43F00103184700C30000EA
:1001C00020C30000103A24BF78C878C1FAD852077B
:1001D00024BF30C830C144BF04680C6070470000C1
:1001E0000023002400250026103A28BF78C1FBD840
:1001F000520728BF30C148BF0B607047642908F020
:10020000C586732909F00F81002070471FB509F0DA
:10021000F2FF09F033FA04000020002109F050FA3F
:10022000401C60601FBD10B510BD09F002FA1146F8
:10023000FFF7ECFF01F043FF09F032FA03B4FFF7D8
:10024000F2FF03BC03F0AEFBEFF3098020E9F00FEF
:100250000749096808600648064909680160086896
:10026000B0E8F00F80F309884EF0040E704700BF2D
:10027000580000205C00002009E04FF47A71322021
:1002800003F04FFA0446204602F0E2FC00BFF4E718
:100290001CB5002404F033F881E00C2C41D2DFE8D7
:1002A00004F0060B0F13181D22272C31363B4FF696
:1002B000FF7004F00FF834E0002004F00BF830E099
:1002C0001F2004F007F82CE04FF4784004F002F807
:1002D00027E04FF61F0003F0FDFF22E04FF4FC6023
:1002E00003F0F8FF1DE047F6FF7003F0F3FF18E09E
:1002F0004FF6E07003F0EEFF13E04FF6074003F017
:10030000E9FF0EE048F2304003F0E4FF09E04CF270
:10031000186003F0DFFF04E04BF6404003F0DAFF23
:1003200000BF00BF4FF478405449088054A0182102
:100330000B46D222CDE9001028211E2006F05DFEDA
:1003400054A010210B46C822CDE9001046211E20E2
:1003500006F053FE55A010210B46C822CDE900102F
:100360005A211E2006F049FE54A00C210B46C8223B
:10037000CDE9001082211E2006F03FFE601CC4B2B1
:100380000C2C00D100245048006808B9012000E07E
:1003900000204D4908604FF47A7002F059FC7CE768
:1003A0000BE00020494908600A2002F051FC0120BE
:1003B000464908600A2002F04BFCF2E70FE00020FB
:1003C00000E0401C42498842FBDB4FF47A71481040
:1003D00003F0A7F90446204602F03AFC00BFEEE71E
:1003E0000EB503F0FCF903F007F807F0EFFF02F099
:1003F00090FF08F02FFC03F01FF803F033F903F02F
:1004000067F934A04FF480510022344BCDE900212C
:10041000029041F24512AFF29F11314802F00CFAFE
:1004200030A04FF480510122304BCDE900210290E1
:1004300041F61912AFF2A7112D4802F0FDF92DA0D7
:100440004FF4805101222D4BCDE90021029041F65D
:100450001912AFF2B3012A4802F0EEF929A04FF4C5
:1004600080510222294BCDE90021029041F6191258
:10047000AFF2B701264802F0DFF90EBD8800002078
:10048000536F433A2053544D3332463430375A4732
:100490005436000043505520436F72653A20415254
:1004A0004D20436F727465782D4D34004650553A97
:1004B00020454E41424C4544000000003230323469
:1004C0002F342F3139000000A4824242080000205E
:1004D0003F3F3F005441534B31000000900000204B
:1004E000904000205441534B3200000090100020F7
:1004F000F04000205441534B330000009020002076
:10050000504100205441534B3400000090300020F3
:10051000B04100200948804709480047FEE7FEE750
:10052000FEE7FEE7FEE7FEE7FEE7FEE7FEE7FEE7A3
:1005300004480549054A064B70470000310600088B
:1005400089010008C87D0020C8830020C87F0020E2
:10055000C87F00200CB5002001900090764800680C
:1005600040F480307449086000BF7348006800F4AC
:10057000003000900198401C0190009818B9019833
:10058000B0F5A04FF1D16C48006800F4003010B114
:100590000120009001E0002000900098012846D141
:1005A00065484030006840F0805063494031086041
:1005B0006248006840F44040604908605E48083086
:1005C00000685D49083108600846006840F4004052
:1005D00008600846006840F4A05008605848091FA9
:1005E0000860081F006840F08070091F086000BFA5
:1005F0005148006800F000700028F9D040F2057002
:10060000504908604C480830006820F003004A490F
:10061000083108600846006840F00200086000BF2A
:1006200045480830006800F00C000828F8D10CBDDF
:1006300010B54548006840F47000434908603E48E2
:10064000006840F001003C49086000203A49083148
:100650000860394800683D490840374908603C480F
:10066000091D0860081F006820F48020091F086029
:10067000002031490C310860FFF76CFF4FF000603B
:1006800031498039086010BD70B500200022022376
:1006900000240221284D08352D6805F00C0020B1FA
:1006A000042806D0082834D107E02A4D2A4E3560A8
:1006B00033E02A4D284E35602FE01F4D2D1D2D684B
:1006C000C5F380541C4D2D1D2D6805F03F0154B11C
:1006D000224DB5FBF1F5184E361D3668C6F3881667
:1006E00005FB06F209E01B4DB5FBF1F5124E361D78
:1006F0003668C6F3881605FB06F20F4D2D1D2D68D2
:10070000C5F301456D1C6B00B2FBF3F5124E35606D
:1007100003E0104D104E356000BF00BF064D083598
:100720002D68C5F303150E4E705D0B4D2D68C54049
:10073000094E356070BD0000003802400070004076
:1007400008544007003C024088ED00E0FFFFF6FE41
:10075000103000240024F4001000002000127A0061
:100760001400002010B504469848844208D10121A5
:10077000084600F06AFE0021012000F066FE76E0E7
:100780009348844208D10121022000F05EFE00213E
:10079000022000F05AFE6AE08E48844208D101210E
:1007A000042000F052FE0021042000F04EFE5EE026
:1007B0008948844208D10121082000F046FE00212A
:1007C000082000F042FE52E08448844208D1012112
:1007D000102000F03AFE0021102000F036FE46E026
:1007E0007F48844208D10121202000F02EFE002104
:1007F000202000F02AFE3AE07A48844208D1012104
:10080000402000F022FE0021402000F01EFE2EE0DD
:100810007548844208D10121802000F016FE002195
:10082000802000F012FE22E07048844208D10121AD
:10083000801500F00AFE0021A01500F006FE16E06B
:100840006B48844208D10121401500F0FEFD0021D3
:10085000601500F0FAFD0AE06648844207D10121E4
:10086000001500F0F2FD0021201500F0EEFD10BD96
:10087000F0B50A4600210023002400BF3DE0012519
:1008800005FA01F3156805EA03049C4234D10568B2
:100890004F000326BE40B543056015794E00B540B4
:1008A0000668354305601579012D02D01579022DB2
:1008B00016D185684F000326BE40B5438560557943
:1008C0004E00B540866835438560456801268E40F8
:1008D000B5434560456896798E40B6B2354345606C
:1008E000C5684F000326BE40B543C560D5794E00AC
:1008F000B540C6683543C560491C1029BFD3F0BD5B
:100900004FF6FF7101600021017141718171C17168
:10091000704708B54FF480320092009A0A43009263
:10092000009AC261C161009AC261C2690092C26943
:10093000009208BD0246002013690B400BB1012054
:1009400000E0002070470146086980B27047024607
:10095000002053690B400BB1012000E000207047DC
:100960000146486980B270470183704741837047F0
:100970000AB1018300E041837047416170474269D9
:100980004A4042617047F0B5002300244D07ED0E48
:1009900002FA05F3CE1000F1200555F826504E0757
:1009A000F70E0F26BE40B543CF1000F1200646F8E3
:1009B0002750CE1000F1200555F8265045EA0304D3
:1009C000CE1000F1200545F82640F0BD00000240A1
:1009D0000004024000080240000C024000100240E7
:1009E0000014024000180240001C02400020024097
:1009F000002402400028024030B943F2DB028100AB
:100A0000A1F1C0410A6005E043F2D2028100A1F1E8
:100A1000C0410A606FF07042411C8900A1F1C041E1
:100A20000A608100A1F1C041C1F804217047D0E9FA
:100A300001121143C2681143026911434269114313
:100A400082691143C2691143026A1143426A114328
:100A5000826A1143C26A1143026B11430268920019
:100A6000A2F1C0421160816808290BD10168890098
:100A7000A1F1C041096841F0400201688900A1F17B
:100A8000C0410A60416B0968426B526841EA021139
:100A9000426B926841EA0221426B928941EA02412B
:100AA000426B128A41EA0251426B127D41EA0261B5
:100AB000426B926911430268521C9200A2F1C0423B
:100AC0001160C16AB1F5804F1BD1816B0968826BDF
:100AD000526841EA0211826B926841EA0221826BFC
:100AE000128A41EA0251826B127D41EA0261826BF5
:100AF0009269114302689200A2F1C042C2F8041147
:100B000007E06FF0704201688900A1F1C041C1F8AF
:100B100004217047002101600221416000218160B1
:100B2000C160016141618161C16101624FF4805125
:100B30004162490081620021C1620163F849416359
:100B40008163704751B18200A2F1C042126842F045
:100B500001038200A2F1C042136009E08200A2F109
:100B6000C0421268EF4B1A408300A3F1C0431A60E1
:100B7000704710280AD118214FF0204211664021F9
:100B800051664FF0FC319166D16610E01821E64ABB
:100B9000116040214FF02042C2F884104FF0FC3128
:100BA000E14A083211604FF02042C2F88C107047C1
:100BB00030B5002100220023446844F00804856811
:100BC0002C43C5682C4305692C43456944EA4524F8
:100BD000856944EA4531C4692468C5696D6844EA99
:100BE0000524C5692D8944EA0544C5692D7B44EA7D
:100BF0000562046A2468056A6D6844EA0524056A8A
:100C00002D8944EA0544056A2D7B44EA056304689E
:100C1000102C05D14FF020442166A266E36608E05F
:100C2000C14C21604FF02044C4F88820BE4C0C34E5
:100C3000236030BD10210160002141608160C160EE
:100C4000016141618161FC21C2691160C269516029
:100C5000C2699160C269D160026A1160026A516022
:100C6000026A9160026AD160704799B1102808D178
:100C70004FF02042126E42F004024FF020431A66F9
:100C80001DE0A94A126842F004024FF02043C3F865
:100C9000802014E0102809D14FF02042126EA14BA1
:100CA000DB1E1A404FF020431A6608E09E4A126885
:100CB0009C4BDB1E1A404FF02043C3F88020704746
:100CC00099B1102808D14FF02042126E42F0400234
:100CD0004FF020431A661DE0934A126842F040022A
:100CE0004FF02043C3F8802014E0102809D14FF0C2
:100CF0002042126E8B4B3F3B1A404FF020431A6646
:100D000008E0894A1268874B3F3B1A404FF0204366
:100D1000C3F88020704701460020102903D14FF00E
:100D20002042506F02E0804A143210687047182049
:100D30007D492031086000200906C1F8A4004FF069
:100D4000FC30794928310860091D0860091D0860D8
:100D50007047016841F01001426841EA422182680F
:100D600041EA4231704A20321160C1680968C268A4
:100D7000526841EA0221C268128941EA0241C2680E
:100D8000127B41EA0261684A2832116001690968F0
:100D90000269526841EA02210269128941EA02416C
:100DA0000269127B41EA02615F4A2C32116041699B
:100DB00009684269526841EA02214269128941EA9E
:100DC00002414269127B41EA02614FF02042C2F8BF
:100DD000B01070470021016041608160FC21C26851
:100DE0001160C2685160C2689160C268D1600269D6
:100DF000116002695160026991600269D1604269C3
:100E0000116042695160426991604269D1607047E6
:100E100048B145492031096841F004014FF02042B2
:100E2000C2F8A01009E04049203109683D4AD21EAD
:100E300011404FF02042C2F8A010704710B5F2B137
:100E4000102807D14FF020435B6E0B434FF0204436
:100E5000636632E0B0F5807F08D1334B1B1D1B6801
:100E60000B434FF02044C4F8843026E02E4B24334B
:100E70001B680B434FF02044C4F8A4301DE0102839
:100E800007D14FF020435B6E8B434FF020446366E5
:100E900013E0B0F5807F08D1234B1B1D1B688B43EB
:100EA0004FF02044C4F8843007E01F4B24331B6804
:100EB0008B434FF02044C4F8A43010BD10B5024657
:100EC00000200023102A03D14FF02044636E09E074
:100ED000B2F5807F03D1144C241D236802E0124C2C
:100EE0002434236803EA01040CB1012000E000204F
:100EF00010BD102807D14FF02042526E8A434FF0A8
:100F000020435A6619E0B0F5807F0FD1064A121DC2
:100F100012688A434FF02043C3F884200DE000009C
:100F20000CA20008FEFF0F00800000A0234A1268F8
:100F30008A434FF02043C3F8A420704770B502469F
:100F40000020002300240025102A03D14FF0204662
:100F5000736E08E0B2F5807F03D1184E203E3368EF
:100F600001E0164E336803EA010403EAD10514B127
:100F70000DB1012000E0002070BD102808D14FF015
:100F80002042526E22EAD1024FF020435A6614E00A
:100F9000B0F5807F09D1094A203A126822EAD102CD
:100FA0004FF02043C3F8842007E0044A126822EA85
:100FB000D1024FF02043C3F8A4207047A40000A042
:100FC000F948006840F00100F74908600020F64940
:100FD00008310860F4480068F4490840F2490860A4
:100FE000F348091D0860F348EF4984310860F04870
:100FF0001038091D0860EC48006820F48020EA4998
:1010000008600020E8490C310860E7498C3108602D
:1010100070470021E44A921C117011460870704715
:1010200010B501460022002300204A11012A02D1F6
:10103000DD4C236808E0022A03D1DB4C70342368BE
:1010400002E0D94C7434236801F01F02012494405B
:101050001C400CB1012000E0002010BD38B500207C
:1010600000900024002500BF3120FFF7D9FF05467E
:101070000098401C00900098B0F5A04F01D0002DC2
:10108000F2D03120FFF7CCFF08B1012400E00024AA
:10109000204638BD01460020C34A106820F0F80001
:1010A00040EAC10010607047C349086070470021E2
:1010B000BD4A703211701170012802D004280AD183
:1010C00004E00121B84A7032117005E00521B64AEA
:1010D0007032117000E000BF00BF7047B749086070
:1010E000704770B5049C41EA82150126C6EB530691
:1010F00045EA0645054345EA0465AB4E361D3560B5
:1011000070BDAD4908667047820142EA0172A64B84
:1011100084331A607047A8498866704710B5830108
:1011200043EA016343EA02739F4C8834236010BD95
:10113000A14908677047A049C8647047024600206B
:10114000994B0833186820F0EC6042EA0103184319
:10115000954B08331860704702460020924B0833C5
:10116000186820F0784042EA010318438E4B083398
:1011700018607047014600208B4A0832106820F042
:10118000030008431060704787480830006800F08B
:101190000C00704701460020834A0832106820F096
:1011A000F000084310607047014600207E4A083274
:1011B000106820F4E050084310607047014600209A
:1011C000794A0832106820F4604040EAC10010609B
:1011D0007047F0B5002100220024022500260223DA
:1011E000714F08373F6807F00C0121B1042905D081
:1011F000082937D105E0724F076036E0714F07606C
:1012000033E0694F3F1D3F68C7F38056664F3F1D6F
:101210003F6807F03F036EB16A4FB7FBF3F7DFF8A3
:1012200088C10CF1040CDCF800C0CCF3881C07FB6F
:101230000CF40CE0624FB7FBF3F7DFF86CC10CF174
:10124000040CDCF800C0CCF3881C07FB0CF4564FF0
:101250003F1D3F68C7F301477F1C7D00B4FBF5F7D6
:10126000076002E0564F076000BF00BF4E4F0837CF
:101270003F6807F0F0010909534F7A5C0768D740CF
:101280004760494F08373F6807F4E051890A4E4FDD
:101290007A5C4768D7408760434F08373F6807F458
:1012A0006041490B484F7A5C4768D740C760F0BD42
:1012B000002100F44072B2F5407F0AD13A4A083268
:1012C000116821F4F811414A02401143364A0832AC
:1012D0001160354A70321268C0F30B031A43324B67
:1012E00070331A6070473549443908607047334994
:1012F0004039086070473649086070470146002051
:10130000294A8C32106820F01F004A1E1043264ADA
:101310008C321060704701460020234A8C321068DE
:1013200020F4F8504A1E40EA02201F4A8C32106016
:101330007047014600201C4A8C32106820F440108F
:1013400008431060704701460020174A8C3210682D
:1013500020F4400008431060704701460020124A04
:101360008C32106820F440300843106070471949EF
:101370000860704739B10C4A3032126802430A4B98
:1013800030331A6006E0084A303212688243064B56
:1013900030331A607047F9B1034A3432126802439D
:1013A000014B34331A601CE000380240FFFFF6EABC
:1013B000103000240030002000004742800E4742D9
:1013C0000024F40000127A0024000020FFFCFF0F2C
:1013D0005C014742E01147428F4A126882438E4BBC
:1013E0001A60704739B18C4A121D126802438A4B49
:1013F0001B1D1A6006E0884A121D12688243864B44
:101400001B1D1A60704739B1834A0C3212680243BF
:10141000814B0C331A6006E07F4A0C32126882431B
:101420007D4B0C331A60704739B17B4A1032126819
:101430000243794B10331A6006E0774A1032126883
:101440008243754B10331A60704739B1724A243A9F
:1014500012680243704B243B1A6006E06E4A243A3D
:10146000126882436C4B243B1A60704739B16A4A58
:10147000203A12680243684B203B1A6006E0664A35
:10148000203A12688243644B203B1A60704739B19E
:10149000614A1C3A126802435F4B1C3B1A6006E02B
:1014A0005D4A1C3A126882435B4B1C3B1A607047D2
:1014B00039B1594A143A12680243574B143B1A6027
:1014C00006E0554A143A12688243534B143B1A60A3
:1014D000704739B1504A103A126802434E4B103BE4
:1014E0001A6006E04C4A103A126882434A4B103B9D
:1014F0001A60704739B1484A1C3212680243464BA1
:101500001C331A6006E0444A1C3212688243424B84
:101510001C331A60704739B13F4A203212680243C7
:101520003D4B20331A6006E03B4A2032126882436A
:10153000394B20331A60704739B1374A2432126868
:101540000243354B24331A6006E0334A24321268D2
:101550008243314B24331A60704739B12E4A2C3202
:10156000126802432C4B2C331A6006E02A4A2C32B4
:1015700012688243284B2C331A60704739B1264ACF
:10158000303212680243244B30331A6006E0224A9C
:10159000303212688243204B30331A607047012882
:1015A00008D11D493C31096841F008011A4A3C3212
:1015B000116007E018493C31096821F00801164A1A
:1015C0003C321160704739B1134A273A127802430E
:1015D000114B273B1A7006E00F4A273A12788243D4
:1015E0000D4B273B1A7070470B484030006840F0A5
:1015F0008070094940310860704701460020064A62
:10160000283A12680A400AB1012000E00020704721
:1016100001492639087070473438024010B5044635
:10162000FA48844208D101211020FFF752FF00211F
:101630001020FFF74EFF57E0F548844209D1012101
:101640004804FFF735FF00214FF40030FFF730FF6B
:101650004AE0F048844209D101218804FFF728FFBD
:1016600000214FF48020FFF723FF3DE0EA48844249
:1016700009D10121C804FFF71BFF00214FF400200E
:10168000FFF716FF30E0E548844209D10121080543
:10169000FFF70EFF00214FF48010FFF709FF23E052
:1016A000DF48844208D101212020FFF712FF0021EA
:1016B0002020FFF70EFF17E0DA48844209D101210C
:1016C0008807FFF7F5FE00214FF08040FFF7F0FE9E
:1016D0000AE0D548844207D101214005FFF7E8FE22
:1016E00000216005FFF7E4FE10BD2DE9FF47054628
:1016F0000E460024A14600BFA046B08900B100BF3D
:101700002C8A24F44054F08804432C82AC8941F2A2
:101710000C608443B08831890843718908430443CD
:10172000AC81AC8A24F44074B0890443AC8268462E
:10173000FFF74FFDB548854202D0B948854202D136
:10174000DDF80C9001E0DDF80890A88900F4004075
:1017500040B109EBC90000EB091031684900B0FB4A
:10176000F1F707E009EBC90000EB091031688900C7
:10177000B0FBF1F76420B7FBF0F00401200964210D
:1017800001FB1078A88900F4004040B1322000EB42
:10179000C800B0FBF1F000F00700044308E032207D
:1017A00000EB08106421B0FBF1F000F00F000443DF
:1017B0002C81BDE8FF874FF4165101600021818024
:1017C000C18001810C21418100218181704710B5C8
:1017D00002460020108A20F470600B884C88234356
:1017E0008C882343CC8823431843108210BD0021EA
:1017F000018041808180C180704721B1828942F49B
:101800000052828104E082894DF6FF731A40828182
:101810007047028B02F47F420283028B0A430283E9
:10182000704721B1828942F40042828103E08289BB
:10183000C2F30E028281704721B1828A42F40062B3
:10184000828204E0828A4FF2FF731A4082827047DC
:10185000C1F308028280704701468888C0F30800FF
:101860007047028A4FF6F0731A400282028A0A43D6
:101870000282704721B1828942F00202828104E033
:1018800082894FF6FD731A408281704782894FF238
:10189000FF731A40828182890A4382817047028ADB
:1018A0004FF6DF731A400282028A0A4302827047AF
:1018B00021B1028A42F48042028204E0028A4BF69D
:1018C000FF731A4002827047818941F001018181D2
:1018D000704721B1828A42F00802828204E0828A43
:1018E0004FF6F7731A4082827047028BD2B202839E
:1018F000028B42EA01220283704721B1828A42F0C0
:101900002002828204E0828A4FF6DF731A408282CC
:10191000704721B1828A42F01002828204E0828AFA
:101920004FF6EF731A4082827047828A4FF6FB733C
:101930001A408282828A0A438282704721B1828A57
:1019400042F00202828204E0828A4FF6FD731A405E
:10195000828270471AB1838A0B43838202E0838AB2
:101960008B4383827047F0B5034600240026002590
:10197000002040F66A17B94200D100BF1846C1F3F3
:10198000421401F01F06012707FA06F5012C01D1C8
:101990000C3004E0022C01D1103000E014301AB1F8
:1019A00007682F43076002E00768AF430760F0BD98
:1019B00002460020B1F5007F00D100BF13880B4024
:1019C0000BB1012000E00020704701F40072B2F575
:1019D000007F00D100BFCA430280704770B5024645
:1019E000002400230025002040F66A16B14200D1F1
:1019F00000BFC1F3421501F01F03012606FA03F3ED
:101A0000012D13D19689334017E0000000100140EA
:101A10000044004000480040004C0040005000409E
:101A20000014014000780040007C0040022D02D1EB
:101A3000168A334001E0968A33400C12012606FADA
:101A400004F41688344013B10CB1012000E00020EA
:101A500070BD10B50022002340F66A14A14200D1E7
:101A600000BF0A1201249440A3B2DC43048010BDDD
:101A700010B501210802FFF72CFD00214FF4807002
:101A8000FFF727FD10BD30B5024600200023506847
:101A9000F84C20400D790C6844EA0524204350603E
:101AA0009068F54C2040D1E903542C438D682C43B9
:101AB0004D7944EA450420439060D06A20F47000D8
:101AC0000C7D641EE4B2234340EA0350D06230BD73
:101AD00000210160017141718160C16001610121DA
:101AE000017570470021E54A1168E54A1140D0E9C7
:101AF00000231A4383681A43C3681A431143E14A17
:101B0000C2F8041370470021016041608160C16028
:101B1000704721B1826842F00102826003E082686E
:101B200022F00102826070470A4600214168D64BCC
:101B300019401143416070474162826270470A4612
:101B40000021416821F01F0111434160704738B105
:101B5000CA49096841F40001CA4AC2F8041306E000
:101B6000C649096821F40001C64AC2F80413704747
:101B700038B1C249096841F48001C24AC2F804136D
:101B800006E0BE49096821F48001BE4AC2F8041388
:101B90007047F0B504460D4600200021092D11DDE7
:101BA000E068A5F10A0606EB4607072606FA07F1E4
:101BB0008843A5F10A0606EB460603FA06F1084338
:101BC000E0600CE0206905EB4507072606FA07F1FF
:101BD000884305EB450603FA06F108432061072A0E
:101BE0000FDA606B561E06EB86071F2606FA07F112
:101BF0008843561E06EB860605FA06F10843606325
:101C000022E00D2A0FDA206BD61F06EB86071F266F
:101C100006FA07F18843D61F06EB860605FA06F199
:101C20000843206310E0E06AA2F10D0606EB860788
:101C30001F2606FA07F18843A2F10D0606EB860679
:101C400005FA06F10843E062F0BD816841F0804189
:101C500081607047014600208A6802F080420AB124
:101C6000012000E00020704721B1826842F48062C8
:101C7000826003E0826822F480628260704721B152
:101C8000826842F00202826003E0826822F002026F
:101C90008260704710B50A4600210023416821F494
:101CA0006041531E41EA4331416010BD21B1426899
:101CB00042F40062426003E0426822F40062426043
:101CC00070470146C86C80B270476C48001D0068C0
:101CD000704721B1826842F48072826003E08268BA
:101CE00022F480728260704721B1826842F40072EF
:101CF000826003E0826822F400728260704738B12B
:101D00005E49096841F400515E4AC2F8041306E0D6
:101D10005A49096821F400515A4AC2F8041370471D
:101D2000F0B504461546002000220026092911DDE1
:101D3000E068A1F10A0707EB470C072707FA0CF246
:101D40009043A1F10A0707EB470703FA07F2104394
:101D5000E0600CE0206901EB410C072707FA0CF268
:101D6000904301EB410703FA07F210432061A06B97
:101D7000C0F30156EF1C06F1010CA7EB0C0707EBB3
:101D8000870C1F2707FA0CF29043EF1C06F1010C99
:101D9000A7EB0C0707EB870701FA07F21043A063D4
:101DA000F0BD10B50A4600210023816B21F44011DB
:101DB000531E41EA0351816310BD08B5002300930F
:101DC0000090009B0B440093009B1A6008BD0A46DC
:101DD0000021816821F470211143816070470A4617
:101DE0000021816821F440111143816070478168AE
:101DF00041F4800181607047014600208A6802F446
:101E000080020AB1012000E00020704721B1426841
:101E100042F48062426003E0426822F480624260E1
:101E2000704721B1426842F48052426003E0426848
:101E300022F480524260704708B5024600200090AC
:101E4000009201F12800009B18440090009800685F
:101E500080B208BD10B50B460021D9B2012404FAA6
:101E600001F11AB144680C43446002E044688C43B9
:101E7000446010BDFFFEFFFCFDF7FFC004230140DE
:101E8000E030FCFF00200140FFFD3FFF0246002044
:101E900013680B400BB1012000E000207047CA43DB
:101EA0000260704770B502460020002300240B1228
:101EB000556801268E4005EA060415681D4015B1D7
:101EC0000CB1012000E0002070BD00220A12D343B3
:101ED0000360704710B501214020FFF7C7FA0021C9
:101EE0004020FFF7C3FA10BD30B12149096841F025
:101EF00004011F4A116005E01D49096821F0040131
:101F00001B4A116070471A4808300068704730B1AA
:101F10001749096841F00801154A116005E01449A4
:101F2000096821F00801124A11607047014600203B
:101F30000F4A121D12680A400AB1012000E0002079
:101F400070476FEA00110A4A121D1160704701467E
:101F50000020074A121D12680A400AB1012000E061
:101F600000207047C143C9B2014A121D1160704779
:101F70000008065000210160704701238B40026871
:101F80001A430260704701238B4002689A43026043
:101F9000704720207047024601238B40106818408C
:101FA00008B1012070470020FCE700B50146087821
:101FB00018B10878124A105C00BD088800F47F4010
:101FC00030B10888C0F307200D4A105C0830F3E7F1
:101FD000086800F47F0030B10868C0F30740084A81
:101FE000105C1030E8E7086800F07F4028B108680E
:101FF000000E034A105C1830DEE7FFF7CAFFDBE78C
:1020000028A2000800BFEFF31081084672B670479F
:1020100000BF80F3108800BF70470020144908708B
:10202000704700B5FFF7EEFF034611480078FF2820
:1020300004DA0F480078401C0D4908701846FFF775
:10204000E7FF00BD10B5FFF7DDFF04460848007844
:10205000002808DD06480078401EC0B20449087018
:1020600008B900F0B5FB2046FFF7D2FF10BD000015
:10207000340000203EB5FFF7D0FF1648FFF77AFF87
:1020800000F0B4FC002407E004EB4401124A02EB28
:10209000810000F0F5FA641C202CF5DB0FA04FF452
:1020A00080511F22104BCDE90021029000220F49E0
:1020B0000F4800F0C1FB0E480E4908603EBD10B548
:1020C000FFF7D8FF00F074FB0B49086001F044F8FB
:1020D000002010BD54000020B052002049444C455F
:1020E0005441534B00000000704200201F2600089E
:1020F00010420020380000205C00002030B502466D
:102100001148006850434FF47A71B0FBF1F0401E63
:102110004FF0E021486148170F21002807DA0B072C
:102120001D0E0A4B00F00F04241F1D5503E00B0782
:102130001C0E074B1C5400BF00204FF0E0218861AB
:102140000720086130BD00001000002018ED00E0FD
:1021500000E400E070B504460D460421201D00F0A7
:10216000FDF8256070BD2DE9F04103460C46156869
:1021700004F0010604F0020704F0800C16B11868A0
:10218000284003E0D3F8008025EA080001460FB19B
:10219000A94201D07FB971B1BCF1000F07D01EB1C7
:1021A00018688843186002E01868084318601160D6
:1021B0000020BDE8F08111600120FAE72DE9FC471D
:1021C00006460F4614461D46DDF828800194FFF7A9
:1021D00019FF824601AA39463046FFF7C4FF8146FF
:1021E000B9F1010F24D15C48006887655A4800683E
:1021F000C4654FF4002300225748CDF800800168E1
:10220000301D00F0D9F800F0E3FA5046FFF700FF68
:1022100051480068C06D286000204F490968C865B2
:102220004D490968C8654C480068406DBDE8FC87A9
:10223000019828605046FFF7EBFE0020F6E72DE9F5
:10224000F84306460F4615461C460095FFF7DAFE92
:1022500081466A4639463046FFF785FF8046B8F129
:10226000000F07D1009820604846FFF7D1FE0020FC
:10227000BDE8F883009820604846FFF7C9FE0220B9
:10228000F6E72DE9F84F04460E4690460EB9BDE834
:10229000F88FB8F1000F03D020683043206002E0CF
:1022A0002068B04320604FF00009FFF7ABFE824684
:1022B000E7681BE0A7F124057F68E86D00906A4697
:1022C0002046A96DFFF74FFF78B90098E865002315
:1022D0001A462946201D00F0C5F81F49A86B096859
:1022E000896B884201D24FF0010900BF04F1080058
:1022F0008742DFD1B9F1000F01D000F069FA5046F2
:10230000FFF786FE00BFC2E770B50446FFF77AFE0E
:10231000064603220021201D00F0DFF8051E01D033
:1023200000F056FA3046FFF773FE284670BD7CB5C4
:1023300005460C46FFF766FE06462068009004F14D
:10234000080000F0A2F901903046FFF761FEDDE9D8
:102350000001C5E900017CBD5800002070B50446AD
:102360000D462570201D00F08BF970BD2DE9F04160
:1023700004460D46201D00F088F928B905F1240116
:10238000201D00F0C0F915E0666810E0A6F12407F2
:10239000A86BB96B884201D2366807E005F12402C8
:1023A0003146201D00F0DBF9BDE8F08100BF201DA3
:1023B0008642EBD100BFF7E72DE9F04705460C4612
:1023C00016461F46DDF82080FFF71CFE8146606B35
:1023D00038436063E564266500206065204600F0B0
:1023E0000AFB21462846FFF7C1FFB8F1000F03D0D2
:1023F0004146204600F02AFB4846FFF709FEBDE8AB
:10240000F0872DE9F04705460E4617460024FFF7F2
:10241000F9FD8146A046281D00F081F9B0F10008C1
:1024200001D0A8F124042CB94846FFF7F1FD0020A3
:10243000BDE8F0870020E06426656765606B20F4E6
:102440007F00606394F8340000F0020010B1204671
:1024500000F013FB204600F0DCF94846FFF7D8FDFA
:102460002046E5E72DE9F04107460C4615461E4695
:1024700004F12401381D00F085F90020E064256591
:102480006665606B20F47F00606394F8340000F0B0
:10249000020010B1204600F0F0FA204600F0B9F931
:1024A000BDE8F0812DE9F04104460D461646FFF7E0
:1024B000A9FD0746E16C081D04F1240100F062F952
:1024C0000020E06425656665606B20F47F00606332
:1024D0003846FFF79DFDBDE8F0812DE9F047044641
:1024E0000F469046FFF78EFD8246201D00F0CDF886
:1024F0008146A56813E0A5F124066D684246394679
:102500003046FFF7CFFF96F8340000F0020010B11C
:10251000304600F0B2FA304600F07BF900BF201DD3
:102520008542E8D15046FFF773FD4846BDE8F08785
:1025300070B504460025FFF765FD0646201D00F036
:10254000A4F805463046FFF763FD284670BD00003D
:102550000348007800B130BF70477047704770473C
:102560003500002010B52DED0A8B3C48006840B9BD
:1025700001203A490860002039490860BDEC0A8B07
:1025800010BD37480068401C35490860084600689F
:1025900064280BD133480068334908600020314972
:1025A000086000F0CFFBFFF74DFD30E02C480068DD
:1025B0006421B0FBF1F201FB120040BB2A48006825
:1025C00007F02FFB41EC1A0B2648006807F029FBA7
:1025D00041EC1C0B9FED250B53EC102B07F070FB0F
:1025E00041EC1B0B53EC1A2B07F066F941EC190B6D
:1025F0009FED1E0B53EC102B07F096FC41EC180BD3
:1026000007F074F81B49086000201649086000BFF5
:10261000B4E700BF114800680028FBD07047FFF7FF
:1026200000FD00F0CFFBFDF7DBFE0A20FFF766FDA3
:10263000FFF7EFFF0DE0FFF7E5FC044609480068EF
:10264000401C084908602046FFF7E2FCFFF780FFC6
:1026500000BFF0E7074890ED000A70474C000020EB
:10266000400000203C00002044000020000000004A
:10267000000059404800002000210160416070477F
:1026800040600060002181607047014688687047A3
:102690000146886808B9002070474868FCE7014691
:1026A000886808B9002070470868FCE70246086897
:1026B000904201D1002070470868FCE70246486854
:1026C000904201D1002070474868FCE710B543688C
:1026D000826805E019465B6800240C604C60521E5D
:1026E000002AF7DC002181604060006010BD426874
:1026F00012680A6042684A604268116041608268FC
:10270000521C82607047026852684A6002680A6020
:102710000268516001608268521C82607047014605
:102720004A68886808B900207047486800684B68A4
:102730005B6818604868406848608868401E886028
:102740001046F1E710B502460023506803E08142CD
:1027500000D1012340689042F9D1184610BDF0B570
:1027600006460C46154621463046FFF7EBFF074666
:102770002C6060686860606805606560B068401CD7
:10278000B060F0BD70B505460C4621462846FFF7FF
:10279000D9FF0646012E00D070BDD4E900010860C3
:1027A000D4E900104860A868401EA86000BFF3E7A5
:1027B00070B5F748FFF7F9FB044604EB4401F54A0E
:1027C00002EB8100FFF764FF0546A5F1240070BD10
:1027D00070B5FFF717FC0546EF480078002803DDC9
:1027E0002846FFF715FC70BDFFF7E2FF0446EB48F3
:1027F0000068844208D0EA4804600168E74800683D
:10280000FFF7ACFE00F0C0FC2846FFF701FC00BF5C
:10281000E9E710B50446A16B01EB4101DD4A02EB8B
:10282000810004F12401FFF76EFF01206063D848A6
:10283000A16BFFF7A2FB10BD2DE9F05F04468846AF
:1028400091461E46DDE90B7BDDF828A06660A76097
:102850003946304606F00DFDB80806EB8005483DC8
:102860004FF08071281F05460160281F0546C0F8FB
:1028700000801421281F054601601221281F0546EB
:1028800001600321281F054601600221281F05461B
:1028900001600121281F05460160281F0546C0F878
:1028A00000901121281F054601601021281F0546B0
:1028B00001600921281F054601600821281F0546DF
:1028C00001600721281F054601600621281F0546D3
:1028D00001600521281F054601600421281F0546C7
:1028E0000160256000202062C4F838A001206063E8
:1028F0000A20E061594604F10C0006F045FC002076
:10290000E0632064606484F84800E06420656065EA
:1029100004F12C00FFF7B0FE04F12400FFF7ACFE39
:10292000A04801680068401C9E4A10609E4840F81C
:1029300021402046FFF76DFF2046FFF710FE974825
:1029400000689A490968884207D094480068806BFB
:10295000A16B884201D9FFF73BFFBDE8F09F2DE94D
:10296000F041FFF74FFB06468B480078002804DD56
:102970003046FFF74DFBBDE8F0818548FFF715FBBA
:10298000044686480068806BA04210D104EB4401E5
:10299000804A02EB8100FFF7C2FE074604EB4401C8
:1029A0007C4A02EB81003946FFF7ADFE00BF04EB25
:1029B0004401784A02EB8100FFF76AFE0546A5F163
:1029C0002400774908600846016874480068FFF7EA
:1029D000C5FD7348006871490968884201D000F05C
:1029E000D3FB3046FFF714FB00BFC4E710B57048B7
:1029F000FFF746FE10BD10B50446A16B01EB410187
:102A0000644A02EB810004F12401FFF79BFE00B948
:102A100010BDA16B01EB41015E4A02EB810004F1A4
:102A20002401FFF7AFFE606B20F001006063A16B33
:102A300001EB4101574A02EB8100FFF726FE18B96E
:102A40005348A16BFFF79FFA00BFE1E770B504465A
:102A50000D460A2D00D20A25681D0A21B0FBF1F0AF
:102A60004E490968086204F12C015148FFF73FFE06
:102A7000606B40F00200606370BD10B5044604F165
:102A80002C014B48FFF75EFE00B910BD04F12C018C
:102A90004748FFF777FE00202062606B20F00200BD
:102AA000606300BFF1E770B50446FFF7ABFA054677
:102AB00094F8340000F0020018B12846FFF7A8FA95
:102AC00070BDE16B481CE06361B92046FFF793FFDE
:102AD000606B40F00400606330480068844201D1BC
:102AE000FFF776FE2846FFF793FA00BFE8E770B5D8
:102AF0000446FFF787FA054694F8340000F0040016
:102B000090B1E06B401EE06370B9606B20F0040090
:102B100060632046FFF77DFE2049A06B0968896B42
:102B2000884201D2FFF754FE2846FFF771FA70BDC4
:102B300001644264704770B50446FFF763FA0546C6
:102B400094F8340000F0020018B12046FFF795FF1A
:102B500007E094F8340000F0040010B92046FFF7B5
:102B60004AFF206C10B1D4E9101088470B48006868
:102B7000844201D1FFF72CFE2846FFF749FA70BDC9
:102B8000012180F848107047014691F848007047CD
:102B900054000020B05200203400002058000020D3
:102BA0005C000020500000207052002038000020FF
:102BB0003054002010B5FFF725FA0446234800687A
:102BC000FFF719FF21480068006C30B11F4A1268F6
:102BD000506C1E4A1268116C8847FFF7F9FD2046B9
:102BE000FFF716FA10BDF0B589B006460C46FFF7A0
:102BF00009FA074604F10C000190A06B0490E0690B
:102C00000390606B0290E06B0590A0680690D4E999
:102C10000001401A8010800008900020079065682D
:102C200002E00798401C079002CD11B92068A84225
:102C3000F7D20798800007903846FFF7E9F920227D
:102C400001A9304606F0E3FA09B0F0BD58000020B3
:102C500070B504460A2C00D20A24FFF7D3F90546C2
:102C6000214635480068FFF7F1FE33480068FFF75A
:102C7000C2FEFFF7ADFD2846FFF7CAF970BD70B57B
:102C8000FFF7C0F906462D48456813E0A5F12C046E
:102C9000206A401E206260B9E06C20B10122002150
:102CA0002046FFF7FFFB2046FFF7E7FE2046FFF731
:102CB000B0FD6D6821488542E8D11F480068C069B1
:102CC000401E1D490968C86130BB1B490968896BF2
:102CD00001EB41011A4A02EB8100FFF7D6FC012803
:102CE00016D915490968896B01EB4101144A02EBB9
:102CF0008100FFF714FD10490968896B01EB410160
:102D00000F4A02EB81000C4909682431FFF7FBFCF4
:102D10000A2009490968C8613046FFF779F9FFF7C9
:102D200021FC00F047F8FFF718FCFFF751FD70BDDC
:102D300010B5FFF7A4FF10BD58000020305400204C
:102D4000B05200200020A5490861704770B50546C3
:102D50006E681CE034462069C0B12069401E2061C5
:102D6000A0B9022084F82000D4E90510884701208A
:102D700084F82000E06810B1E068206106E0214698
:102D80002846FFF7FFFC032084F820007668AE4257
:102D9000E0D170BD0DE00021904800F046F900211F
:102DA0008F4800F042F98F48FFF7D0FF8C4800F0C1
:102DB00072F9F0E710B58C48FFF7C8FF874800F0BC
:102DC0006AF910BD0EB58848FFF75AFC8548FFF731
:102DD00057FC01221146824800F014F900221146E6
:102DE0007E4800F00FF981A04FF480510122824B00
:102DF000CDE900210290002280498148FFF71CFDA7
:102E00000EBD2DE9F04704460D4616461F46DDE986
:102E100008892046FFF730FCA560E6606761C4F8CA
:102E20001880C4F81C900DB9266101E0A0682061EB
:102E3000002084F82000BDE8F08770B5044694F8BF
:102E4000200018B194F8200003282BD1207F00F037
:102E5000010098B1FFF7D6F8054621466248FFF712
:102E600052FC012084F82000A06808B1A06800E0AE
:102E7000E06820612846FFF7CBF813E000215848AE
:102E800000F0D3F821465748FFF73DFC012084F8B5
:102E90002000A06808B1A06800E0E0682061504808
:102EA00000F0F9F870BD70B5044694F820000228CF
:102EB00003D094F8200001281FD1207F00F00100EA
:102EC00068B1FFF79FF8054621464748FFF75AFCCF
:102ED000032084F820002846FFF79AF80DE000212F
:102EE0003F4800F0A2F821463E48FFF74BFC032084
:102EF00084F820003A4800F0CEF870BD70B5044662
:102F000094F8200003281FD1207F00F0010068B151
:102F1000FFF778F8054621463348FFF7F4FB012018
:102F200084F820002846FFF773F80DE000212C48B4
:102F300000F07BF821462B48FFF7E5FB012084F8E1
:102F40002000274800F0A7F870BD70B5044694F83B
:102F50002000022803D094F8200001281FD1207FF0
:102F600000F0010068B1FFF74DF8054621461E4804
:102F7000FFF708FC042084F820002846FFF748F8F3
:102F80000DE00021164800F050F821461548FFF7E3
:102F9000F9FB042084F82000114800F07CF870BD93
:102FA00070B586B005460C46FFF72CF80646A068BB
:102FB0000090E06801906069029094F820008DF81C
:102FC0001400A06903903046FFF722F818226946E2
:102FD000284606F01CF906B070BD00006C540020B5
:102FE00054540020485400203C54002054494D457E
:102FF000525441534B000000E4540020952D00082A
:103000008454002070B504460E4615460121204622
:10301000FFF7A4F965610DB9266105E0B54201D954
:10302000304600E02846206170BDF8B504460D46E4
:10303000FEF7E8FF0646206938B12069401E20618E
:103040003046FEF7E5FF0020F8BD4FF48033002244
:103050003A48009501682046FFF7AEF93046FEF782
:10306000D7FFFFF7B5FB35480068406DECE770B55A
:103070000446FEF7C7FF0546206938B12069401EA7
:1030800020612846FEF7C4FF002070BD2846FEF7E9
:10309000BFFF0220F9E770B50446FEF7B3FF06460E
:1030A0002046FFF745FA70B1002211462046FFF78F
:1030B000A8F905462149A86B0968896B884201D2A5
:1030C000FFF786FB0AE02069401C2061606928B197
:1030D000D4E90401884201D9606920613046FEF7D5
:1030E00097FF70BD70B50446FEF78CFF06460322BD
:1030F00000212046FFF7F1F90546002020610DB1BF
:10310000FFF766FB3046FEF783FF284670BDFEB52D
:1031100005460C46FEF776FF06462069009060697A
:1031200001902046FFF704FA02903046FEF770FF48
:103130009DE8070085E80700FEBD0000580000205C
:10314000002080F3098800BFFF2012490870C806DC
:1031500010491E39086070472220C0F580620E4B6E
:1031600003EB820181F3098800BFC0F580611A4634
:1031700002EB8101094A1160FF21064A1170C10664
:10318000044A1E3A116070474FF0805001491E39C1
:103190000860704722ED00E07042002058000020D7
:1031A00070B5044610214048FDF7C4FB08B901255D
:1031B00000E0002508213C48FDF7BCFB08B90120D0
:1031C00000E0002045EA400504213748FDF7B2FB46
:1031D00008B9012000E0002045EA800501213348BC
:1031E000FDF7A8FB45EAC000314908603148007886
:1031F00010B1012820D106E02D48006810B101204F
:103200002C49087019E02A48006818B9002029499B
:10321000087010E02648006827490968084000B98E
:103220000BE023480068244A126800EA02010122E8
:103230002248FFF726F800E000BF00BF1C480068E6
:103240001D49086070BD1FB500211C48FEF782FFB4
:10325000012000211A4B0D22CDE90010174814302F
:10326000FFF7CFFD01211120FEF784F81C2002900A
:1032700000208DF80C0003208DF80D0001208DF842
:103280000F0002A90848FDF7F3FA0120029002207E
:103290008DF80F0002A90548FDF7EAFA0748143037
:1032A000FFF7CBFD1FBD00000010024000000240F0
:1032B000640000206800002060000020E864002016
:1032C000A13100081CB523E0002001AB0F228121B1
:1032D00000901848FEF772FF019800F0010010B14D
:1032E00015A005F0F7FD019800F0020010B115A03F
:1032F00005F0F0FD019800F0040010B114A005F0F5
:10330000E9FD019800F0080010B114A005F0E2FDFD
:10331000DAE70EB5FFF797FF14A04FF40071012212
:10332000144BCDE900210290002213491348FFF706
:1033300083FA0EBDE86400204B45593020444F57B6
:103340004E0D0A004B45593120444F574E0D0A008F
:103350004B45593220444F574E0D0A004B455955A5
:103360005020444F574E0D0A000000004558455666
:10337000454E540080650020C532000820650020BD
:103380001CB501212020FDF7F5FF4FF4C06000902F
:1033900001208DF8040000208DF8060003208DF830
:1033A000050001208DF8070069462148FDF760FA05
:1033B0004FF4C0611E48FDF7D7FA1CBD1CB50121B2
:1033C0002020FDF7D7FF4FF48070009001208DF88A
:1033D000040000208DF8060003208DF8050002206F
:1033E0008DF8070069461248FDF742FA4FF48071E4
:1033F0000F48FDF7BBFA1CBD10B5FFF7C1FFFFF783
:10340000DDFF10BD0B4B03EB8002C2F8801270474A
:1034100070B50446FEF7F6FD0646064901EB84004A
:10342000D0F88002C5B23046FEF7F2FD284670BDE6
:10343000001402400080424200B58DB001210846D0
:10344000FDF798FF01210802FDF7EEFF20200B9009
:1034500003208DF8300001208DF833000BA953486C
:10346000FDF706FA01210802FEF733F800214FF4B8
:103470008070FEF72EF80120FEF769FB0020079010
:103480000A9009904FF48030089007A8FEF72AFBB5
:10349000002001908DF808008DF809000390059038
:1034A00001208DF8180001A94148FEF7ECFA072326
:1034B000012205213E48FEF76CFB07230122102163
:1034C0003B48FEF766FB01213948FEF722FB0DB0B1
:1034D00000BD10B504460723012221463448FEF7FB
:1034E00058FB3348FEF7B1FB00BF02213048FEF71E
:1034F000CDFC0028F9D02E48FEF7E3FB10BD2DE9E6
:10350000F04107460C460025002608E03846FFF744
:10351000E0FF05440A20FFF79BFB701CC6B2A642E1
:10352000F4DBB5FBF4F080B2BDE8F08110B52DED11
:10353000088B05211020FFF7E2FF08EE100AB8EE15
:10354000480A10EE100A06F0E5FD41EC1A0B9FED5B
:10355000190B53EC102B06F0B3FB41EC190B9FED4C
:10356000170B53EC102B51EC190B06F0E9FC41EC56
:103570001B0B9FED140B53EC102B06F09DF941EC47
:103580001A0B9FED120B53EC102B06F0E1F841ECF7
:10359000190B9FED100B53EC102B51EC190B06F08F
:1035A0008FFB41EC100BBDEC088B10BD00000240FE
:1035B000002001406666666666664A3F52B81E8510
:1035C000EB51E83F7B14AE47E17A643F0000000016
:1035D00000003940000000000000594000B58BB0E9
:1035E00001218802FDF720FF01218802FDF771FF0C
:1035F00000214FF48060FDF76CFF002007900A90D7
:1036000009904FF48030089007A8FEF76BFA00206D
:1036100001908DF808008DF80900039005900120B5
:103620008DF8180001A92848FEF72DFA0121264837
:10363000FEF76FFA0BB000BD10B504460723012258
:1036400021462148FEF7A5FA1F48FEF7FEFA00BF03
:1036500002211D48FEF71AFC0028F9D01A48FEF78F
:1036600030FB10BD1CB501212020FDF783FE80201A
:10367000009003208DF8040000208DF807006946B3
:103680001248FDF7F5F8FFF7A9FF1CBD70B500243F
:10369000002508E00520FFF7CFFF04440A20FFF7CC
:1036A000D7FA681CC5B2052DF4DB0520B4FBF0F495
:1036B000B4F57A6F01D94FF47A642820B4FBF0F0A6
:1036C000C0F16400C0B270BD00220140001402408D
:1036D00010B5002401214020FDF75DFE0120FEF71A
:1036E00003FC04E0601C84B26420FFF7B1FA0120FF
:1036F000FEF71CFC18B942F210708442F2DB42F271
:103700001070844201DB012010BD0020FCE710B5E1
:1037100000BF0120FEF70AFC0028FAD0FEF7F3FBF9
:1037200010BD70B504460D46FFF7F1FF291B491C7B
:10373000B0FBF1F201FB1200204470BD00B587B070
:1037400001210846FDF716FE01211020FDF76CFE51
:1037500007220921A348FDF716F907220A21A148EB
:10376000FDF711F94FF4C060059002208DF81800A4
:103770008DF8190000208DF81A0001208DF81B002B
:1037800005A99848FDF774F84FF47A3001900020AD
:10379000ADF80800ADF80A00ADF80C00ADF8100067
:1037A0000C20ADF80E0001A98F48FDF79EFF012106
:1037B0008D48FEF722F8012240F225518A48FEF793
:1037C000D2F8252000F01F02012191404209920009
:1037D00002F1E022C2F8001100BF07B000BD10B531
:1037E000FFF7ACFF202200218048FFF70BFC4FF4CD
:1037F000806211467E48FFF705FC10BD70B5044697
:103800000E461AE000217948FFF70FFCFEF7FAFB9D
:103810000546784801680068401C764A1060764882
:10382000405C04F8010B10460068202802D30020F9
:10383000114608602846FEF7EBFB301EA6F1010694
:10384000E0D170BD70B586B004460D463BE0FEF792
:10385000D9FB064666496846FFF759FC9DE8070014
:1038600003AB07C350B93046FEF7D2FB00216048D6
:10387000FFF7DBFBFEF7C6FB064603E000215C48D2
:10388000FFF7D3FB14F8011B5C4802680068401C7A
:103890005A4B18605A48815418460068B0F5806F3A
:1038A00002D30020194608603046FEF7B1FB8021A4
:1038B0004D48FEF77DF8012805D1012240F227711D
:1038C0004948FEF750F8281EA5F10105BFD106B002
:1038D00070BD3EB540F225514348FEF77FF80446DF
:1038E000012C23D14048FDF7B7FF05463F49684604
:1038F000FFF70DFCDDE90001884211D24148026862
:103900000068401C3F4B18603B48855418460068CF
:10391000202802D30020194608603448FFF7BBFB7B
:1039200040F225513048FEF794F800BF40F227716D
:103930002D48FEF753F80446012C2BD12C4968463C
:10394000FFF7E5FBDDE90001884217D22E48016848
:103950000068401C2C4A10602948455C10460068ED
:10396000B0F5806F02D30020114608602048FFF7B1
:1039700092FB29461C48FDF76BFF05E0002240F250
:1039800027711948FDF7EFFF40F227711648FEF73F
:1039900060F800BF3EBD1D49086070471C490870B3
:1039A0007047704700BF704713B50C461748006852
:1039B00008B100201CBD1648007860B10098C1B263
:1039C0000948FDF745FF00BF80210748FDF7F0FFDC
:1039D0000028F9D003E001216846FFF733FF009883
:1039E000E8E700000000024000100140A06B00204A
:1039F000B86B002070000020806700207400002059
:103A0000A06700206C000020780000207C000020CF
:103A10008000002001B5BDF800000090BDF8000056
:103A2000FE49088008BD01B5BDF800000090BDF852
:103A30000000FA49891C088008BD08B5F748801CB9
:103A400000880090BDF8000008BDF44A10804FF0D7
:103A5000D842A2F88010704700B502461046FFF722
:103A6000D9FF002000E0401C42F210718842FADBCE
:103A7000FFF7E3FF00BDEA480089E8490880704786
:103A8000E649891C0880704730B5014601F01F04E3
:103A9000C1F34513CA0AE50205EB43151544A8B264
:103AA00030BD00BF011EA0F10102D0B2FAD17047B3
:103AB00010B502460C46DA48808841F66311884208
:103AC00047D1D7488079A8B9D5480088401E801AC8
:103AD00082B2D3494889FFF79DFF0020FFF7A3FF7B
:103AE0000020FFF7A0FF1012FFF79DFFD0B2FFF7F5
:103AF0009AFF16E0CA494889FFF78CFF1012FFF7BA
:103B000092FFD0B2FFF78FFFC5490988491EC1F364
:103B10000F20FFF788FFC2490978491EC8B2FFF796
:103B200082FFBF498889FFF775FF2012FFF77BFFEF
:103B3000E0B2FFF778FFBA494988491EC1F30F2068
:103B4000FFF771FFB6498978491EC8B2FFF76BFFCE
:103B50003AE0B348808845F21051884220D1B049FC
:103B60004889FFF757FF1012FFF75DFFAC494989FD
:103B7000491C88B2FFF74EFFD0B2FFF754FFA849A7
:103B80008889FFF747FF2012FFF74DFFA449898975
:103B9000491C88B2FFF73EFFE0B2FFF744FF13E095
:103BA0009F494889FFF736FF1012FFF73CFFD0B25C
:103BB000FFF739FF9A498889FFF72CFF2012FFF79A
:103BC00032FFE0B2FFF72FFF10BD2DE9F0410546AF
:103BD0000E4600240027A04691480088A84203DD35
:103BE0008F484088B04202DC0020BDE8F0813146B9
:103BF0002846FFF75DFF8A48808845F210518842C9
:103C000004D14FF43850FFF705FF02E02E20FFF7F4
:103C100001FFFFF712FF04468148808841F66311D7
:103C2000884201D12046E0E7FFF707FF0446FFF78F
:103C300004FF8046E7B24FF6FF7000EA0727E01264
:103C4000C002B91240EA411040EAE820CDE700B5D1
:103C50007348808845F21051884204D14FF42450B3
:103C6000FFF7D8FE02E02920FFF7D4FE00BD00B523
:103C70006B48808845F21051884204D14FF420509F
:103C8000FFF7C8FE02E02820FFF7C4FE00BDF0B534
:103C900005460024002762488079012805D1604844
:103CA000808841F66311884208D15D488079F0B977
:103CB0005B48808841F66311884218D1082D15D2DF
:103CC000DFE805F00406080A0C0E101206250DE0C8
:103CD00007250BE0042509E0052507E0012505E09F
:103CE000002503E0032501E0022500BF00BF082DE9
:103CF0001CD2DFE805F00406090C0F12151800BFEE
:103D000014E044F0800411E044F040040EE044F07C
:103D1000C0040BE044F0200408E044F0600405E037
:103D200044F0A00402E044F0E00400BF00BF3C48BF
:103D3000808845F21051884202D14FF4585700E074
:103D400036273748808849F24131884205D03448C7
:103D5000808847F28971884201D144F008042146E5
:103D60003846FFF772FE2E48808841F6631188427C
:103D70001DD004F0200068B12948008828494988EE
:103D8000884214DA26480688408825490880084673
:103D900046800CE02248008821494988884206DD97
:103DA0001F48068840881E490880084646801C48EF
:103DB000808845F21051884257D119494889FFF748
:103DC00029FE0020FFF72FFE15494989491C88B2BA
:103DD000FFF720FE0020FFF726FE11494989891CC4
:103DE00088B2FFF717FE0E490988491EC1F30F205C
:103DF000FFF719FE0A494989C91C88B2FFF70AFE74
:103E000007490978491EC8B2FFF70DFE04498889A1
:103E1000FFF700FE0020FFF706FE03E07E00006CC7
:103E2000D06B0020FE498989491C88B2FFF7F2FD5A
:103E30000020FFF7F8FDFA498989891C88B2FFF74D
:103E4000E9FDF7494988491EC1F30F20FFF7EBFD53
:103E5000F3498989C91C88B2FFF7DCFDF0498978EC
:103E6000491EC8B2FFF7DFFD2DE0ED494889FFF795
:103E7000D1FD0020FFF7D7FD0020FFF7D4FDE84972
:103E80000988491EC1F30F20FFF7CDFDE4490978E9
:103E9000491EC8B2FFF7C7FDE1498889FFF7BAFD9F
:103EA0000020FFF7C0FD0020FFF7BDFDDC49498879
:103EB000491EC1F30F20FFF7B6FDD9498978491E85
:103EC000C8B2FFF7B0FDF0BD30B504460D46294637
:103ED0002046FFF7EDFDFFF7CEFDD2480088D2491E
:103EE000088030BD30B504460D46CD48808845F287
:103EF0001051884220D1CA494889FFF78BFD201212
:103F0000FFF791FDC6494989491C88B2FFF782FD38
:103F1000E0B2FFF788FDC2498889FFF77BFD2812D0
:103F2000FFF781FDBE498989491C88B2FFF772FD00
:103F3000E8B2FFF778FD42E0B948808841F66311A6
:103F4000884228D1B648807920B9B5480088401EFB
:103F5000001B84B2B2494889FFF75CFD2012FFF7CD
:103F600062FDE0B2FFF75FFD2012FFF75CFDE0B2FB
:103F7000FFF759FDAA498889FFF74CFD2812FFF782
:103F800052FDE8B2FFF74FFD2812FFF74CFDE8B2F3
:103F9000FFF749FD13E0A2494889FFF73BFD2012D6
:103FA000FFF741FDE0B2FFF73EFD9D498889FFF72D
:103FB00031FD2812FFF737FDE8B2FFF734FD9848CE
:103FC00000899949891E08804FF0D840A0F88020C8
:103FD00030BD70B52DED048B0446BE20FFF71AFDF1
:103FE0000520FFF720FD204605F01BFE41EC190BD4
:103FF0009FED8E0B53EC102B05F062FE41EC180B7D
:1040000005F0E2FD85B22846FFF70DFD0120FFF720
:104010000AFDFF20FFF707FD0020FFF704FD002049
:10402000FFF701FDBDEC048B70BD10B504467C4864
:104030008471002C45D1F020794908804FF4A0709C
:1040400048800846808845F21051884210D14FF4CC
:104050003050734908814FF4285048814FF42C5058
:1040600088814FF4F07008804FF4487048801AE05F
:104070006B48808841F6631188420DD12C20684935
:1040800008812B2048812A2088814FF4F070088015
:104090004FF44870488006E02C20614908812A20AE
:1040A00048812B2088815E48808845F21031884203
:1040B0004CD14FF4A0705A4908804FF4F0704880FA
:1040C00044E04FF4A07056490880F020488008462C
:1040D000808845F21051884210D14FF43050504939
:1040E00008814FF4285048814FF42C5088814FF4B8
:1040F000487008804FF4F07048801AE04848808883
:1041000041F6631188420DD12C20454908812A20AF
:1041100048812B2088814FF4487008804FF4F0705C
:10412000488006E02C203E4908812A2048812B2027
:1041300088813B48808845F21031884206D14FF48F
:10414000F070374908804FF4A07048800020FFF7D6
:104150009EFD10BD2DE9F04104460D461E46A018F7
:10416000401E87B2A819401E1FFA80F82C4880888C
:1041700041F66311884231D12948807901282DD038
:1041800027480088801A001B84B2A819401E86B2F6
:1041900023494889FFF73EFC2012FFF744FCE0B2B8
:1041A000FFF741FCA118491EC1F30F20FFF73BFCAC
:1041B000A118491EC8B2FFF736FC19498889FFF7D4
:1041C00029FC2812FFF72FFCE8B2FFF72CFC301275
:1041D000FFF729FCF0B2FFF726FC79E01048808851
:1041E00045F21051884251D10D494889FFF712FC20
:1041F0002012FFF718FC0A494989491C88B2FFF7C9
:1042000009FCE0B2FFF70FFC05494989891C88B217
:10421000FFF700FC3812FFF706FC0149498909E065
:10422000D06B0020880000208000006C6666666607
:1042300066660440C91C88B2FFF7ECFBF8B2FFF7D2
:10424000F2FBFE498889FFF7E5FB2812FFF7EBFB3D
:10425000FA498989491C88B2FFF7DCFBE8B2FFF70D
:10426000E2FBF6498989891C88B2FFF7D3FB4FEA44
:104270002820FFF7D8FBF1498989C91C88B2FFF7CC
:10428000C9FB08F0FF00FFF7CEFB21E0EB494889AE
:10429000FFF7C0FB2012FFF7C6FBE0B2FFF7C3FB3E
:1042A0003812FFF7C0FBF8B2FFF7BDFBE34988897E
:1042B000FFF7B0FB2812FFF7B6FBE8B2FFF7B3FB3E
:1042C0004FEA2820FFF7AFFB08F0FF00FFF7ABFB3A
:1042D000BDE8F08170B504460026D84805884088BE
:1042E000454300210846FFF7E3FBFFF7C4FB00BF8F
:1042F00002E0D3480480761CAE42FAD370BD00B50C
:10430000A1B00020209001217A20FDF733F801218F
:104310000846FDF767F84FF400401E9001208DF825
:104320007C0000208DF87E0002208DF87D000120A9
:104330008DF87F001EA9C348FCF79AFA4CF233703F
:104340001E9002208DF87C0000208DF87E00032056
:104350008DF87D0001208DF87F001EA9BA48FCF77A
:1043600087FA4FF680701E9002208DF87C000020A6
:104370008DF87E0003208DF87D0001208DF87F00F0
:104380001EA9B248FCF774FA4FF480501E90022028
:104390008DF87C0000208DF87E0003208DF87D00D4
:1043A00001208DF87F001EA9A948FCF761FA4FF49F
:1043B00080501E9002208DF87C0000208DF87E0039
:1043C00003208DF87D0001208DF87F001EA9A148F3
:1043D000FCF74EFA0C2200219B48FCF7D4FA0C2281
:1043E00001219948FCF7CFFA0C2204219648FCF7EA
:1043F000CAFA0C2205219448FCF7C5FA0C220821C0
:104400009148FCF7C0FA0C2209218F48FCF7BBFA4F
:104410000C220A218C48FCF7B6FA0C220E218A489D
:10442000FCF7B1FA0C220F218748FCF7ACFA0C22FA
:1044300007218648FCF7A7FA0C2208218348FCF7DD
:10444000A2FA0C2209218148FCF79DFA0C220A21CC
:104450007E48FCF798FA0C220B217C48FCF793FA73
:104460000C2211467948FCF78EFA0C220D21774870
:10447000FCF789FA0C220E217448FCF784FA0C220E
:104480000F217248FCF77FFA0C2211467048FCF7A6
:104490007AFA0C2211466F48FCF775FA0F20089043
:1044A000002009903C200A9000200B900C900D9069
:1044B0000E90092001900020029008200390002017
:1044C000049005900690079006200F900020109011
:1044D00011901020129000201390159014901690B7
:1044E00017904FF480501890002019904FF480409E
:1044F0001A9000201B9008A81C9001A81D900FA8DE
:10450000FCF795FA01210620FCF71CFB3220FEF790
:104510009FFBD320FFF77EFAFFF78FFA4749888089
:10452000FFF78BFA45498880FFF787FA434988806F
:10453000084680884FF6FF7101EA00203F498880D5
:10454000FFF77BFA3D49898808433C498880084643
:10455000808849F2413188426FD00420FFF75AFA2F
:10456000FFF76BFA35498880FFF767FA334988808F
:10457000FFF763FA31498880084680884FF6FF715B
:1045800001EA00202D498880FFF757FA2B498988D6
:1045900008432A4988800846808848F25251884258
:1045A00003D147F28970254988802448808847F2E2
:1045B00089718842D0D0D420FFF72CFAFFF73DFA5A
:1045C0001E498880FFF739FA1C498880FFF735FAC1
:1045D0001A498880084680884FF6FF7101EA00205A
:1045E00016498880FFF729FA144989880843134936
:1045F00088800846808845F21031884279D055215C
:104600004FF47040FFF721FAAA214FF20100FFF7A3
:104610001CFA52214FF20200FFF717FA08214FF25D
:104620000300FFF712FA01214FF20400FFF70DFA21
:104630004FF44540FFF7EEF90EE05AE0D06B002052
:104640008000006C00040240000C02400010024098
:104650000014024000180240FFF7EFF9FE4988807D
:10466000084680884FF6FF7101EA0020FA498880E9
:104670004CF20150FFF7CEF9FFF7DFF9F6498988D0
:104680000843F54988800A20FEF7E2FAF24880885C
:10469000B0F5004F03D145F21050EF498880EE4845
:1046A000808845F21051884223D0A120FFF7B2F94B
:1046B000FFF7C3F9E8498880FFF7BFF9E64988802A
:1046C000084680884FF6FF7101EA0020E2498880A1
:1046D000FFF7B3F9E04989880843DF498880084635
:1046E000808845F26171884203D141F66310DA494E
:1046F0008880D948808849F24131884217D0D6480D
:10470000808847F28971884211D0D348808845F269
:10471000103188420BD0D048808845F21051884231
:1047200005D0CD48808841F6631188422CD1CB4812
:10473000006820F00F004FF02041C1F81C0108462E
:10474000D0F81C0120F47060C1F81C010846D0F8B4
:104750001C0140F00300C1F81C01BF48808847F2EB
:104760008971884208D1BD48006840F440704FF01C
:104770002041C1F81C0107E0B848006840F400700F
:104780004FF02041C1F81C01B348808849F2413103
:1047900088427CD1CF20FFF73DF90020FFF743F995
:1047A000C120FFF740F93020FFF73DF9ED20FFF77A
:1047B00031F96420FFF737F90320FFF734F91220AD
:1047C000FFF731F98120FFF72EF9E820FFF722F9F2
:1047D0008520FFF728F91020FFF725F97A20FFF749
:1047E00022F9CB20FFF716F93920FFF71CF92C200E
:1047F000FFF719F90020FFF716F93420FFF713F936
:104800000220FFF710F9F720FFF704F92020FFF747
:104810000AF9EA20FFF7FEF80020FFF704F900206C
:10482000FFF701F9C020FFF7F5F81B20FFF7FBF8B1
:10483000C120FFF7EFF80120FFF7F5F8C520FFF7DB
:10484000E9F83020FFF7EFF83020FFF7ECF8C72049
:10485000FFF7E0F8B720FFF7E6F83620FFF7DAF8C1
:104860004820FFF7E0F83A20FFF7D4F85520FFF78B
:10487000DAF8B120FFF7CEF80020FFF7D4F81A20BD
:10488000FFF7D1F8B620FFF7C5F80A2000E099E05D
:10489000FFF7C9F8A220FFF7C6F8F220FFF7BAF831
:1048A0000020FFF7C0F82620FFF7B4F80120FFF73B
:1048B000BAF8E020FFF7AEF80F20FFF7B4F82A208F
:1048C000FFF7B1F82820FFF7AEF80820FFF7ABF8A4
:1048D0000E20FFF7A8F80820FFF7A5F85420FFF7EF
:1048E000A2F8A920FFF79FF84320FFF79CF80A20C1
:1048F000FFF799F80F20FFF796F80020FFF793F8DD
:104900000020FFF790F80020FFF78DF80020FFF758
:104910008AF8E120FFF77EF80020FFF784F81520E1
:10492000FFF781F81720FFF77EF80720FFF77BF8E5
:104930001120FFF778F80620FFF775F82B20FFF716
:1049400072F85620FFF76FF83C20FFF76CF805204F
:10495000FFF769F81020FFF766F80F20FFF763F8FC
:104960003F20FFF760F83F20FFF75DF80F20FFF7CB
:104970005AF82B20FFF74EF80020FFF754F80020DC
:10498000FFF751F80120FFF74EF83F20FFF74BF8F3
:104990002A20FFF73FF80020FFF745F80020FFF737
:1049A00042F80020FFF73FF8EF20FFF73CF8112016
:1049B000FFF730F87820FEF74BF92920FFF72AF8A7
:1049C00002F0B3B82448808847F2897188427DD1CB
:1049D0001120FFF71FF87820FEF73AF93620FFF78D
:1049E00019F80020FFF71FF83A20FFF713F8052009
:1049F000FFF719F8B220FFF70DF80C20FFF713F8B6
:104A00000C20FFF710F80020FFF70DF83320FFF718
:104A10000AF83320FFF707F8B720FEF7FBFF352031
:104A2000FFF701F8BB20FEF7F5FF3220FEF7FBFF92
:104A3000C020FEF7EFFF0C20FEF7F5FFC220FEF7C7
:104A4000E9FF0120FEF7EFFFC320FEF7E3FF102090
:104A5000FEF7E9FFC42003E0D06B00201C0100A09A
:104A6000FEF7D8FF2020FEF7DEFFC620FEF7D2FFBC
:104A70000F20FEF7D8FFD020FEF7CCFFA420FEF7D2
:104A8000D2FFA120FEF7CFFFE020FEF7C3FFD0202A
:104A9000FEF7C9FF0020FEF7C6FF0220FEF7C3FFA6
:104AA0000720FEF7C0FF0A20FEF7BDFF2820FEF713
:104AB000BAFF3220FEF7B7FF4420FEF7B4FF4220D2
:104AC000FEF7B1FF0620FEF7AEFF00E05AE00E2031
:104AD000FEF7A9FF1220FEF7A6FF1420FEF7A3FFA2
:104AE0001720FEF7A0FFE120FEF794FFD020FEF78D
:104AF0009AFF0020FEF797FF0220FEF794FF0720A1
:104B0000FEF791FF0A20FEF78EFF2820FEF78BFFAD
:104B10003120FEF788FF5420FEF785FF4720FEF77F
:104B200082FF0E20FEF77FFF1C20FEF77CFF172080
:104B3000FEF779FF1B20FEF776FF1E20FEF773FFBE
:104B40002A20FEF767FF0020FEF76DFF0020FEF72A
:104B50006AFF0020FEF767FFEF20FEF764FF2B20BF
:104B6000FEF758FF0020FEF75EFF0020FEF75BFF18
:104B70000120FEF758FF3F20FEF755FF2920FEF7E2
:104B800049FF1DE7FE48808845F21031884240F019
:104B90007C87ED20FEF73EFF0120FEF744FFFE205C
:104BA000FEF741FFEE20FEF735FFDE20FEF73BFF6C
:104BB0002120FEF738FFF120FEF72CFF0120FEF741
:104BC00032FFDF20FEF726FF1020FEF72CFFC42067
:104BD000FEF720FF8F20FEF726FFC620FEF71AFF04
:104BE0000020FEF720FFE220FEF71DFFE220FEF787
:104BF0001AFFE220FEF717FFBF20FEF70BFFAA20E7
:104C0000FEF711FFB020FEF705FF0D20FEF70BFFAA
:104C10000020FEF708FF0D20FEF705FF0020FEF73D
:104C200002FF1120FEF7FFFE0020FEF7FCFE192018
:104C3000FEF7F9FE0020FEF7F6FE2120FEF7F3FE58
:104C40000020FEF7F0FE2D20FEF7EDFE0020FEF71F
:104C5000EAFE3D20FEF7E7FE0020FEF7E4FE5D20C1
:104C6000FEF7E1FE0020FEF7DEFE5D20FEF7DBFE34
:104C70000020FEF7D8FEB120FEF7CCFE8020FEF724
:104C8000D2FE0020FEF7CFFE8B20FEF7CCFE0020E8
:104C9000FEF7C9FE9620FEF7C6FE0020FEF7C3FE13
:104CA000B220FEF7B7FE0020FEF7BDFE0020FEF7A3
:104CB000BAFE0220FEF7B7FE0020FEF7B4FE032086
:104CC000FEF7B1FE0020FEF7AEFEB320FEF7A2FE17
:104CD0000020FEF7A8FE0020FEF7A5FE0020FEF74C
:104CE000A2FE0020FEF79FFE0020FEF79CFE0020A3
:104CF000FEF799FE0020FEF796FE0020FEF793FED9
:104D00000020FEF790FE0020FEF78DFE0020FEF74B
:104D10008AFE0020FEF787FE0020FEF784FE0020BA
:104D2000FEF781FE0020FEF77EFE0020FEF77BFEF0
:104D30000020FEF778FE0020FEF775FE0020FEF74B
:104D400072FE0020FEF76FFE0020FEF76CFE0020D2
:104D5000FEF769FE0020FEF766FE0020FEF763FE08
:104D6000B420FEF757FE8B20FEF75DFE0020FEF715
:104D70005AFE9620FEF757FE0020FEF754FEA120B3
:104D8000FEF751FE0020FEF74EFEB520FEF742FE74
:104D90000220FEF748FE0020FEF745FE0320FEF746
:104DA00042FE0020FEF73FFE0420FEF73CFE0020FE
:104DB000FEF739FEB620FEF72DFE0020FEF733FE8B
:104DC0000020FEF730FEB720FEF724FE0020FEF79D
:104DD0002AFE0020FEF727FE3F20FEF724FE0020DB
:104DE000FEF721FE5E20FEF71EFE0020FEF71BFEF2
:104DF0006420FEF718FE0020FEF715FE8C20FEF75B
:104E000012FE0020FEF70FFEAC20FEF70CFE002085
:104E1000FEF709FEDC20FEF706FE0020FEF703FE8B
:104E20007020FEF700FE0020FEF7FDFD9020FEF74B
:104E3000FAFD0020FEF7F7FDEB20FEF7F4FD002061
:104E4000FEF7F1FDDC20FEF7EEFD0020FEF7EBFDA6
:104E5000B820FEF7DFFD0020FEF7E5FD0020FEF79D
:104E6000E2FD0020FEF7DFFD0020FEF7DCFD002064
:104E7000FEF7D9FD0020FEF7D6FD0020FEF7D3FD9A
:104E80000020FEF7D0FDBA20FEF7C4FD2420FEF777
:104E9000CAFD0020FEF7C7FD0020FEF7C4FD00207C
:104EA000FEF7C1FDC120FEF7B5FD2020FEF7BBFDDA
:104EB0000020FEF7B8FD5420FEF7B5FD0020FEF7F8
:104EC000B2FDFF20FEF7AFFD0020FEF7ACFDC220D3
:104ED000FEF7A0FD0A20FEF7A6FD0020FEF7A3FDC9
:104EE0000420FEF7A0FD0020FEF79DFDC320FEF785
:104EF00091FD3C20FEF797FD0020FEF794FD3A203F
:104F0000FEF791FD0020FEF78EFD3920FEF78BFDA8
:104F10000020FEF788FD3720FEF785FD0020FEF714
:104F200082FD3C20FEF77FFD0020FEF77CFD362051
:104F3000FEF779FD0020FEF776FD3220FEF773FDC7
:104F40000020FEF770FD2F20FEF76DFD0020FEF71C
:104F50006AFD2C20FEF767FD0020FEF764FD292086
:104F6000FEF761FD0020FEF75EFD2620FEF75BFDEB
:104F70000020FEF758FD2420FEF755FD002001E03B
:104F8000D06B0020FEF74FFD2420FEF74CFD0020E3
:104F9000FEF749FD2320FEF746FD0020FEF743FD06
:104FA0003C20FEF740FD0020FEF73DFD3620FEF7D9
:104FB0003AFD0020FEF737FD3220FEF734FD0020D9
:104FC000FEF731FD2F20FEF72EFD0020FEF72BFD12
:104FD0002C20FEF728FD0020FEF725FD2920FEF7F6
:104FE00022FD0020FEF71FFD2620FEF71CFD0020FD
:104FF000FEF719FD2420FEF716FD0020FEF713FD35
:105000002420FEF710FD0020FEF70DFD2320FEF703
:105010000AFD0020FEF707FDC420FEF7FBFC62201E
:10502000FEF701FD0020FEF7FEFC0520FEF7FBFC6D
:105030000020FEF7F8FC8420FEF7F5FC0020FEF7C8
:10504000F2FCF020FEF7EFFC0020FEF7ECFC18204D
:10505000FEF7E9FC0020FEF7E6FCA420FEF7E3FCE7
:105060000020FEF7E0FC1820FEF7DDFC0020FEF734
:10507000DAFC5020FEF7D7FC0020FEF7D4FC0C2011
:10508000FEF7D1FC0020FEF7CEFC1720FEF7CBFC8C
:105090000020FEF7C8FC9520FEF7C5FC0020FEF7B7
:1050A000C2FCF320FEF7BFFC0020FEF7BCFCE620AC
:1050B000FEF7B9FC0020FEF7B6FCC520FEF7AAFCFF
:1050C0003220FEF7B0FC0020FEF7ADFC4420FEF7D6
:1050D000AAFC0020FEF7A7FC6520FEF7A4FC002038
:1050E000FEF7A1FC7620FEF79EFC0020FEF79BFC5D
:1050F0008820FEF798FC0020FEF795FCC620FEF7FE
:1051000089FC2020FEF78FFC0020FEF78CFC172086
:10511000FEF789FC0020FEF786FC0120FEF783FCE9
:105120000020FEF780FCC720FEF774FC0020FEF78D
:105130007AFC0020FEF777FC0020FEF774FC0020CC
:10514000FEF771FCC820FEF765FC0020FEF76BFC43
:105150000020FEF768FC0020FEF765FC0020FEF74B
:1051600062FCC920FEF756FC0020FEF75CFC002024
:10517000FEF759FC0020FEF756FC0020FEF753FC1A
:105180000020FEF750FC0020FEF74DFC0020FEF74B
:105190004AFC0020FEF747FC0020FEF744FC0020FC
:1051A000FEF741FC0020FEF73EFC0020FEF73BFC32
:1051B0000020FEF738FC0020FEF735FC0020FEF74B
:1051C00032FC0020FEF72FFCE020FEF723FC162027
:1051D000FEF729FC0020FEF726FC1C20FEF723FC2E
:1051E0000020FEF720FC2120FEF71DFC0020FEF72A
:1051F0001AFC3620FEF717FC0020FEF714FC4620B0
:10520000FEF711FC0020FEF70EFC5220FEF70BFC0F
:105210000020FEF708FC6420FEF705FC0020FEF7E6
:1052200002FC7A20FEF7FFFB0020FEF7FCFB8B2040
:10523000FEF7F9FB0020FEF7F6FB9920FEF7F3FBE3
:105240000020FEF7F0FBA820FEF7EDFB0020FEF7A4
:10525000EAFBB920FEF7E7FB0020FEF7E4FBC420E1
:10526000FEF7E1FB0020FEF7DEFBCA20FEF7DBFBCA
:105270000020FEF7D8FBD220FEF7D5FB0020FEF77A
:10528000D2FBD920FEF7CFFB0020FEF7CCFBE020BD
:10529000FEF7C9FB0020FEF7C6FBF320FEF7C3FBB9
:1052A0000020FEF7C0FBE120FEF7B4FB1620FEF75E
:1052B000BAFB0020FEF7B7FB1C20FEF7B4FB002072
:1052C000FEF7B1FB2220FEF7AEFB0020FEF7ABFBA2
:1052D0003620FEF7A8FB0020FEF7A5FB4520FEF7D1
:1052E000A2FB0020FEF79FFB5220FEF79CFB002054
:1052F000FEF799FB6420FEF796FB0020FEF793FB78
:105300007A20FEF790FB0020FEF78DFB8B20FEF746
:105310008AFB0020FEF787FB9920FEF784FB002024
:10532000FEF781FBA820FEF77EFB0020FEF77BFB4B
:10533000B920FEF778FB0020FEF775FBC420FEF7CE
:1053400072FB0020FEF76FFBCA20FEF76CFB00200B
:10535000FEF769FBD220FEF766FB0020FEF763FB39
:10536000D820FEF760FB0020FEF75DFBE020FEF793
:105370005AFB0020FEF757FBF320FEF754FB0020FA
:10538000FEF751FBE220FEF745FB0520FEF74BFB45
:105390000020FEF748FB0B20FEF745FB0020FEF740
:1053A00042FB1B20FEF73FFB0020FEF73CFB3420B6
:1053B000FEF739FB0020FEF736FB4420FEF733FBF7
:1053C0000020FEF730FB4F20FEF72DFB0020FEF7FC
:1053D0002AFB6120FEF727FB0020FEF724FB792043
:1053E000FEF721FB0020FEF71EFB8820FEF71BFBCB
:1053F0000020FEF718FB9720FEF715FB0020FEF7B4
:1054000012FBA620FEF70FFB0020FEF70CFBB720D7
:10541000FEF709FB0020FEF706FBC220FEF703FBA8
:105420000020FEF700FBC720FEF7FDFA0020FEF784
:10543000FAFAD120FEF7F7FA0020FEF7F4FAD620A8
:10544000FEF7F1FA0020FEF7EEFADD20FEF7EBFAA8
:105450000020FEF7E8FAF320FEF7E5FA0020FEF759
:10546000E2FAE320FEF7D6FA0520FEF7DCFA002088
:10547000FEF7D9FA0A20FEF7D6FA0020FEF7D3FA93
:105480001C20FEF7D0FA0020FEF7CDFA3320FEF7FD
:10549000CAFA0020FEF7C7FA4420FEF7C4FA00203B
:1054A000FEF7C1FA5020FEF7BEFA0020FEF7BBFA65
:1054B0006220FEF7B8FA0020FEF7B5FA7820FEF772
:1054C000B2FA0020FEF7AFFA8820FEF7ACFA00200F
:1054D000FEF7A9FA9720FEF7A6FA0020FEF7A3FA36
:1054E000A620FEF7A0FA0020FEF79DFAB720FEF7EF
:1054F0009AFA0020FEF797FAC220FEF794FA0020ED
:10550000FEF791FAC720FEF78EFA0020FEF78BFA1D
:10551000D120FEF788FA0020FEF785FAD520FEF7A5
:1055200082FA0020FEF77FFADD20FEF77CFA0020E9
:10553000FEF779FAF320FEF776FA0020FEF773FA09
:10554000E420FEF767FA0120FEF76DFA0020FEF76F
:105550006AFA0120FEF767FA0020FEF764FA0220DB
:10556000FEF761FA0020FEF75EFA2A20FEF75BFAEA
:105570000020FEF758FA3C20FEF755FA0020FEF70F
:1055800052FA4B20FEF74FFA0020FEF74CFA5D204E
:10559000FEF749FA0020FEF746FA7420FEF743FAB8
:1055A0000020FEF740FA8420FEF73DFA0020FEF7C7
:1055B0003AFA9320FEF737FA0020FEF734FAA220D9
:1055C000FEF731FA0020FEF72EFAB320FEF72BFA91
:1055D0000020FEF728FABE20FEF725FA0020FEF78D
:1055E00022FAC420FEF71FFA0020FEF71CFACD2095
:1055F000FEF719FA0020FEF716FAD320FEF713FA89
:105600000020FEF710FADD20FEF70DFA0020FEF76D
:105610000AFAF320FEF707FA0020FEF704FAE52065
:10562000FEF7F8F90020FEF7FEF90020FEF7FBF97F
:105630000020FEF7F8F90020FEF7F5F90220FEF74A
:10564000F2F90020FEF7EFF92920FEF7ECF900202F
:10565000FEF7E9F93C20FEF7E6F90020FEF7E3F952
:105660004B20FEF7E0F90020FEF7DDF95D20FEF7A4
:10567000DAF90020FEF7D7F97420FEF7D4F90020FC
:10568000FEF7D1F98420FEF7CEF90020FEF7CBF922
:105690009320FEF7C8F90020FEF7C5F9A220FEF717
:1056A000C2F90020FEF7BFF9B320FEF7BCF90020D5
:1056B000FEF7B9F9BE20FEF7B6F90020FEF7B3F900
:1056C000C420FEF7B0F90020FEF7ADF9CD20FEF7BB
:1056D000AAF90020FEF7A7F9D320FEF7A4F90020CD
:1056E000FEF7A1F9DC20FEF79EF90020FEF79BF9FA
:1056F000F320FEF798F90020FEF795F9E620FEF773
:1057000089F91120FEF78FF90020FEF78CF934207B
:10571000FEF789F90020FEF786F95620FEF783F997
:105720000020FEF780F97620FEF77DF90020FEF7D5
:105730007AF97720FEF777F90020FEF774F96620F2
:10574000FEF771F90020FEF76EF98820FEF76BF97D
:105750000020FEF768F99920FEF765F90020FEF7B2
:1057600062F9BB20FEF75FF90020FEF75CF9992093
:10577000FEF759F90020FEF756F96620FEF753F9B7
:105780000020FEF750F95520FEF74DF90020FEF7F6
:105790004AF95520FEF747F90020FEF744F9452065
:1057A000FEF741F90020FEF73EF94320FEF73BF9F2
:1057B0000020FEF738F94420FEF735F90020FEF707
:1057C00032F9E720FEF726F93220FEF72CF9002007
:1057D000FEF729F95520FEF726F90020FEF723F9F8
:1057E0007620FEF720F90020FEF71DF96620FEF76F
:1057F0001AF90020FEF717F96720FEF714F90020C8
:10580000FEF711F96720FEF70EF90020FEF70BF9FD
:105810008720FEF708F90020FEF705F99920FEF72A
:1058200002F90020FEF7FFF8BB20FEF7FCF800208D
:10583000FEF7F9F89920FEF7F6F80020FEF7F3F8E6
:105840007720FEF7F0F80020FEF7EDF84420FEF791
:10585000EAF80020FEF7E7F85620FEF7E4F800200B
:10586000FEF7E1F82320FEF7DEF80020FEF7DBF874
:105870003320FEF7D8F80020FEF7D5F84520FEF7D4
:10588000D2F80020FEF7CFF8E820FEF7C3F800209A
:10589000FEF7C9F80020FEF7C6F89920FEF7C3F816
:1058A0000020FEF7C0F88720FEF7BDF80020FEF7C5
:1058B000BAF88820FEF7B7F80020FEF7B4F8772092
:1058C000FEF7B1F80020FEF7AEF86620FEF7ABF861
:1058D0000020FEF7A8F88820FEF7A5F80020FEF7C4
:1058E000A2F8AA20FEF79FF80020FEF79CF8BB2044
:1058F000FEF799F80020FEF796F89920FEF793F846
:105900000020FEF790F86620FEF78DF80020FEF7E5
:105910008AF85520FEF787F80020FEF784F8552016
:10592000FEF781F80020FEF77EF84420FEF77BF8B2
:105930000020FEF778F84420FEF775F80020FEF707
:1059400072F85520FEF76FF80020FEF76CF8E9209A
:10595000FEF760F8AA20FEF766F80020FEF763F86D
:105960000020FEF760F80020FEF75DF80020FEF74B
:1059700051F8AA20FEF757F8CF20FEF74BF8002089
:10598000FEF751F80020FEF74EF80020FEF74BF826
:105990000020FEF748F80020FEF745F80020FEF74B
:1059A00042F80020FEF73FF80020FEF73CF8002008
:1059B000FEF739F80020FEF736F80020FEF733F83E
:1059C0000020FEF730F80020FEF72DF80020FEF74B
:1059D0002AF80020FEF727F80020FEF724F8002020
:1059E000FEF721F8F020FEF715F80020FEF71BF86F
:1059F0005020FEF718F80020FEF715F80020FEF7FB
:105A000012F80020FEF70FF8F320FEF703F800204D
:105A1000FEF709F8F920FDF7FDFF0620FEF703F871
:105A20001020FEF700F82920FDF7FDFF0020FDF70C
:105A3000FAFF3A20FDF7EEFF5520FDF7F4FF1120A5
:105A4000FDF7E8FF6420FDF703F92920FDF7E2FFE9
:105A50003520FDF7DFFF0020FDF7E5FF5120FDF7C2
:105A6000D9FFFF20FDF7DFFF5320FDF7D3FF2C20E8
:105A7000FDF7D9FF5520FDF7CDFF8220FDF7D3FFBD
:105A80002C20FDF7C7FF01F050B8FE48808845F292
:105A9000105188427ED155214FF47040FDF7D5FF5B
:105AA000AA214FF20100FDF7D0FF52214FF2020070
:105AB000FDF7CBFF08214FF20300FDF7C6FF0121E0
:105AC0004FF20400FDF7C1FF0D214FF43040FDF708
:105AD000BCFF0D214BF20100FDF7B7FF0D214BF28A
