:020000040800F2
:1000000060800020F96000080161000803610008B9
:100010000561000807610008096100080000000090
:100020000000000000000000000000000B6100085C
:100030000D6100080000000045020008A9870008C3
:1000400013610008136100081361000813610008C0
:1000500013610008136100081361000813610008B0
:1000600013610008136100081361000813610008A0
:100070001361000813610008136100081361000890
:100080001361000813610008136100081361000880
:100090001361000813610008136100081361000870
:1000A0001361000813610008136100081361000860
:1000B0001361000813610008136100081361000850
:1000C0001361000813610008136100081361000840
:1000D00013610008BB5F000813610008136100088A
:1000E0001361000813610008136100081361000820
:1000F0001361000813610008136100081361000810
:1001000013610008136100081361000813610008FF
:1001100013610008136100081361000813610008EF
:1001200013610008136100081361000813610008DF
:1001300013610008136100081361000813610008CF
:1001400013610008136100081361000813610008BF
:1001500013610008136100081361000813610008AF
:10016000136100081361000813610008136100089F
:10017000136100081361000813610008136100088F
:10018000136100081361000800F002F800F04BF85A
:100190000AA090E8000C82448344AAF10107DA45E2
:1001A00001D100F040F8AFF2090EBAE80F0013F0E9
:1001B000010F18BFFB1A43F00103184730C30000BA
:1001C00050C30000103A24BF78C878C1FAD852074B
:1001D00024BF30C830C144BF04680C6070470000C1
:1001E0000023002400250026103A28BF78C1FBD840
:1001F000520728BF30C148BF0B607047642908F020
:100200006985732908F0B387002070471FB509F08E
:10021000D9F804000020002109F0F6F8401C6060C5
:100220001FBD10B510BD09F0A8F81146FFF7EEFF8D
:1002300007F0E4FC09F0D8F803B4FFF7F2FF03BCC1
:1002400005F023FFEFF3098020E9F00F0749096863
:10025000086006480649096801600868B0E8F00FC0
:1002600080F309884EF0040E704700BF8400002020
:100270008800002003E04FF47A7008F025FAFAE7CE
:100280001CB5002400F0A5FD81E00C2C41D2DFE874
:1002900004F0060B0F13181D22272C31363B4FF6A6
:1002A000FF7000F081FD34E0002000F07DFD30E0C3
:1002B0001F2000F079FD2CE04FF4784000F074FD31
:1002C00027E04FF61F0000F06FFD22E04FF4FC60C6
:1002D00000F06AFD1DE047F6FF7000F065FD18E0D4
:1002E0004FF6E07000F060FD13E04FF6074000F0BD
:1002F0005BFD0EE048F2304000F056FD09E04CF2A4
:10030000186000F051FD04E04BF6404000F04CFD59
:1003100000BF00BF4FF478405049088050A018211A
:100320000B46D222CDE9001028211E2003F0CFFB7E
:1003300050A010210B46C822CDE9001046211E20F6
:1003400003F0C5FB51A010210B46C822CDE90010D7
:100350005A211E2003F0BBFB50A00C210B46C822E3
:10036000CDE9001082211E2003F0B1FB601CC4B255
:100370000C2C00D100244C48006808B9012000E092
:100380000020494908604FF47A7008F09DF97CE735
:100390000BE00020454908600A2008F095F901208B
:1003A000424908600A2008F08FF9F2E708E00020CF
:1003B00000E0401C3E498842FBDB0A2008F084F93B
:1003C000F5E70EB505F081FD04F0C2FE04F0F7FD7F
:1003D00004F04BFE05F0FFFB04F0DAFE04F0E6FF4C
:1003E00034A04FF480510022344BCDE9002102901B
:1003F00041F24512AFF28311314807F080FF31A07E
:100400004FF480510122314BCDE90021029041F699
:100410001912AFF293112E4807F071FF2DA04FF47F
:10042000805101222D4BCDE90021029041F6191295
:10043000AFF2A3012A4807F062FF2AA04FF48051CF
:1004400002222A4BCDE90021029041F61912AFF2A7
:10045000A301274807F053FF0EBD00001000002045
:10046000536F433A2053544D3332463430375A4752
:100470005436000043505520436F72653A20415274
:100480004D20436F727465782D4D34004650553AB7
:1004900020454E41424C4544000000003230323489
:1004A0002F342F3139000000A4824242080000207E
:1004B000FFF303005441534B310000009000002033
:1004C000904000205441534B320000009010002017
:1004D000F04000205441534B330000009020002096
:1004E000504100205441534B340000009030002014
:1004F000B041002001B5BDF800000090BDF800003B
:10050000FE49088008BD01B5BDF800000090BDF8A7
:100510000000FA49891C088008BD08B5F748801C0E
:1005200000880090BDF8000008BDF44A10804FF02C
:10053000D842A2F88010704700B502461046FFF777
:10054000D9FF002000E0401C42F210718842FADB23
:10055000FFF7E3FF00BDEA480089E84908807047DB
:10056000E649891C0880704730B5014601F01F0438
:10057000C1F34513CA0AE50205EB43151544A8B2B9
:1005800030BD00BF011EA0F10102D0B2FAD1704708
:1005900010B502460C46DA48808841F6631188425D
:1005A00047D1D7488079A8B9D5480088401E801A1D
:1005B00082B2D3494889FFF79DFF0020FFF7A3FFD0
:1005C0000020FFF7A0FF1012FFF79DFFD0B2FFF74A
:1005D0009AFF16E0CA494889FFF78CFF1012FFF70F
:1005E00092FFD0B2FFF78FFFC5490988491EC1F3BA
:1005F0000F20FFF788FFC2490978491EC8B2FFF7EC
:1006000082FFBF498889FFF775FF2012FFF77BFF44
:10061000E0B2FFF778FFBA494988491EC1F30F20BD
:10062000FFF771FFB6498978491EC8B2FFF76BFF23
:100630003AE0B348808845F21051884220D1B04951
:100640004889FFF757FF1012FFF75DFFAC49498952
:10065000491C88B2FFF74EFFD0B2FFF754FFA849FC
:100660008889FFF747FF2012FFF74DFFA4498989CA
:10067000491C88B2FFF73EFFE0B2FFF744FF13E0EA
:100680009F494889FFF736FF1012FFF73CFFD0B2B1
:10069000FFF739FF9A498889FFF72CFF2012FFF7EF
:1006A00032FFE0B2FFF72FFF10BD2DE9F041054604
:1006B0000E4600240027A04691480088A84203DD8A
:1006C0008F484088B04202DC0020BDE8F08131460E
:1006D0002846FFF75DFF8A48808845F2105188421E
:1006E00004D14FF43850FFF705FF02E02E20FFF74A
:1006F00001FFFFF712FF04468148808841F663112D
:10070000884201D12046E0E7FFF707FF0446FFF7E4
:1007100004FF8046E7B24FF6FF7000EA0727E012B9
:10072000C002B91240EA411040EAE820CDE700B526
:100730007348808845F21051884204D14FF4245008
:10074000FFF7D8FE02E02920FFF7D4FE00BD00B578
:100750006B48808845F21051884204D14FF42050F4
:10076000FFF7C8FE02E02820FFF7C4FE00BDF0B589
:1007700005460024002762488079012805D1604899
:10078000808841F66311884208D15D488079F0B9CC
:100790005B48808841F66311884218D1082D15D234
:1007A000DFE805F00406080A0C0E101206250DE01D
:1007B00007250BE0042509E0052507E0012505E0F4
:1007C000002503E0032501E0022500BF00BF082D3E
:1007D0001CD2DFE805F00406090C0F12151800BF43
:1007E00014E044F0800411E044F040040EE044F0D2
:1007F000C0040BE044F0200408E044F0600405E08D
:1008000044F0A00402E044F0E00400BF00BF3C4814
:10081000808845F21051884202D14FF4585700E0C9
:1008200036273748808849F24131884205D034481C
:10083000808847F28971884201D144F0080421463A
:100840003846FFF772FE2E48808841F663118842D1
:100850001DD004F0200068B1294800882849498843
:10086000884214DA264806884088254908800846C8
:1008700046800CE02248008821494988884206DDEC
:100880001F48068840881E490880084646801C4844
:10089000808845F21051884257D119494889FFF79D
:1008A00029FE0020FFF72FFE15494989491C88B20F
:1008B000FFF720FE0020FFF726FE11494989891C19
:1008C00088B2FFF717FE0E490988491EC1F30F20B1
:1008D000FFF719FE0A494989C91C88B2FFF70AFEC9
:1008E00007490978491EC8B2FFF70DFE04498889F7
:1008F000FFF700FE0020FFF706FE03E07E00006C1D
:1009000010420020FE498989491C88B2FFF7F2FD98
:100910000020FFF7F8FDFA498989891C88B2FFF7A2
:10092000E9FDF7494988491EC1F30F20FFF7EBFDA8
:10093000F3498989C91C88B2FFF7DCFDF049897841
:10094000491EC8B2FFF7DFFD2DE0ED494889FFF7EA
:10095000D1FD0020FFF7D7FD0020FFF7D4FDE849C7
:100960000988491EC1F30F20FFF7CDFDE44909783E
:10097000491EC8B2FFF7C7FDE1498889FFF7BAFDF4
:100980000020FFF7C0FD0020FFF7BDFDDC494988CE
:10099000491EC1F30F20FFF7B6FDD9498978491EDA
:1009A000C8B2FFF7B0FDF0BD30B504460D4629468C
:1009B0002046FFF7EDFDFFF7CEFDD2480088D24973
:1009C000088030BD30B504460D46CD48808845F2DC
:1009D0001051884220D1CA494889FFF78BFD201267
:1009E000FFF791FDC6494989491C88B2FFF782FD8E
:1009F000E0B2FFF788FDC2498889FFF77BFD281226
:100A0000FFF781FDBE498989491C88B2FFF772FD55
:100A1000E8B2FFF778FD42E0B948808841F66311FB
:100A2000884228D1B648807920B9B5480088401E50
:100A3000001B84B2B2494889FFF75CFD2012FFF722
:100A400062FDE0B2FFF75FFD2012FFF75CFDE0B250
:100A5000FFF759FDAA498889FFF74CFD2812FFF7D7
:100A600052FDE8B2FFF74FFD2812FFF74CFDE8B248
:100A7000FFF749FD13E0A2494889FFF73BFD20122B
:100A8000FFF741FDE0B2FFF73EFD9D498889FFF782
:100A900031FD2812FFF737FDE8B2FFF734FD984823
:100AA00000899949891E08804FF0D840A0F880201D
:100AB00030BD2DE9F0470446BE20FFF71BFD0520A1
:100AC000FFF721FD204608F050FF07464FF0663241
:100AD0008E4B08F099FF054608F01AFF1FFA80F9BF
:100AE0004846FFF710FD0120FFF70DFDFF20FFF73F
:100AF0000AFD0020FFF707FD0020FFF704FDBDE819
:100B0000F08710B504467E488471002C45D1F02052
:100B10007B4908804FF4A07048800846808845F2E1
:100B20001051884210D14FF43050754908814FF46C
:100B3000285048814FF42C5088814FF4F070088081
:100B40004FF4487048801AE06D48808841F6631180
:100B500088420DD12C206A4908812B2048812A2007
:100B600088814FF4F07008804FF44870488006E0A8
:100B70002C20634908812A2048812B2088816048E5
:100B8000808845F2103188424CD14FF4A0705C4906
:100B900008804FF4F070488044E04FF4A07058494A
:100BA0000880F02048800846808845F2105188422D
:100BB00010D14FF43050524908814FF428504881E9
:100BC0004FF42C5088814FF4487008804FF4F07037
:100BD00048801AE04A48808841F6631188420DD166
:100BE0002C20474908812A2048812B2088814FF4F6
:100BF000487008804FF4F070488006E02C2040498F
:100C000008812A2048812B2088813D48808845F230
:100C10001031884206D14FF4F070394908804FF402
:100C2000A07048800020FFF7A2FD10BD2DE9F04123
:100C300004460D461E46A018401E87B2A819401E45
:100C40001FFA80F82E48808841F66311884231D11E
:100C50002B48807901282DD029480088801A001B54
:100C600084B2A819401E86B225494889FFF742FC84
:100C70002012FFF748FCE0B2FFF745FCA118491E1F
:100C8000C1F30F20FFF73FFCA118491EC8B2FFF7C0
:100C90003AFC1B498889FFF72DFC2812FFF733FC2B
:100CA000E8B2FFF730FC3012FFF72DFCF0B2FFF78F
:100CB0002AFC77E01248808845F2105188424FD1D3
:100CC0000F494889FFF716FC2012FFF71CFC0C495E
:100CD0004989491C88B2FFF70DFCE0B2FFF713FC0D
:100CE00007494989891C88B2FFF704FC3812FFF7CD
:100CF0000AFC03494989C91C88B2FFF7FBFB07E0DE
:100D000010420020100000208000006C6666044045
:100D1000F8B2FFF7F8FBFE498889FFF7EBFB2812D2
:100D2000FFF7F1FBFA498989491C88B2FFF7E2FB1A
:100D3000E8B2FFF7E8FBF6498989891C88B2FFF71A
:100D4000D9FB4FEA2820FFF7DEFBF1498989C91C4E
:100D500088B2FFF7CFFB08F0FF00FFF7D4FB21E0DC
:100D6000EB494889FFF7C6FB2012FFF7CCFBE0B246
:100D7000FFF7C9FB3812FFF7C6FBF8B2FFF7C3FB5A
:100D8000E3498889FFF7B6FB2812FFF7BCFBE8B2FE
:100D9000FFF7B9FB4FEA2820FFF7B5FB08F0FF008B
:100DA000FFF7B1FBBDE8F08170B504460026D848D6
:100DB00005884088454300210846FFF7E9FBFFF717
:100DC000CAFB00BF02E0D3480480761CAE42FAD3CF
:100DD00070BD00B5A1B00020209001217A2006F05E
:100DE000B3F80121084606F0E7F84FF400401E90E2
:100DF00001208DF87C0000208DF87E0002208DF807
:100E00007D0001208DF87F001EA9C34805F01AFB64
:100E10004CF233701E9002208DF87C0000208DF87B
:100E20007E0003208DF87D0001208DF87F001EA933
:100E3000BA4805F007FB4FF680701E9002208DF82F
:100E40007C0000208DF87E0003208DF87D000120BD
:100E50008DF87F001EA9B24805F0F4FA4FF48050D7
:100E60001E9002208DF87C0000208DF87E0003206B
:100E70008DF87D0001208DF87F001EA9A94805F09E
:100E8000E1FA4FF480501E9002208DF87C00002083
:100E90008DF87E0003208DF87D0001208DF87F0005
:100EA0001EA9A14805F0CEFA0C2200219B4805F0AE
:100EB00054FB0C220121994805F04FFB0C22042120
:100EC000964805F04AFB0C220521944805F045FBA5
:100ED0000C220821914805F040FB0C2209218F4883
:100EE00005F03BFB0C220A218C4805F036FB0C2256
:100EF0000E218A4805F031FB0C220F21874805F0AE
:100F00002CFB0C220721864805F027FB0C22082128
:100F1000834805F022FB0C220921814805F01DFBC6
:100F20000C220A217E4805F018FB0C220B217C487C
:100F300005F013FB0C221146794805F00EFB0C223C
:100F40000D21774805F009FB0C220E21744805F0AD
:100F500004FB0C220F21724805F0FFFA0C22114607
:100F6000704805F0FAFA0C2211466F4805F0F5FAC0
:100F70000F200890002009903C200A9000200B9040
:100F80000C900D900E9009200190002002900820F6
:100F900003900020049005900690079006200F9083
:100FA00000201090119010201290002013901590A6
:100FB0001490169017904FF48050189000201990BC
:100FC0004FF480401A9000201B9008A81C9001A8A4
:100FD0001D900FA805F015FB0121062005F09CFBD4
:100FE000322007F071FBD320FFF784FAFFF795FA60
:100FF00047498880FFF791FA45498880FFF78DFAC5
:1010000043498880084680884FF6FF7101EA002036
:101010003F498880FFF781FA3D49898808433C4968
:1010200088800846808849F2413188426FD0042088
:10103000FFF760FAFFF771FA35498880FFF76DFA1C
:1010400033498880FFF769FA3149888008468088EB
:101050004FF6FF7101EA00202D498880FFF75DFA05
:101060002B49898808432A4988800846808848F2A5
:101070005251884203D147F289702549888024481B
:10108000808847F289718842D0D0D420FFF732FAA5
:10109000FFF743FA1E498880FFF73FFA1C49888012
:1010A000FFF73BFA1A498880084680884FF6FF719F
:1010B00001EA002016498880FFF72FFA1449898831
:1010C0000843134988800846808845F210318842D9
:1010D00079D055214FF47040FFF727FAAA214FF23B
:1010E0000100FFF722FA52214FF20200FFF71DFA2A
:1010F00008214FF20300FFF718FA01214FF2040014
:10110000FFF713FA4FF44540FFF7F4F90EE05AE009
:10111000104200208000006C00040240000C0240DD
:10112000001002400014024000180240FFF7F5F9D9
:10113000FE498880084680884FF6FF7101EA00204A
:10114000FA4988804CF20150FFF7D4F9FFF7E5F92E
:10115000F64989880843F54988800A2007F0B4FADF
:10116000F2488088B0F5004F03D145F21050EF49A6
:101170008880EE48808845F21051884223D0A12013
:10118000FFF7B8F9FFF7C9F9E8498880FFF7C5F913
:10119000E6498880084680884FF6FF7101EA002002
:1011A000E2498880FFF7B9F9E04989880843DF49B7
:1011B00088800846808845F26171884203D141F6F3
:1011C0006310DA498880D948808849F241318842E1
:1011D00017D0D648808847F28971884211D0D34809
:1011E000808845F2103188420BD0D048808845F283
:1011F0001051884205D0CD48808841F6631188425D
:101200002CD1CB48006820F00F004FF02041C1F8EE
:101210001C010846D0F81C0120F47060C1F81C01C4
:101220000846D0F81C0140F00300C1F81C01BF487B
:10123000808847F28971884208D1BD48006840F42F
:1012400040704FF02041C1F81C0107E0B848006829
:1012500040F400704FF02041C1F81C01B348808871
:1012600049F2413188427CD1CF20FFF743F9002079
:10127000FFF749F9C120FFF746F93020FFF743F99E
:10128000ED20FFF737F96420FFF73DF90320FFF762
:101290003AF91220FFF737F98120FFF734F9E820F7
:1012A000FFF728F98520FFF72EF91020FFF72BF91B
:1012B0007A20FFF728F9CB20FFF71CF93920FFF738
:1012C00022F92C20FFF71FF90020FFF71CF934202A
:1012D000FFF719F90220FFF716F9F720FFF70AF9CF
:1012E0002020FFF710F9EA20FFF704F90020FFF7AC
:1012F0000AF90020FFF707F9C020FFF7FBF81B20D1
:10130000FFF701F9C120FFF7F5F80120FFF7FBF81F
:10131000C520FFF7EFF83020FFF7F5F83020FFF792
:10132000F2F8C720FFF7E6F8B720FFF7ECF8362011
:10133000FFF7E0F84820FFF7E6F83A20FFF7DAF881
:101340005520FFF7E0F8B120FFF7D4F80020FFF7B1
:10135000DAF81A20FFF7D7F8B620FFF7CBF80A2003
:1013600000E099E0FFF7CFF8A220FFF7CCF8F220D9
:10137000FFF7C0F80020FFF7C6F82620FFF7BAF8FD
:101380000120FFF7C0F8E020FFF7B4F80F20FFF7C7
:10139000BAF82A20FFF7B7F82820FFF7B4F808209A
:1013A000FFF7B1F80E20FFF7AEF80820FFF7ABF813
:1013B0005420FFF7A8F8A920FFF7A5F84320FFF76E
:1013C000A2F80A20FFF79FF80F20FFF79CF80020F3
:1013D000FFF799F80020FFF796F80020FFF793F841
:1013E0000020FFF790F8E120FFF784F80020FFF7D6
:1013F0008AF81520FFF787F81720FFF784F80720F1
:10140000FFF781F81120FFF77EF80620FFF77BF841
:101410002B20FFF778F85620FFF775F83C20FFF7F0
:1014200072F80520FFF76FF81020FFF76CF80F2017
:10143000FFF769F83F20FFF766F83F20FFF763F8F2
:101440000F20FFF760F82B20FFF754F80020FFF77C
:101450005AF80020FFF757F80120FFF754F83F2013
:10146000FFF751F82A20FFF745F80020FFF74BF867
:101470000020FFF748F80020FFF745F8EF20FFF7BE
:1014800042F81120FFF736F8782007F01DF92920DF
:10149000FFF730F802F0B3B82448808847F289712A
:1014A00088427DD11120FFF725F8782007F00CF94C
:1014B0003620FFF71FF80020FFF725F83A20FFF746
:1014C00019F80520FFF71FF8B220FFF713F80C20DA
:1014D000FFF719F80C20FFF716F80020FFF713F8B4
:1014E0003320FFF710F83320FFF70DF8B720FFF790
:1014F00001F83520FFF707F8BB20FEF7FBFF32208D
:10150000FFF701F8C020FEF7F5FF0C20FEF7FBFF08
:10151000C220FEF7EFFF0120FEF7F5FFC320FEF724
:10152000E9FF1020FEF7EFFFC42003E01042002087
:101530001C0100A0FEF7DEFF2020FEF7E4FFC6201E
:10154000FEF7D8FF0F20FEF7DEFFD020FEF7D2FF18
:10155000A420FEF7D8FFA120FEF7D5FFE020FEF77C
:10156000C9FFD020FEF7CFFF0020FEF7CCFF0220FE
:10157000FEF7C9FF0720FEF7C6FF0A20FEF7C3FFEC
:101580002820FEF7C0FF3220FEF7BDFF4420FEF703
:10159000BAFF4220FEF7B7FF0620FEF7B4FF00E0D7
:1015A0005AE00E20FEF7AFFF1220FEF7ACFF14202A
:1015B000FEF7A9FF1720FEF7A6FFE120FEF79AFF2E
:1015C000D020FEF7A0FF0020FEF79DFF0220FEF7CF
:1015D0009AFF0720FEF797FF0A20FEF794FF2820C6
:1015E000FEF791FF3120FEF78EFF5420FEF78BFFB0
:1015F0004720FEF788FF0E20FEF785FF1C20FEF730
:1016000082FF1720FEF77FFF1B20FEF77CFF1E20C6
:10161000FEF779FF2A20FEF76DFF0020FEF773FF2B
:101620000020FEF770FF0020FEF76DFFEF20FEF7B1
:101630006AFF2B20FEF75EFF0020FEF764FF00200C
:10164000FEF761FF0120FEF75EFF3F20FEF75BFF24
:101650002920FEF74FFF1DE7FE48808845F2103134
:10166000884240F07C87ED20FEF744FF0120FEF722
:101670004AFFFE20FEF747FFEE20FEF73BFFDE208D
:10168000FEF741FF2120FEF73EFFF120FEF732FF7B
:101690000120FEF738FFDF20FEF72CFF1020FEF7B9
:1016A00032FFC420FEF726FF8F20FEF72CFFC62056
:1016B000FEF720FF0020FEF726FFE220FEF723FFC3
:1016C000E220FEF720FFE220FEF71DFFBF20FEF71D
:1016D00011FFAA20FEF717FFB020FEF70BFF0D2029
:1016E000FEF711FF0020FEF70EFF0D20FEF70BFFA7
:1016F0000020FEF708FF1120FEF705FF0020FEF78F
:1017000002FF1920FEF7FFFE0020FEF7FCFE21205D
:10171000FEF7F9FE0020FEF7F6FE2D20FEF7F3FEA1
:101720000020FEF7F0FE3D20FEF7EDFE0020FEF764
:10173000EAFE5D20FEF7E7FE0020FEF7E4FE5D20F6
:10174000FEF7E1FE0020FEF7DEFEB120FEF7D2FE3E
:101750008020FEF7D8FE0020FEF7D5FE8B20FEF796
:10176000D2FE0020FEF7CFFE9620FEF7CCFE002032
:10177000FEF7C9FEB220FEF7BDFE0020FEF7C3FE55
:101780000020FEF7C0FE0220FEF7BDFE0020FEF79F
:10179000BAFE0320FEF7B7FE0020FEF7B4FEB3202A
:1017A000FEF7A8FE0020FEF7AEFE0020FEF7ABFE1F
:1017B0000020FEF7A8FE0020FEF7A5FE0020FEF7A1
:1017C000A2FE0020FEF79FFE0020FEF79CFE0020F8
:1017D000FEF799FE0020FEF796FE0020FEF793FE2E
:1017E0000020FEF790FE0020FEF78DFE0020FEF7A1
:1017F0008AFE0020FEF787FE0020FEF784FE002010
:10180000FEF781FE0020FEF77EFE0020FEF77BFE45
:101810000020FEF778FE0020FEF775FE0020FEF7A0
:1018200072FE0020FEF76FFE0020FEF76CFE002027
:10183000FEF769FEB420FEF75DFE8B20FEF763FE27
:101840000020FEF760FE9620FEF75DFE0020FEF70A
:101850005AFEA120FEF757FE0020FEF754FEB520E9
:10186000FEF748FE0220FEF74EFE0020FEF74BFE7C
:101870000320FEF748FE0020FEF745FE0420FEF799
:1018800042FE0020FEF73FFEB620FEF733FE0020AA
:10189000FEF739FE0020FEF736FEB720FEF72AFEDF
:1018A0000020FEF730FE0020FEF72DFE3F20FEF761
:1018B0002AFE0020FEF727FE5E20FEF724FE002011
:1018C000FEF721FE6420FEF71EFE0020FEF71BFE41
:1018D0008C20FEF718FE0020FEF715FEAC20FEF768
:1018E00012FE0020FEF70FFEDC20FEF70CFE0020AB
:1018F000FEF709FE7020FEF706FE0020FEF703FE4D
:101900009020FEF700FE0020FEF7FDFDEB20FEF725
:10191000FAFD0020FEF7F7FDDC20FEF7F4FD0020C5
:10192000FEF7F1FDB820FEF7E5FD0020FEF7EBFD28
:101930000020FEF7E8FD0020FEF7E5FD0020FEF7A1
:10194000E2FD0020FEF7DFFD0020FEF7DCFD0020B9
:10195000FEF7D9FD0020FEF7D6FDBA20FEF7CAFD3E
:101960002420FEF7D0FD0020FEF7CDFD0020FEF77D
:10197000CAFD0020FEF7C7FDC120FEF7BBFD2020F9
:10198000FEF7C1FD0020FEF7BEFD5420FEF7BBFDB3
:101990000020FEF7B8FDFF20FEF7B5FD0020FEF7A2
:1019A000B2FDC220FEF7A6FD0A20FEF7ACFD002026
:1019B000FEF7A9FD0420FEF7A6FD0020FEF7A3FD1B
:1019C000C320FEF797FD3C20FEF79DFD0020FEF7AB
:1019D0009AFD3A20FEF797FD0020FEF794FD39208E
:1019E000FEF791FD0020FEF78EFD3720FEF78BFD00
:1019F0000020FEF788FD3C20FEF785FD0020FEF765
:101A000082FD3620FEF77FFD0020FEF77CFD3220B0
:101A1000FEF779FD0020FEF776FD2F20FEF773FD1F
:101A20000020FEF770FD2C20FEF76DFD0020FEF774
:101A30006AFD2920FEF767FD0020FEF764FD2620E1
:101A4000FEF761FD0020FEF75EFD2420FEF75BFD42
:101A5000002001E010420020FEF755FD2420FEF793
:101A600052FD0020FEF74FFD2320FEF74CFD002025
:101A7000FEF749FD3C20FEF746FD0020FEF743FD42
:101A80003620FEF740FD0020FEF73DFD3220FEF738
:101A90003AFD0020FEF737FD2F20FEF734FD002031
:101AA000FEF731FD2C20FEF72EFD0020FEF72BFD6A
:101AB0002920FEF728FD0020FEF725FD2620FEF751
:101AC00022FD0020FEF71FFD2420FEF71CFD002054
:101AD000FEF719FD2420FEF716FD0020FEF713FD8A
:101AE0002320FEF710FD0020FEF70DFDC420FEF7B9
:101AF00001FD6220FEF707FD0020FEF704FD052032
:101B0000FEF701FD0020FEF7FEFC8420FEF7FBFC43
:101B10000020FEF7F8FCF020FEF7F5FC0020FEF7B1
:101B2000F2FC1820FEF7EFFC0020FEF7ECFCA420EE
:101B3000FEF7E9FC0020FEF7E6FC1820FEF7E3FCC8
:101B40000020FEF7E0FC5020FEF7DDFC0020FEF751
:101B5000DAFC0C20FEF7D7FC0020FEF7D4FC17209F
:101B6000FEF7D1FC0020FEF7CEFC9520FEF7CBFC63
:101B70000020FEF7C8FCF320FEF7C5FC0020FEF7AE
:101B8000C2FCE620FEF7BFFC0020FEF7BCFCC5202F
:101B9000FEF7B0FC3220FEF7B6FC0020FEF7B3FCE7
:101BA0004420FEF7B0FC0020FEF7ADFC6520FEF7F8
:101BB000AAFC0020FEF7A7FC7620FEF7A4FC00207C
:101BC000FEF7A1FC8820FEF79EFC0020FEF79BFCA0
:101BD000C620FEF78FFC2020FEF795FC0020FEF7C4
:101BE00092FC1720FEF78FFC0020FEF78CFC0120F2
:101BF000FEF789FC0020FEF786FCC720FEF77AFC82
:101C00000020FEF780FC0020FEF77DFC0020FEF7A0
:101C10007AFC0020FEF777FCC820FEF76BFC002062
:101C2000FEF771FC0020FEF76EFC0020FEF76BFC57
:101C30000020FEF768FCC920FEF75CFC0020FEF7E0
:101C400062FC0020FEF75FFC0020FEF75CFC002039
:101C5000FEF759FC0020FEF756FC0020FEF753FC6F
:101C60000020FEF750FC0020FEF74DFC0020FEF7A0
:101C70004AFC0020FEF747FC0020FEF744FC002051
:101C8000FEF741FC0020FEF73EFC0020FEF73BFC87
:101C90000020FEF738FC0020FEF735FCE020FEF7C0
:101CA00029FC1620FEF72FFC0020FEF72CFC1C2040
:101CB000FEF729FC0020FEF726FC2120FEF723FC7E
:101CC0000020FEF720FC3620FEF71DFC0020FEF76A
:101CD0001AFC4620FEF717FC0020FEF714FC5220E9
:101CE000FEF711FC0020FEF70EFC6420FEF70BFC53
:101CF0000020FEF708FC7A20FEF705FC0020FEF726
:101D000002FC8B20FEF7FFFB0020FEF7FCFB992076
:101D1000FEF7F9FB0020FEF7F6FBA820FEF7F3FB29
:101D20000020FEF7F0FBB920FEF7EDFB0020FEF7E8
:101D3000EAFBC420FEF7E7FB0020FEF7E4FBCA2025
:101D4000FEF7E1FB0020FEF7DEFBD220FEF7DBFB17
:101D50000020FEF7D8FBD920FEF7D5FB0020FEF7C8
:101D6000D2FBE020FEF7CFFB0020FEF7CCFBF320F8
:101D7000FEF7C9FB0020FEF7C6FBE120FEF7BAFB29
:101D80001620FEF7C0FB0020FEF7BDFB1C20FEF76F
:101D9000BAFB0020FEF7B7FB2220FEF7B4FB0020C1
:101DA000FEF7B1FB3620FEF7AEFB0020FEF7ABFBE3
:101DB0004520FEF7A8FB0020FEF7A5FB5220FEF70A
:101DC000A2FB0020FEF79FFB6420FEF79CFB002097
:101DD000FEF799FB7A20FEF796FB0020FEF793FBB7
:101DE0008B20FEF790FB0020FEF78DFB9920FEF77D
:101DF0008AFB0020FEF787FBA820FEF784FB00206B
:101E0000FEF781FBB920FEF77EFB0020FEF77BFB8F
:101E1000C420FEF778FB0020FEF775FBCA20FEF712
:101E200072FB0020FEF76FFBD220FEF76CFB002058
:101E3000FEF769FBD820FEF766FB0020FEF763FB88
:101E4000E020FEF760FB0020FEF75DFBF320FEF7CD
:101E50005AFB0020FEF757FBE220FEF74BFB052064
:101E6000FEF751FB0020FEF74EFB0B20FEF74BFB6D
:101E70000020FEF748FB1B20FEF745FB0020FEF785
:101E800042FB3420FEF73FFB0020FEF73CFB4420E2
:101E9000FEF739FB0020FEF736FB4F20FEF733FB41
:101EA0000020FEF730FB6120FEF72DFB0020FEF73F
:101EB0002AFB7920FEF727FB0020FEF724FB882071
:101EC000FEF721FB0020FEF71EFB9720FEF71BFB11
:101ED0000020FEF718FBA620FEF715FB0020FEF7FA
:101EE00012FBB720FEF70FFB0020FEF70CFBC22011
:101EF000FEF709FB0020FEF706FBC720FEF703FBF9
:101F00000020FEF700FBD120FEF7FDFA0020FEF7CF
:101F1000FAFAD620FEF7F7FA0020FEF7F4FADD20F1
:101F2000FEF7F1FA0020FEF7EEFAF320FEF7EBFAE7
:101F30000020FEF7E8FAE320FEF7DCFA0520FEF7C2
:101F4000E2FA0020FEF7DFFA0A20FEF7DCFA0020B2
:101F5000FEF7D9FA1C20FEF7D6FA0020FEF7D3FAD6
:101F60003320FEF7D0FA0020FEF7CDFA4420FEF72A
:101F7000CAFA0020FEF7C7FA5020FEF7C4FA002084
:101F8000FEF7C1FA6220FEF7BEFA0020FEF7BBFAA8
:101F90007820FEF7B8FA0020FEF7B5FA8820FEF7A1
:101FA000B2FA0020FEF7AFFA9720FEF7ACFA002055
:101FB000FEF7A9FAA620FEF7A6FA0020FEF7A3FA7C
:101FC000B720FEF7A0FA0020FEF79DFAC220FEF728
:101FD0009AFA0020FEF797FAC720FEF794FA00203D
:101FE000FEF791FAD120FEF78EFA0020FEF78BFA69
:101FF000D520FEF788FA0020FEF785FADD20FEF7EF
:1020000082FA0020FEF77FFAF320FEF77CFA002028
:10201000FEF779FAE420FEF76DFA0120FEF773FA75
:102020000020FEF770FA0120FEF76DFA0020FEF79F
:102030006AFA0220FEF767FA0020FEF764FA2A2007
:10204000FEF761FA0020FEF75EFA3C20FEF75BFA2D
:102050000020FEF758FA4B20FEF755FA0020FEF755
:1020600052FA5D20FEF74FFA0020FEF74CFA74207A
:10207000FEF749FA0020FEF746FA8420FEF743FAFD
:102080000020FEF740FA9320FEF73DFA0020FEF70D
:102090003AFAA220FEF737FA0020FEF734FAB3200E
:1020A000FEF731FA0020FEF72EFABE20FEF72BFADB
:1020B0000020FEF728FAC420FEF725FA0020FEF7DC
:1020C00022FACD20FEF71FFA0020FEF71CFAD320DB
:1020D000FEF719FA0020FEF716FADD20FEF713FAD4
:1020E0000020FEF710FAF320FEF70DFA0020FEF7AD
:1020F0000AFAE520FEF7FEF90020FEF704FA0020B8
:10210000FEF701FA0020FEF7FEF90020FEF7FBF9CA
:102110000220FEF7F8F90020FEF7F5F92920FEF776
:10212000F2F90020FEF7EFF93C20FEF7ECF9002071
:10213000FEF7E9F94B20FEF7E6F90020FEF7E3F998
:102140005D20FEF7E0F90020FEF7DDF97420FEF7D0
:10215000DAF90020FEF7D7F98420FEF7D4F9002041
:10216000FEF7D1F99320FEF7CEF90020FEF7CBF968
:10217000A220FEF7C8F90020FEF7C5F9B320FEF74C
:10218000C2F90020FEF7BFF9BE20FEF7BCF900201F
:10219000FEF7B9F9C420FEF7B6F90020FEF7B3F94F
:1021A000CD20FEF7B0F90020FEF7ADF9D320FEF701
:1021B000AAF90020FEF7A7F9DC20FEF7A4F9002019
:1021C000FEF7A1F9F320FEF79EF90020FEF79BF938
:1021D000E620FEF78FF91120FEF795F90020FEF7B3
:1021E00092F93420FEF78FF90020FEF78CF9562083
:1021F000FEF789F90020FEF786F97620FEF783F9CD
:102200000020FEF780F97720FEF77DF90020FEF729
:102210007AF96620FEF777F90020FEF774F9882036
:10222000FEF771F90020FEF76EF99920FEF76BF9C1
:102230000020FEF768F9BB20FEF765F90020FEF7E5
:1022400062F99920FEF75FF90020FEF75CF966203D
:10225000FEF759F90020FEF756F95520FEF753F91D
:102260000020FEF750F95520FEF74DF90020FEF74B
:102270004AF94520FEF747F90020FEF744F94320CC
:10228000FEF741F90020FEF73EF94420FEF73BF946
:102290000020FEF738F9E720FEF72CF93220FEF790
:1022A00032F90020FEF72FF95520FEF72CF9002017
:1022B000FEF729F97620FEF726F90020FEF723F92C
:1022C0006620FEF720F90020FEF71DF96720FEF7D3
:1022D0001AF90020FEF717F96720FEF714F900201D
:1022E000FEF711F98720FEF70EF90020FEF70BF933
:1022F0009920FEF708F90020FEF705F9BB20FEF74C
:1023000002F90020FEF7FFF89920FEF7FCF8002004
:10231000FEF7F9F87720FEF7F6F80020FEF7F3F85D
:102320004420FEF7F0F80020FEF7EDF85620FEF707
:10233000EAF80020FEF7E7F82320FEF7E4F8002093
:10234000FEF7E1F83320FEF7DEF80020FEF7DBF8B9
:102350004520FEF7D8F80020FEF7D5F8E820FEF774
:10236000C9F80020FEF7CFF80020FEF7CCF899203E
:10237000FEF7C9F80020FEF7C6F88720FEF7C3F87D
:102380000020FEF7C0F88820FEF7BDF80020FEF719
:10239000BAF87720FEF7B7F80020FEF7B4F8662009
:1023A000FEF7B1F80020FEF7AEF88820FEF7ABF894
:1023B0000020FEF7A8F8AA20FEF7A5F80020FEF7F7
:1023C000A2F8BB20FEF79FF80020FEF79CF89920AA
:1023D000FEF799F80020FEF796F86620FEF793F8CE
:1023E0000020FEF790F85520FEF78DF80020FEF74C
:1023F0008AF85520FEF787F80020FEF784F844207D
:10240000FEF781F80020FEF77EF84420FEF77BF807
:102410000020FEF778F85520FEF775F80020FEF74B
:1024200072F8E920FEF766F8AA20FEF76CF80020A3
:10243000FEF769F80020FEF766F80020FEF763F863
:102440000020FEF757F8AA20FEF75DF8CF20FEF730
:1024500051F80020FEF757F80020FEF754F800204E
:10246000FEF751F80020FEF74EF80020FEF74BF87B
:102470000020FEF748F80020FEF745F80020FEF7A0
:1024800042F80020FEF73FF80020FEF73CF800205D
:10249000FEF739F80020FEF736F80020FEF733F893
:1024A0000020FEF730F80020FEF72DF80020FEF7A0
:1024B0002AF80020FEF727F8F020FEF71BF800208E
:1024C000FEF721F85020FEF71EF80020FEF71BF85B
:1024D0000020FEF718F80020FEF715F8F320FEF7AD
:1024E00009F80020FEF70FF8F920FEF703F80620A0
:1024F000FEF709F81020FEF706F82920FEF703F88A
:102500000020FEF700F83A20FDF7F4FF5520FDF714
:10251000FAFF1120FDF7EEFF642006F0D5F8292020
:10252000FDF7E8FF3520FDF7E5FF0020FDF7EBFFA5
:102530005120FDF7DFFFFF20FDF7E5FF5320FDF7FA
:10254000D9FF2C20FDF7DFFF5520FDF7D3FF8220B8
:10255000FDF7D9FF2C20FDF7CDFF01F050B8FE4864
:10256000808845F2105188427ED155214FF4704049
:10257000FDF7DBFFAA214FF20100FDF7D6FF522144
:102580004FF20200FDF7D1FF08214FF20300FDF7E3
:10259000CCFF01214FF20400FDF7C7FF0D214FF4DE
:1025A0003040FDF7C2FF0D214BF20100FDF7BDFFEA
:1025B0000D214BF20200FDF7B8FF34214FF43640F5
:1025C000FDF7B3FF34214BF20160FDF7AEFF34217C
:1025D0004BF20260FDF7A9FF0D214FF43140FDF7EA
:1025E000A4FF0D214BF20110FDF79FFF0D214BF2CF
:1025F0000210FDF79AFF34214FF43740FDF795FFA5
:1026000034214BF20170FDF790FF34214BF2027040
:10261000FDF78BFF00214FF43240FDF786FF0021CC
:102620004BF20120FDF781FF00214BF20220FDF764
:102630007CFF24214FF43840FDF777FF24214BF62F
:102640000100FDF772FF24214BF60200FDF76DFF3C
:1026500001214FF43F40FDF768FF0F214FF4334055
:10266000FDF763FF0F2100E0FEE34BF20130FDF7C1
:102670005CFF0F214BF20230FDF757FF34214FF47E
:102680003940FDF752FF34214BF60110FDF74DFFA5
:1026900034214BF60210FDF748FF08214FF4354076
:1026A000FDF743FF08214BF20150FDF73EFF0821E3
:1026B0004BF20250FDF739FF03214FF44240FDF782
:1026C00034FF24214FF43A40FDF72FFF24214BF62D
:1026D0000120FDF72AFF24214BF60220FDF725FFFC
:1026E00000214FF43C40FDF720FF78214BF60140DC
:1026F000FDF71BFF00214BF60240FDF716FF0021FE
:102700004FF43D40FDF711FF78214BF60150FDF7E6
:102710000CFF00214BF60250FDF707FF00214FF49C
:102720003E40FDF702FF64214BF60160FDF7FDFE20
:1027300000214FF45140FDF7F8FE33214DF2011016
:10274000FDF7F3FE00214DF20210FDF7EEFE3421FD
:102750004DF20310FDF7E9FE00214DF20410FDF7E4
:10276000E4FE3A214DF20510FDF7DFFE00214DF2A7
:102770000610FDF7DAFE4A214DF20710FDF7D5FEEF
:1027800000214DF20810FDF7D0FE5C214DF209103A
:10279000FDF7CBFE00214DF20A10FDF7C6FE8121A8
:1027A0004DF20B10FDF7C1FE00214DF20C10FDF7AC
:1027B000BCFEA6214DF20D10FDF7B7FE00214DF233
:1027C0000E10FDF7B2FEE5214DF20F10FDF7ADFE44
:1027D00001214DF21010FDF7A8FE13214DF211104A
:1027E000FDF7A3FE01214DF21210FDF79EFE5421CC
:1027F0004DF21310FDF799FE01214DF21410FDF773
:1028000094FE82214DF21510FDF78FFE01214DF24D
:102810001610FDF78AFECA214DF21710FDF785FE4E
:1028200002214DF21810FDF780FE00214DF2191023
:10283000FDF77BFE02214DF21A10FDF776FE012115
:102840004DF21B10FDF771FE02214DF21C10FDF739
:102850006CFE34214DF21D10FDF767FE02214DF292
:102860001E10FDF762FE67214DF21F10FDF75DFEA1
:1028700002214DF22010FDF758FE84214DF2211067
:10288000FDF753FE02214DF22210FDF74EFEA4216A
:102890004DF22310FDF749FE02214DF22410FDF701
:1028A00044FEB7214DF22510FDF73FFE02214DF207
:1028B0002610FDF73AFECF214DF22710FDF735FE29
:1028C00002214DF22810FDF730FEDE214DF22910D5
:1028D000FDF72BFE02214DF22A10FDF726FEF22114
:1028E0004DF22B10FDF721FE02214DF22C10FDF7C9
:1028F0001CFEFE214DF22D10FDF717FE03214DF2B7
:102900002E10FDF712FE10214DF22F10FDF70DFED7
:1029100003214DF23010FDF708FE33214DF2311046
:10292000FDF703FE03214DF23210FDF7FEFD6D2190
:102930004DF23310FDF7F9FD00214FF45240FDF741
:10294000F4FD33214DF20120FDF7EFFD00214DF2A2
:102950000220FDF7EAFD01E01042002034214DF293
:102960000320FDF7E2FD00214DF20420FDF7DDFD1F
:102970003A214DF20520FDF7D8FD00214DF2062049
:10298000FDF7D3FD4A214DF20720FDF7CEFD0021D2
:102990004DF20820FDF7C9FD5C214DF20920FDF73D
:1029A000C4FD00214DF20A20FDF7BFFD81214DF24B
:1029B0000B20FDF7BAFD00214DF20C20FDF7B5FD0F
:1029C000A6214DF20D20FDF7B0FD00214DF20E20A5
:1029D000FDF7ABFDE5214DF20F20FDF7A6FD01212E
:1029E0004DF21020FDF7A1FD13214DF21120FDF74E
:1029F0009CFD01214DF21220FDF797FD54214DF26F
:102A00001320FDF792FD01214DF21420FDF78DFDFD
:102A100082214DF21520FDF788FD01214DF216208F
:102A2000FDF783FDCA214DF21720FDF77EFD02213F
:102A30004DF21820FDF779FD00214DF21920FDF728
:102A400074FD02214DF21A20FDF76FFD01214DF2B8
:102A50001B20FDF76AFD02214DF21C20FDF765FDEC
:102A600034214DF21D20FDF760FD02214DF21E20A4
:102A7000FDF75BFD67214DF21F20FDF756FD02219A
:102A80004DF22020FDF751FD84214DF22120FDF76C
:102A90004CFD02214DF22220FDF747FDA4214DF20D
:102AA0002320FDF742FD02214DF22420FDF73DFDDC
:102AB000B7214DF22520FDF738FD02214DF22620E9
:102AC000FDF733FDCF214DF22720FDF72EFD02212A
:102AD0004DF22820FDF729FDDE214DF22920FDF7DA
:102AE00024FD02214DF22A20FDF71FFDF2214DF2B7
:102AF0002B20FDF71AFD02214DF22C20FDF715FDCC
:102B0000FE214DF22D20FDF710FD03214DF22E2068
:102B1000FDF70BFD10214DF22F20FDF706FD0321DF
:102B20004DF23020FDF701FD33214DF23120FDF74C
:102B3000FCFC03214DF23220FDF7F7FC6D214DF234
:102B40003320FDF7F2FC00214FF45340FDF7EDFC7C
:102B500033214DF20130FDF7E8FC00214DF2023047
:102B6000FDF7E3FC34214DF20330FDF7DEFC0021DC
:102B70004DF20430FDF7D9FC3A214DF20530FDF756
:102B8000D4FC00214DF20630FDF7CFFC4A214DF276
:102B90000730FDF7CAFC00214DF20830FDF7C5FCF7
:102BA0005C214DF20930FDF7C0FC00214DF20A30E6
:102BB000FDF7BBFC81214DF20B30FDF7B6FC002187
:102BC0004DF20C30FDF7B1FCA6214DF20D30FDF7B2
:102BD000ACFC00214DF20E30FDF7A7FCE5214DF2D3
:102BE0000F30FDF7A2FC01214DF21030FDF79DFCE6
:102BF00013214DF21130FDF798FC01214DF21230F6
:102C0000FDF793FC54214DF21330FDF78EFC0121AA
:102C10004DF21430FDF789FC82214DF21530FDF79D
:102C200084FC01214DF21630FDF77FFCCA214DF2E4
:102C30001730FDF77AFC02214DF21830FDF775FCD4
:102C400000214DF21930FDF770FC02214DF21A30CF
:102C5000FDF76BFC01214DF21B30FDF766FC0221F4
:102C60004DF21C30FDF761FC34214DF21D30FDF7B3
:102C70005CFC02214DF21E30FDF757FC67214DF23E
:102C80001F30FDF752FC02214DF22030FDF74DFCC4
:102C900084214DF22130FDF748FC02214DF2223013
:102CA000FDF743FCA4214DF22330FDF73EFC022149
:102CB0004DF22430FDF739FCB7214DF22530FDF7F8
:102CC00034FC02214DF22630FDF72FFCCF214DF2CE
:102CD0002730FDF72AFC02214DF22830FDF725FCB4
:102CE000DE214DF22930FDF720FC02214DF22A3081
:102CF000FDF71BFCF2214DF22B30FDF716FC0221F3
:102D00004DF22C30FDF711FCFE214DF22D30FDF778
:102D10000CFC03214DF22E30FDF707FC10214DF283
:102D20002F30FDF702FC03214DF23030FDF7FDFBA3
:102D300033214DF23130FDF7F8FB03214DF23230F3
:102D4000FDF7F3FB6D214DF23330FDF7EEFB002173
:102D50004FF45440FDF7E9FB33214DF20140FDF7FC
:102D6000E4FB00214DF20240FDF7DFFB34214DF280
:102D70000340FDF7DAFB00214DF20440FDF7D5FBDF
:102D80003A214DF20540FDF7D0FB00214DF20640FF
:102D9000FDF7CBFB4A214DF20740FDF7C6FB0021B2
:102DA0004DF20840FDF7C1FB5C214DF20940FDF7F3
:102DB000BCFB00214DF20A40FDF7B7FB81214DF22B
:102DC0000B40FDF7B2FB00214DF20C40FDF7ADFBCF
:102DD000A6214DF20D40FDF7A8FB00214DF20E405B
:102DE000FDF7A3FBE5214DF20F40FDF79EFB01210E
:102DF0004DF21040FDF799FB13214DF21140FDF704
:102E000094FB01214DF21240FDF78FFB54214DF24E
:102E10001340FDF78AFB01214DF21440FDF785FBBD
:102E200082214DF21540FDF780FB01214DF2164045
:102E3000FDF77BFBCA214DF21740FDF776FB02211F
:102E40004DF21840FDF771FB00214DF21940FDF7DE
:102E50006CFB02214DF21A40FDF767FB01214DF298
:102E60001B40FDF762FB00E007E302214DF21C402E
:102E7000FDF75BFB34214DF21D40FDF756FB0221AF
:102E80004DF21E40FDF751FB67214DF21F40FDF74B
:102E90004CFB02214DF22040FDF747FB84214DF20F
:102EA0002140FDF742FB02214DF22240FDF73DFBA0
:102EB000A4214DF22340FDF738FB02214DF22440BE
:102EC000FDF733FBB7214DF22540FDF72EFB022124
:102ED0004DF22640FDF729FBCF214DF22740FDF7AB
:102EE00024FB02214DF22840FDF71FFBDE214DF2AD
:102EF0002940FDF71AFB02214DF22A40FDF715FB90
:102F0000F2214DF22B40FDF710FB02214DF22C4037
:102F1000FDF70BFBFE214DF22D40FDF706FB0321D3
:102F20004DF22E40FDF701FB10214DF22F40FDF731
:102F3000FCFA03214DF23040FDF7F7FA33214DF250
:102F40003140FDF7F2FA03214DF23240FDF7EDFA80
:102F50006D214DF23340FDF7E8FA00214FF4554062
:102F6000FDF7E3FA33214DF20150FDF7DEFA0021BF
:102F70004DF20250FDF7D9FA34214DF20350FDF71E
:102F8000D4FA00214DF20450FDF7CFFA3A214DF268
:102F90000550FDF7CAFA00214DF20650FDF7C5FABB
:102FA0004A214DF20750FDF7C0FA00214DF20850BA
:102FB000FDF7BBFA5C214DF20950FDF7B6FA00218E
:102FC0004DF20A50FDF7B1FA81214DF20B50FDF799
:102FD000ACFA00214DF20C50FDF7A7FAA6214DF2F4
:102FE0000D50FDF7A2FA00214DF20E50FDF79DFAAB
:102FF000E5214DF20F50FDF798FA01214DF21050E6
:10300000FDF793FA13214DF21150FDF78EFA0121CD
:103010004DF21250FDF789FA54214DF21350FDF78D
:1030200084FA01214DF21450FDF77FFA82214DF20E
:103030001550FDF77AFA01214DF21650FDF775FA99
:10304000CA214DF21750FDF770FA02214DF21850C7
:10305000FDF76BFA00214DF21950FDF766FA0221D7
:103060004DF21A50FDF761FA01214DF21B50FDF7A8
:103070005CFA02214DF21C50FDF757FA34214DF253
:103080001D50FDF752FA02214DF21E50FDF74DFA88
:1030900067214DF21F50FDF748FA02214DF22050F2
:1030A000FDF743FA84214DF22150FDF73EFA02214B
:1030B0004DF22250FDF739FAA4214DF22350FDF7CD
:1030C00034FA02214DF22450FDF72FFAB7214DF2C8
:1030D0002550FDF72AFA02214DF22650FDF725FA78
:1030E000CF214DF22750FDF720FA02214DF2285052
:1030F000FDF71BFADE214DF22950FDF716FA0221E9
:103100004DF22A50FDF711FAF2214DF22B50FDF746
:103110000CFA02214DF22C50FDF707FAFE214DF278
:103120002D50FDF702FA03214DF22E50FDF7FDF967
:1031300010214DF22F50FDF7F8F903214DF23050D8
:10314000FDF7F3F933214DF23150FDF7EEF903218C
:103150004DF23250FDF7E9F96D214DF23350FDF794
:10316000E4F900214FF45640FDF7DFF933214DF229
:103170000160FDF7DAF900214DF20260FDF7D5F9A3
:1031800034214DF20360FDF7D0F900214DF20460C7
:10319000FDF7CBF93A214DF20560FDF7C6F90021A4
:1031A0004DF20660FDF7C1F94A214DF20760FDF7C7
:1031B000BCF900214DF20860FDF7B7F95C214DF232
:1031C0000960FDF7B2F900214DF20A60FDF7ADF993
:1031D00081214DF20B60FDF7A8F900214DF20C6042
:1031E000FDF7A3F9A6214DF20D60FDF79EF9002130
:1031F0004DF20E60FDF799F9E5214DF20F60FDF7F4
:1032000094F901214DF21060FDF78FF913214DF271
:103210001160FDF78AF901214DF21260FDF785F981
:1032200054214DF21360FDF780F901214DF2146035
:10323000FDF77BF982214DF21560FDF776F901214A
:103240004DF21660FDF771F9CA214DF21760FDF7D6
:103250006CF902214DF21860FDF767F900214DF27B
:103260001960FDF762F902214DF21A60FDF75DF970
:1032700001214DF21B60FDF758F902214DF21C604F
:10328000FDF753F934214DF21D60FDF74EF902218F
:103290004DF21E60FDF749F967214DF21F60FDF701
:1032A00044F902214DF22060FDF73FF984214DF2EF
:1032B0002160FDF73AF902214DF22260FDF735F960
:1032C000A4214DF22360FDF730F902214DF2246074
:1032D000FDF72BF9B7214DF22560FDF726F9022104
:1032E0004DF22660FDF721F9CF214DF22760FDF761
:1032F0001CF902214DF22860FDF717F9DE214DF28D
:103300002960FDF712F902214DF22A60FDF70DF94F
:10331000F2214DF22B60FDF708F902214DF22C60ED
:10332000FDF703F9FE214DF22D60FDF7FEF80321B4
:103330004DF22E60FDF7F9F810214DF22F60FDF7E8
:10334000F4F803214DF23060FDF7EFF833214DF230
:103350003160FDF7EAF803214DF23260FDF7E5F840
:103360006D214DF23360FDF7E0F855214FF47040C8
:10337000FDF7DBF8AA214FF20100FDF7D6F8522144
:103380004FF20200FDF7D1F808214FF20300FDF7DC
:10339000CCF800214FF20400FDF7C7F8CC214FF420
:1033A0003140FDF7C2F800214BF20110FDF7BDF8E6
:1033B00005214FF43640FDF7B8F870214FF437403F
:1033C000FDF7B3F870214BF20170FDF7AEF8012163
:1033D0004FF43840FDF7A9F803214BF60100FDF743
:1033E000A4F803214BF60200FDF79FF803214BF6EA
:1033F0000300FDF79AF802214FF43C40FDF795F8E1
:1034000000214BF60140FDF790F800214BF60240F9
:10341000FDF78BF8D0214FF44940FDF786F80221E3
:103420004CF60110FDF781F850214CF60210FDF723
:103430007CF850214CF60310FDF777F850214CF63C
:103440000410FDF772F800214FF45450FDF76DF8A9
:1034500055214FF46850FDF768F84FF48850FDF798
:1034600049F8002000E0401C42F210718842FADB6B
:103470004FF42450FDF73EF8C1E0FE48808841F645
:1034800063118842F8D1E220FDF734F81D20FDF7E2
:103490003AF80220FDF737F80420FDF734F8002051
:1034A00000E0401C42F210718842FADBE020FDF798
:1034B00021F80120FDF727F80A2005F005F9E020A2
:1034C000FDF718F80320FDF71EF8142005F0FCF8AE
:1034D0000120FDF70FF80A2005F0F6F8E620FDF7C9
:1034E00009F82F20FDF70FF8FF20FDF70CF8FF205B
:1034F000FDF709F8B020FCF7FDFF2020FDF703F8E9
:103500000020FDF700F80320FCF7FDFF40F21F301C
:10351000FCF7F9FF0120FCF7F6FF40F2DF10FCF7A3
:10352000F2FF0020FCF7EFFFB420FCF7E3FF0420DC
:10353000FCF7E9FF40F21F40FCF7E5FF0020FCF735
:10354000E2FF2E20FCF7DFFF0020FCF7DCFF00206D
:10355000FCF7D9FF0020FCF7D6FF0020FCF7D3FFD3
:10356000B620FCF7C7FF0220FCF7CDFF4FF4037035
:10357000FCF7C9FF0020FCF7C6FF1720FCF7C3FFCC
:103580001520FCF7C0FF0020FCF7BDFF0020FCF772
:10359000BAFFF020FCF7AEFF0320FCF7B4FF2920B0
:1035A000FCF7A8FFD020FCF7A5FF0020FCF7ABFF3D
:1035B000BE20FCF79FFF0520FCF7A5FFFE20FCF7CF
:1035C000A2FF0120FCF79FFF0020FCF79CFF0020DA
:1035D000FCF799FF0020FCF796FFB820FCF78AFF64
:1035E0000320FCF790FF0120FCF78DFFBA20FCF7C9
:1035F00081FF0120FCF787FF6420FDF75AFA0020C5
:10360000FDF77FFA01209C4908604FF6FF70FDF737
:10361000CBFB21B000BD2DE9F04F05460E46174605
:103620009846DDF824A04FF0000B781B401C1FFAD1
:1036300080FB344614E021462846FCF7A9FFFCF73E
:103640008AFF4FF0000907E04FF0D840A0F880A0B3
:1036500009F101001FFA80F9D945F5DB601C84B23D
:103660004445E8DDBDE8F08F2DE9F84F07460D46EB
:1036700090469946DDF828B0A8EB0700401C1FFAD9
:1036800080FAA9EB0500401C80B20090002414E0F1
:10369000281981B23846FCF77BFFFCF75CFF002657
:1036A00007E004FB0A603BF8100074490880701CB6
:1036B00086B25645F5DB601C84B200988442E7DB95
:1036C000BDE8F88F2DE9FF4F84B081468A4600207F
:1036D000039002900698A0EB09050798A0EB0A0654
:1036E000CDF80490CDF800A0002D01DD012705E004
:1036F0000DB9002702E04FF0FF376D42002E02DDCA
:103700004FF0010806E016B94FF0000802E04FF054
:10371000FF387642B54201DD2C4600E034464FF0DA
:10372000000B21E0009A91B2019A90B2FDF73CF9AA
:103730000398284403900298304402900398A042D2
:1037400005DD0398001B039001983844019002980E
:10375000A04205DD0298001B0290009840440090B2
:103760000BF101001FFA80FB601C8345DADD08B015
:10377000BDE8F08FF0B504460D4616461F462B46B1
:10378000324629462046FFF79DFF3B462246294602
:103790002046FFF797FF3B46324639462046FFF763
:1037A00091FF3B46324629463046FFF78BFFF0BD7E
:1037B0002DE9F04306460F46904600244546032077
:1037C000A0EB48093CE07A1B91B2321990B2FDF7A8
:1037D000EBF83A1B91B2721990B2FDF7E5F83A197D
:1037E00091B2721990B2FDF7DFF87A1991B23219DD
:1037F00090B2FDF7D9F87A1991B2321B90B2FDF769
:10380000D3F83A1991B2721B90B2FDF7CDF87A1B3A
:1038100091B2321B90B2FDF7C7F83A1B91B2721BFE
:1038200090B2FDF7C1F8641CB9F1000F03DAA000F3
:10383000801D814404E0601B80000A3081446D1EBD
:10384000AC42C0DDBDE8F0832DE9F84F80460E465E
:1038500017461C46B3462046E31704EB5373DB10B0
:1038600021464FEAE47C04EB5C7C4FEAEC0CA4EBD1
:10387000CC0C05E010420020BC8240428000006C6D
:10388000BCF1000F02D04FF0010C01E04FF0000C32
:103890006344224604EBD27C4FEA6C0C03FB0CF32E
:1038A000DBB20093A7F12000C7B2002556E00C2C34
:1038B00007D107EB47009F4901EB800010F8059006
:1038C00013E0102C05D19C4800EB071010F8059070
:1038D0000BE0182C07D107EBC700984901EB8000DB
:1038E00010F8059001E0BDE8F88F4FF0000A2FE0D6
:1038F00009F0800030B19248028831464046FDF719
:1039000061F807E00A9828B98E4802883146404697
:10391000FDF758F84FEA49604FEA1069701C86B20B
:1039200089484088B04200DCDDE7A6EB0B00A042EE
:103930000AD15E4608F101001FFA80F8824800882B
:10394000404500DCCFE706E00AF1010000F0FF0A85
:10395000BAF1080FCCDB00BF681CC5B200988542E5
:10396000A5DB00BFBFE710B50246012000E05043D1
:103970000B1EA1F10104E1B2F9D110BD2DE9FF4FF9
:1039800081B0074691461E460E9D4FF0000A002466
:1039900039E0301B401EC1B20A20FFF7E4FFB9FB3B
:1039A000F0F00A21B0FBF1F201FB1208BAF1000FAE
:1039B00016D1701EA04213DDB8F1000F0ED1002009
:1039C000AB4605EBDB71491001FB0471009088B236
:1039D0002B4620220299FFF737FF12E04FF0010A31
:1039E0000020AB4605EBDB71491001FB0471009030
:1039F00088B208F13001CAB22B460299FFF724FFC2
:103A000000BF601CC4B2B442C3DB05B0BDE8F08F98
:103A10002DE9FF4F82B0064692461F46DDE90F486A
:103A20000020019000254DE0781B401EC1B20A2005
:103A3000FFF799FFBAFBF0F00A21B0FBF1F201FBAE
:103A40001209019850BB781EA84227DDB9F1000F7A
:103A500022D108F0800078B108F00100A34604EB01
:103A6000DB71491001FB0561009088B223463022CA
:103A70000399FFF7E9FE0EE008F00100A34604EB0E
:103A8000DB71491001FB0561009088B223462022BA
:103A90000399FFF7D9FE13E00120019008F001001F
:103AA000A34604EBDB71491001FB0561009088B26D
:103AB00009F13001CAB223460399FFF7C5FE00BFE2
:103AC000681CC5B2BD42AFDB06B0BDE8F08F2DE982
:103AD000F84704460D4690469946DDE9096704F02B
:103AE000FF0A08EB04001FFA80F809EB05001FFA33
:103AF00080F916E0444502DB5446A81985B24D45CD
:103B000000DB14E0002000903A7833462946204636
:103B1000FFF79AFE304606EBD07104EB61018CB2E0
:103B20007F1C38787E2802DC38782028E2DA00BF53
:103B3000BDE8F887EAA300085EA800084EAE0008BA
:103B400010000020120000201042002070B5044632
:103B50001021404802F0D8FC08B9012500E00025FA
:103B600008213C4802F0D0FC08B9012000E0002008
:103B700045EA40050421374802F0C6FC08B9012097
:103B800000E0002045EA80050121334802F0BCFC3A
:103B900045EAC000314908603148007810B1012879
:103BA00020D106E02D48006810B101202C49087092
:103BB00019E02A48006818B900202949087010E067
:103BC0002648006827490968084000B90BE02348E7
:103BD0000068244A126800EA02010122224804F027
:103BE000F0F800E000BF00BF1C4800681D490860F5
:103BF00070BD1FB500211C4804F04EF801200021C3
:103C00001A4B0D22CDE900101748143004F035FE90
:103C10000121112003F098F91C20029000208DF85A
:103C20000C0003208DF80D0001208DF80F0002A973
:103C3000084802F007FC0120029002208DF80F00D6
:103C400002A9054802F0FEFB0748143004F031FEDB
:103C50001FBD0000001002400000024018000020BC
:103C60001C00002014000020244200204D3B0008CE
:103C700010B5F64804F0D2FFF54804F0CFFFF54840
:103C800004F0CCFFF44804F0C9FFF44804F0C6FF88
:103C9000F34804F0C3FF10BD2DE9F84F81460C46F0
:103CA0009246484606F0A8F90646304606F0C0F9A6
:103CB0004946009006F019FB8346002526B93022BC
:103CC00028466D1C22540FE00CE00A2096FBF0F110
:103CD00000FB11603030C2B228466D1C22540A200D
:103CE00096FBF0F6002EF0DC002060550027A5F1D1
:103CF000010809E0E05D14F80810E15504F8080037
:103D00007F1CA8F1010800BF4745F3DB2E2228469F
:103D10006D1C2254584606F06FF90646002158469D
:103D200006F036F905D10021681E05462154BDE88C
:103D3000F88F16E0CB49584606F0DAF98346584624
:103D400006F05AF9064606F13000C2B228466D1C4C
:103D50002254304606F06CF95946009006F0C5FA38
:103D60008346681E504504DA0021584606F08CFA56
:103D7000E0D30020605500BFD9E710B50446BA492A
:103D8000002005F08DF828B12146B8A004F046FFC8
:103D9000012010BD0020FCE701B50121684602F0BA
:103DA000C6F808BD10B504462146B9A004F036FF98
:103DB00010BD2DE9F0470646AB49002005F070F82C
:103DC0008146B9F1000F05D13146B7A004F026FFB6
:103DD000BDE8F087A449002005F062F8054625B14A
:103DE0003146A2A004F01AFFF2E7B9A1484605F057
:103DF0000BF9002822D1B8A004F010FFB7A004F0FE
:103E00000DFFBEA004F00AFFC6A004F007FFCC48D7
:103E1000007818B1CBA004F001FF02E0D1A004F0BB
:103E2000FDFED9A004F0FAFEE0A004F0F7FEEAA03F
:103E300004F0F4FEA8A004F0F1FEC9E7F6A148469C
:103E400005F0E2F8002835D1BD48007820B13146B0
:103E5000F34804F0E3FEBBE7F2A004F0DFFE04F059
:103E600090F98046F249404606F042F980464046C5
:103E700006F0C2F8642190FBF1F4404606F0BCF86D
:103E8000642190FBF1F201FB1207EA49404606F07B
:103E9000FBF903D2E8A004F0C1FE02E0E8A004F0C0
:103EA000BDFE3A462146E8A004F0B8FEE8A004F0C2
:103EB000B5FE8DE7E8A1484605F0A6F838BB01F04D
:103EC000F0F9074605F0F4FC044641F288308442DC
:103ED0000CDA642094FBF0F100FB114794FBF0F83E
:103EE0003A464146DEA004F099FE0FE041F28830E8
:103EF00084420BDD642094FBF0F100FB114794FB3E
:103F0000F0F83A464146DEA004F088FE60E731460C
:103F1000E3A004F083FE00BF5AE7F8B50646524915
:103F2000002004F0BDFF054625B931465EA004F02F
:103F300075FEF8BD66A1284605F066F838B930462A
:103F4000FFF71BFF00B1F4E701F06FFBF1E7DDA124
:103F5000284605F059F8002874D1434904F0A0FF21
:103F6000054625B9314650A004F058FEE1E7304639
:103F7000FFF703FF00B1DCE7D4A1284605F044F8C1
:103F800030B9D44804F04AFED34804F047FED0E7E5
:103F90000024C5E1D14850F82400002853D0CF4870
:103FA00050F8240000F10C01284605F02DF80028F7
:103FB0004AD1CA4850F8240090F8340000F00200BA
:103FC00068B9C64850F8240090F8340000F00100A9
:103FD00028B92A463146C24804F020FEA9E7002746
:103FE000BE4850F8240090F8340000F00200F0B110
:103FF000BC4804F013FE0121684601F074FF9DF8EF
:104000000000792803D09DF80000592808D1012725
:1040100003F0A1FDB14951F8240004F06DFA05E068
:104020002A463146B0A004F0F9FD82E700BFAB4953
:1040300051F8240004F076FA0FB103F09DFD2A46F2
:10404000314667E176E16AE168E10000E0BC000822
:1040500078C00008F8BF00083CC20008F4BE0008A1
:1040600074BF000800002041AABB00081B5B313B65
:1040700033316D25733A20546F6F206D616E792056
:10408000617267756D656E74730D0A1B5B306D0030
:1040900025733A20636F6D6D616E64206E6F7420BE
:1040A000666F756E640D0A001B5B313B33316D2505
:1040B000733A204E6F20656E6F756768207061726D
:1040C000616D657465720D0A1B5B306D0000000048
:1040D000696E666F000000000D0A0000536F433ADE
:1040E000201B5B313B33356D53544D3332463430F6
:1040F000375A4754360D0A1B5B306D00435055202C
:10410000436F72653A201B5B313B33356D41524D35
:1041100020436F727465782D4D3420201B5B306D09
:10412000000000004650553A201B5B303B33316D98
:10413000454E41424C45440D0A1B5B306D0000006A
:10414000610000204C6F772D706F776572206D6F66
:1041500064653A201B5B303B33316D4F4E0D0A1BBB
:104160005B306D004C6F772D706F776572206D6FCF
:1041700064653A201B5B303B33316D4F46460D0A78
:104180001B5B306D00000000466C6173682063614A
:104190007061636974793A201B5B313B33356D3153
:1041A0003032344B420D0A1B5B306D00496E746532
:1041B000726E616C205352414D206361706163697E
:1041C00074793A201B5B313B33356D3139324B42C8
:1041D0000D0A1B5B306D0000457874656E642053DA
:1041E00052414D3A201B5B313B33356D584D3841C0
:1041F00035313231361B5B306D2020436170616395
:104200006974793A201B5B313B33356D314D420D7A
:104210000A1B5B306D00000075736167650000006C
:1042200098C10008435055C0FBD3C3C2CA3A20000E
:104230000000C84200C0DA451B5B313B33316D00E2
:104240001B5B303B33326D0025642E256425250031
:104250001B5B306D0D0A000074656D70000000007E
:10426000435055CEC2B6C83A201B5B303B33326D4B
:1042700025642E2564A1E3430D0A1B5B306D00000D
:10428000435055CEC2B6C83A201B5B303B33316D2C
:1042900025642E2564A1E3430D0A1B5B306D0000ED
:1042A0001B5B313B33316D25733A20506172616D78
:1042B00065746572206572726F720D0A1B5B306DDA
:1042C0000000000073757370656E64004D4F4E49B9
:1042D000544F5200F0BD0008F8C000088867002065
:1042E00060BD0008A0BE00081B5B313B33346D2568
:1042F000733A205461736B2027257327206973203C
:104300006E6F742073757370656E6465640D0A1B3F
:104310005B306D00E9A004F081FC0AE600BF641C7C
:10432000F24800688442FFF435AE3146F0A004F054
:1043300075FCFEE5F8A1284604F066FE00284DD184
:10434000F74904F0ADFD05462DB93146AFF2A8207E
:1043500004F064FCEDE53046FFF70FFD00B1E8E541
:10436000AFF29801284604F04FFE30B9ED4804F052
:1043700055FCED4804F052FCDBE5002425E0EB4859
:1043800050F8240000B3E94850F8240000F10C0173
:10439000284604F039FEB8B9E44850F8240090F8F3
:1043A000340000F0040020B93146E14804F036FC46
:1043B000BFE5DE4951F8240004F0D8F82A4631461A
:1043C000DCA004F02BFCB4E5641CC84800688442FF
:1043D000D5D33146C6A004F021FCAAE5E1A12846C8
:1043E00004F012FE70B1E1A1284604F00DFE48B1C0
:1043F000E0A1284604F008FE20B1E0A1284604F020
:1044000003FE18B9C74804F009FC92E53146AFF243
:10441000701004F003FC00BF8BE570B50446C04982
:10442000002004F03DFD05462DB92146AFF288304D
:1044300004F0F4FB70BD2046FFF79FFC00B1F9E7E4
:10444000D0A1284604F0E0FD10B901F0E4FBF1E74B
:104450002146AFF2B41004F0E1FB00BFEAE738B543
:104460000446AF49002004F01BFD05462DB9214646
:10447000AFF2CC3004F0D2FB38BD2046FFF77DFC14
:1044800000B1F9E7BFA1284604F0BEFD002823D102
:10449000BD4804F0C3FB0121684601F024FD9DF8EE
:1044A0000000592803D09DF8000079280FD1012081
:1044B000B6490870B6A004F0B1FBBEA004F0AEFB94
:1044C000CB4804F0ABFBCB4804F0A8FB03E021464B
:1044D000C9A004F0A3FBCFE7D4A1284604F094FDC3
:1044E00030B90020A9490870D1A004F097FBC3E7B8
:1044F000D8A1284604F088FD60B9A448007820B10E
:104500002146D6A004F08AFB03E02146DDA004F09A
:1045100085FBB1E72146AFF2782004F07FFB00BFB6
:10452000AAE72DE9F04106467D49002004F0B8FCD9
:10453000044634B93146AFF2904004F06FFBBDE859
:10454000F081DAA1204604F05FFD00283AD17449D9
:1045500004F0A6FC04463046FFF70FFC00B1EEE77E
:104560002CB93146AFF2C04004F058FB9BE0D0A11B
:10457000204604F09BFC00281FD0A01C04F082FC05
:104580000546082D03D0092D01D00A2D10D1E8B21F
:1045900000F0EAFD07462FB12A463146C5A004F0D7
:1045A0003DFB04E02A463146CBA004F037FB03E094
:1045B0003146D2A004F032FB75E03146CFA004F0C2
:1045C0002DFB70E0DBA1204604F01EFD002856D133
:1045D000534904F065FC04462CB93146AFF238501B
:1045E00004F01CFB5FE0B2A1204604F05FFC002851
:1045F00040D0A01C04F046FC0546082D03D0092D30
:1046000001D00A2D31D14649002004F049FC04466E
:104610003046FFF7B2FB00B191E7C7A1204604F096
:10462000F3FC58B90120C64A02EB8501C1F88002AB
:104630002A463146C3A004F0F1FA1AE0CEA1204682
:1046400004F0E2FC58B90020BD4A02EB8501C1F834
:1046500080022A463146C9A004F0E0FA09E031465A
:10466000AFF2C43004F0DAFA03E03146A3A004F05C
:10467000D5FA18E03146A1A004F0D0FA13E0CBA19E
:10468000204604F0C1FC48B93046FFF776FB00B184
:1046900055E7314699A004F0C1FA04E03146AFF283
:1046A000004004F0BBFA00BF49E7C149096881F046
:1046B0000101A34AC2F8A012704700001B5B313B06
:1046C00033346D25733A205461736B20272573278B
:1046D00020686173206265656E2073757370656E06
:1046E0006465640D0A1B5B306D0000007C000020D7
:1046F0001B5B313B33316D25733A2054686572651D
:10470000206973206E6F2073756368207461736B0A
:10471000200D0A1B5B306D0077616B6575700000C2
:10472000AABB0008F0BD0008F8C000088867002098
:10473000ACBD00081B5B313B33346D25733A20540C
:1047400061736B202725732720686173206265657C
:104750006E20776F6B656E2075700D0A1B5B306D78
:104760000000000064656C6179000000626C6F639A
:104770006B00000064656C657465000064657374AB
:104780006F7279006F6E00003CBE0008610000206F
:104790001B5B313B33346D4C6F7720706F776572E4
:1047A000206D6F6465206973206F6E0D0A1B5B308E
:1047B0006D0000001B5B303B33336D415454454E5C
:1047C00054494F4E3A20536F6D6520756E666F7277
:1047D000657365656E206D697374616B6573206DBB
:1047E00061792068617070656E0D0A1B5B306D0029
:1047F000DCC100084CC100081B5B313B33346D2524
:10480000733A206C6F772D706F776572206D6F64CF
:1048100065206973206E6F74207475726E656420F4
:104820006F6E200D0A1B5B306D0000006F66660026
:104830001B5B313B33346D4C6F7720706F77657243
:10484000206D6F6465206973206F66660D0A1B5BBF
:10485000306D000073746174650000001B5B313BB8
:1048600033346D25733A204C6F7720706F77657203
:10487000206D6F6465206973206F6E0D0A1B5B30BD
:104880006D0000001B5B313B33346D25733A204CC7
:104890006F7720706F776572206D6F646520697324
:1048A000206F66660D0A1B5B306D00006765740043
:1048B000504600001B5B313B33346D25733A20506A
:1048C0004625643A2048696768206C6576656C0DFA
:1048D0000A1B5B306D0000001B5B313B33346D25E0
:1048E000733A20504625643A204C6F77206C6576E9
:1048F000656C0D0A1B5B306D000000001B5B313BDB
:1049000033316D25733A20506172616D6574657243
:1049100073207468617420617265206E6F742079F1
:10492000657420737570706F727465640D0A1B5B1B
:10493000306D0000736574006869676800000000EE
:10494000008042421B5B313B33346D25733A20506B
:1049500046256420686173206265656E2073657406
:1049600020746F2068696768206C6576656C0D0A35
:104970001B5B306D000000006C6F77001B5B313BF0
:1049800033346D25733A20504625642068617320C6
:104990006265656E2073657420746F206C6F77207C
:1049A0006C6576656C0D0A1B5B306D006469720086
:1049B000A08242427CB50646F649002004F070FA17
:1049C00005462DB93146AFF6201004F027F97CBD1D
:1049D000AFF25021284604F017FB60B93046FFF7CC
:1049E000CCF900B1F3E70120EB4908603146EBA0B8
:1049F00004F014F9EBE7AFF2CC11284604F004FB05
:104A000060B93046FFF7B9F900B1E0E70020E249AC
:104A100008603146ECA004F001F9D8E7AFF2CC1100
:104A2000284604F0F1FA88B93046FFF7A6F900B13C
:104A3000CDE7D948046824B13146EEA004F0EEF881
:104A400003E03146F2A004F0E9F8C0E7F8A12846F7
:104A500004F0DAFA00283AD1CE4904F021FA0546EA
:104A60002DB93146AFF6C01004F0D8F8AFE73046A4
:104A7000FFF783F900B1AAE7284604F003FA0446D9
:104A8000B4F5FA7F12DA002C10DD01200021EB4B87
:104A90002246CDE90010EA4803F0EFFEE84803F0B3
:104AA00008FF3146E7A004F0B9F890E7EAA12846EC
:104AB00004F0AAFA50B9E24803F031FF0020B649E9
:104AC00008603146DFA004F0A9F880E700BF314656
:104AD000AFF6340004F0A2F800BF78E72DE9F0410A
:104AE0000546E81C04F0CEF90446012C06D0022C41
:104AF00004D02846FFF756F9BDE8F081A54900200B
:104B000004F0CEF906462EB92946AFF6642004F02B
:104B100085F8F1E72846FFF730F900B1ECE7AFF28E
:104B20009C31304604F070FA78B9012C04D1002091
:104B30009949091D086003E0002097490831086081
:104B40002146C7A004F06AF832E0AFF220313046C7
:104B500004F05AFA78B9012C04D101208E49091DBC
:104B6000086003E001208C49083108602146C7A095
:104B700004F054F81CE0AFF22431304604F044FA5B
:104B800088B904F10800CC4901EB8000D0F88072AC
:104B900027B12146C9A004F041F803E02146CFA087
:104BA00004F03CF804E02946AFF60C1004F036F8A7
:104BB00000BFA1E770B5054600F00CFC0446214695
:104BC000CEA004F02BF870BD10B5D049D0A004F0F1
:104BD00025F810BDF8B505460E460024002762E012
:104BE0000121684601F07FF900BF9DF800000D2803
:104BF0003BD004DC082828D009283AD123E01B2820
:104C000002D07F2835D11FE00121684601F06BF901
:104C10009DF800005B2814D10121684601F063F97A
:104C20009DF80000412807D0422804D0432805D031
:104C3000442804D101E000BF00BF00BF00E0D4E77A
:104C400000E0D2E72DE02CE000BF6CB10021601E37
:104C5000044629540820FFF79FF82020FFF79CF80E
:104C60000820FFF799F87F1E1BE00A20FFF794F851
:104C700000BF9DF80000FFF78FF89DF800000A289C
:104C800005D09DF800000D2801D0B44202D30020C9
:104C90002855F8BD9DF800202046641C2A547F1C2E
:104CA00000BF00BF00BFB4429AD300BFF1E770B5A8
:104CB00005463849284604F0F3F8044604B970BDA7
:104CC00094A1204604F0A0F918B92046FFF729FC6A
:104CD000F5E792A1204604F097F918B92046FFF7AE
:104CE00069FEECE78FA1204604F0E0F818B12046F9
:104CF000FFF7F4FEE3E78CA1204604F085F918B92C
:104D00002046FFF756F8DAE788A1204604F07CF940
:104D100030B987A003F082FF87A003F07FFFCEE7C2
:104D200086A1204604F070F928B986A003F076FF2A
:104D3000FEF79EFFC3E784A1204604F065F918B989
:104D40002046FFF7EAF8BAE781A1204604F05CF9B3
:104D500018B92046FFF72EFFB1E77FA1204604F0E7
:104D600053F918B92046FFF758FBA8E77CA1204665
:104D700004F04AF918B92046FFF771FB9FE77BA1C1
:104D8000204604F041F918B9012001F077F996E7BF
:104D9000F2E00000AABB0008A08242421B5B313B4C
:104DA00033346D25733A20424545502068617320A5
:104DB0006265656E207475726E6564206F6E0D0A93
:104DC0001B5B306D000000001B5B313B33346D25F5
:104DD000733A204245455020686173206265656ED4
:104DE000207475726E6564206F66660D0A1B5B30F9
:104DF0006D0000001B5B313B33346D25733A20425C
:104E0000454550206973206F6E0D0A1B5B306D00A5
:104E10001B5B313B33346D25733A204245455020AE
:104E20006973206F66660D0A1B5B306D0000000021
:104E3000737175617265776172650000AB46000839
:104E4000DC4A00201B5B313B33346D25733A204F25
:104E50004B0D0A1B5B306D00636C6F7365000000C7
:104E60001B5B313B33346D6C65643A204C45442503
:104E70006420686173206265656E207475726E656A
:104E800064206F6E0D0A1B5B306D00001B5B313BB5
:104E900033346D6C65643A204C4544256420686168
:104EA00073206265656E207475726E6564206F662E
:104EB000660D0A1B5B306D00008042421B5B313B7C
:104EC00033346D6C65643A204C4544256420697325
:104ED000206F66660D0A1B5B306D00001B5B313B6B
:104EE00033346D6C65643A204C4544256420697305
:104EF000206F6E0D0A1B5B306D000000B9E2C7BF6A
:104F0000B6C83A2025640D0A00000000BC4A002003
:104F1000257320006578696F000000006265657088
:104F2000000000006C65640063707500636C7300C2
:104F30001B5B324A000000001B5B4800636C65612C
:104F4000720000001B6300007461736B00000000BE
:104F50006C696768740000006D6F6E69746F720031
:104F60006C6F772D706F77657200000062616E70F4
:104F700072696E74660000001AA1204604F044F8BD
:104F800018B9002001F07AF899E62046FEF70AFFEA
:104F900000BF94E641F2883003F096FBFEF768FE0E
:104FA0000CE08021124804F008F8FFF70DFE802184
:104FB0000F48FFF70FFE0E48FFF779FEF1E70EB539
:104FC0000CA1114803F084FF10A04FF400610022EF
:104FD0000F4BCDE9002102900E490F4803F08FF9E5
:104FE0000EBD0000616C6C6F777072696E74660044
:104FF000004B00201B5B313B33326D52544F533E0C
:105000003E1B5B306D000000BC4A0020434D440055
:105010005C420020954F00085C4A00201CB523E04C
:10502000002001AB0F2281210090184802F068FE99
:10503000019800F0010010B115A003F0EFFD0198F8
:1050400000F0020010B115A003F0E8FD019800F097
:10505000040010B114A003F0E1FD019800F0080075
:1050600010B114A003F0DAFDDAE70EB5FEF7C1FDCA
:1050700014A04FF400710122144BCDE900210290DD
:1050800000221349134803F03AF90EBD24420020D0
:105090004B45593020444F574E0D0A004B4559316E
:1050A00020444F574E0D0A004B45593220444F576C
:1050B0004E0D0A004B4559555020444F574E0D0A8E
:1050C0000000000045584556454E5400E04B002076
:1050D0001D500008804B00201CB50121202001F04C
:1050E00033FF4FF4C060009001208DF804000020D1
:1050F0008DF8060003208DF8050001208DF80700CB
:105100006946214801F09EF94FF4C0611E4801F044
:1051100015FA1CBD1CB50121202001F015FF4FF42C
:105120008070009001208DF8040000208DF80600AA
:1051300003208DF8050002208DF80700694612480B
:1051400001F080F94FF480710F4801F0F9F91CBDAE
:1051500010B5FFF7C1FFFFF7DDFF10BD0B4B03EBF1
:105160008002C2F88012704770B5044602F0E4FC79
:105170000646064901EB8400D0F88002C5B23046ED
:1051800002F0E0FC284670BD00140240008042425C
:1051900000B58DB00121084601F0D6FE01210802BC
:1051A00001F02CFF20200B9003208DF8300001200F
:1051B0008DF833000BA9504801F044F90121080291
:1051C00001F071FF00214FF4807001F06CFF0120AD
:1051D00002F0A7FA002007900A9009904FF480305F
:1051E000089007A802F068FA002001908DF80800E6
:1051F0008DF809000390059001208DF8180001A991
:105200003E4802F02AFA0723012205213B4802F01A
:10521000AAFA072301221021384802F0A4FA01213A
:10522000364802F060FA0DB000BD10B50446072301
:1052300001222146314802F096FA304802F0EFFA96
:1052400000BF02212D4802F00BFC0028F9D02B48AA
:1052500002F021FB10BD2DE9F04107460C46002568
:10526000002617E03846FFF7E0FF054424A1264852
:1052700000680C3003F0C8FE38B9002000E0401C84
:1052800040F2FF318842FADB02E00A2003F01CFA08
:10529000701CC6B2A642E5DBB5FBF4F080B2BDE8F7
:1052A000F0812DE9F04705211020FFF7D4FF824659
:1052B000504604F0D5FE804604F0D0FD06464FF07F
:1052C0006632124B04F0A0FB04460D46104A114B07
:1052D0002046294604F0D8FC80460F4A0F4B04F0C4
:1052E0008FF9064600220E4B04F0D6F804460D4610
:1052F00020462946BDE8F08700000240002001401A
:105300004D4F4E49544F52008400002066664A3F7C
:1053100052B81E85EB51E83F7B14AE47E17A643FFB
:105320000000394000B58BB00121880201F066FE13
:105330000121880201F0B7FE00214FF4806001F0E6
:10534000B2FE002007900A9009904FF48030089038
:1053500007A802F0B1F9002001908DF808008DF83F
:1053600009000390059001208DF8180001A930482C
:1053700002F073F901212E4802F0B5F90BB000BD1F
:1053800010B50446072301222146294802F0EBF913
:10539000274802F044FA00BF0221254802F060FBD2
:1053A0000028F9D0224802F076FA10BD1CB5012180
:1053B000202001F0C9FD8020009003208DF804001A
:1053C00000208DF8070069461A4801F03BF8FFF706
:1053D000A9FF1CBD70B50024002517E00520FFF7CC
:1053E000CFFF044414A1164800680C3003F00CFEF3
:1053F00038B9002000E0401C40F2FF318842FADB5F
:1054000002E00A2003F060F9681CC5B2052DE5DB57
:105410000520B4FBF0F4B4F57A6F01D94FF47A6447
:105420002820B4FBF0F0C0F16400C0B270BD0000F1
:1054300000220140001402404D4F4E49544F52008B
:10544000840000202DE9F84F81460C4692464846DC
:1054500004F0D2FD0646304604F0EAFD49460090CD
:1054600004F043FF8346002526B9302228466D1CF0
:1054700022540FE00CE00A2096FBF0F100FB1160D3
:105480003030C2B228466D1C22540A2096FBF0F63A
:10549000002EF0DC002060550027A5F1010809E08E
:1054A000E05D14F80810E15504F808007F1CA8F12D
:1054B000010800BF4745F3DB2E2228466D1C22540D
:1054C000584604F099FD06460021584604F060FD58
:1054D00005D10021681E05462154BDE8F88F16E06D
:1054E000FE49584604F004FE8346584604F084FD05
:1054F000064606F13000C2B228466D1C22543046E2
:1055000004F096FD5946009004F0EFFE8346681EB5
:10551000504504DA0021584604F0B6FEE0D30020DE
:10552000605500BFD9E710B5ED4803F077FBED48B3
:1055300003F074FBEC4803F071FBEC4803F06EFBE6
:10554000EB4803F06BFBEB4803F068FB10BD70B554
:10555000FFF7A7FE054604F0ABF9044641F2883098
:1055600084421EDA642094FBF0F100FB11400A280B
:1055700005DB642094FBF0F100FB114007E06420A0
:1055800094FBF0F100FB114000EB80004000064668
:10559000642094FBF0F532462946D7A003F03EFB89
:1055A0000FE041F2883084420BDD642094FBF0F17F
:1055B00000FB114594FBF0F62A463146D7A003F0D4
:1055C0002DFB70BD1CB5DEA003F028FBDF48007882
:1055D00018B1DFA003F022FB1CBD02F0D2FD04468F
:1055E000E249204604F050FE03D8E1A003F016FB88
:1055F00010E0DE49204604F047FD08D2DE4920468F
:1056000004F042FE03D8DDA003F008FB02E0DDA0B9
:1056100003F004FB032269462046FFF713FF6946A7
:10562000DAA003F0FBFA00BFD6E72DE9F04F8FB008
:10563000DAA003F0F3FADAA003F0F0FADAA003F04C
:10564000EDFADAA003F0EAFAD7A003F0E7FAD9A05E
:1056500003F0E4FADAA003F0E1FADAA003F0DEFAEC
:10566000DBA003F0DBFADBA003F0D8FACEA003F056
:10567000D5FADBA003F0D2FADCA003F0CFFA4FF0AA
:10568000000A29E1DB4850F82A0000287ED0D948DA
:1056900050F82A1006A802F0D3FFD7A0069903F00D
:1056A000BDFA069803F038FC082802D2C4A003F023
:1056B000B5FAD04850F82A00D0490968884203D189
:1056C000CFA003F0ABFA2AE0079800F47F0018B1EE
:1056D000D1A003F0A3FA22E0079800F0010018B16E
:1056E000D3A003F09BFA1AE0079800F0020018B16B
:1056F000D5A003F093FA12E0079800F0040018B167
:10570000D7A003F08BFA0AE0079800F0080018B160
:10571000D9A003F083FADDE0DBA003F07FFAE0A07C
:105720000B9903F07BFA0B9804F01FF98046894629
:105730000D9804F01AF90022DB4BCDE9000104F0CA
:1057400063F9064642464B4603F05AFF0022D64B09
:10575000CDE9020104F08CFA044603F06BFE8346A7
:10576000032204A9FFF76EFE0B9804F0FEF806462C
:105770000F460D9804F0F9F80022CB4BCDE9020159
:1057800004F042F9804632463B4600E0A1E003F0D7
:1057900037FF04460022C54B04F0FAF803D274A088
:1057A00003F03CFA1FE00B9804F0DFF806460F46C2
:1057B0000D9804F0DAF80022BB4BCDE9020104F0A9
:1057C00023F9804632463B4603F01AFF0446002286
:1057D000B74B04F017FA03D2B6A003F01FFA02E0A9
:1057E000B6A003F01BFA0D990B98421A04A9B5A0B4
:1057F00003F014FA0B9804F0B8F8804689460C9828
:1058000004F0B3F80022A84BCDE9020104F0FCF843
:10581000064642464B4603F0F3FE04460022A34BE5
:1058200004F0B6F803D252A003F0F8F91EE00B988A
:1058300004F09BF8CDE902010C9804F096F880463C
:105840000022994B04F0E0F80646DDE9022303F05C
:10585000D7FE04460022964B04F0D4F903D295A05B
:1058600003F0DCF902E095A003F0D8F90B9804F0FE
:105870007CF806460F460C9804F077F800228A4B15
:10588000CDE9000104F0C0F832463B46CDE9020103
:1058900003F0B6FE04460022834B04F0E9F980468B
:1058A00003F0C8FD8346032204A9FFF7CBFDDDE921
:1058B0000B01421A04A987A003F0B0F954A003F029
:1058C000ADF988A0099903F0A9F934A003F0A6F96D
:1058D00000BF00BF0AF1010A844809E1000020412D
:1058E000BCC2000874C300082CC4000818C3000818
:1058F000D0C3000888C40008435055CEC2B6C83A89
:10590000201B5B313B33326D253032642E252D3226
:1059100064A1E3430D0A1B5B306D0000435055CE7C
:10592000C2B6C83A201B5B313B33316D253032643F
:105930002E252D3264A1E3430D0A1B5B306D000060
:10594000435055C0FBD3C3C2CA3A200061000020B7
:105950001B5B313B33316D556E617661696C616201
:105960006C651B5B306D2020202020000000704201
:105970001B5B313B33316D000000A0411B5B303BB2
:1059800033346D001B5B303B33326D0025732525AE
:105990001B5B306D20202020200000000D0A00003D
:1059A0004E414D4500000000090900005354415488
:1059B00045000000535441434B53495A45000000F1
:1059C0000900000052545553454453495A450000BC
:1059D000092020004D41585553454453495A45002C
:1059E0000808085052494F52495459000D0A0D0AEF
:1059F0000000000088670020257309008400002053
:105A00001B5B313B33316D52554E4E494E47200999
:105A10001B5B306D000000001B5B313B33336D427C
:105A20004C4F434B454420091B5B306D0000000088
:105A30001B5B313B33326D524541445920202009D4
:105A40001B5B306D000000001B5B313B33366D4447
:105A5000454C4159494E47091B5B306D0000000021
:105A60001B5B313B33356D53555350454E44200934
:105A70001B5B306D00000000444553544F525945A4
:105A8000441B5B306D0D0A001B5B303B33316D55A1
:105A90004E4B4E4F574E20091B5B306D00000000EF
:105AA000252D3864090000000000594000004440E2
:105AB000008056401B5B313B33366D001B5B313B36
:105AC00033326D002534732525207C202564200980
:105AD000202000002534732525207C202564200902
